:020000040800F2
:10000000000700200D4C0008214A0008234A000880
:10001000254A0008274A0008294A00080000000075
:100020000000000000000000000000002B4A000853
:100030002D4A0008000000002F4A0008314A00083D
:10004000414C0008454C0008494C00084D4C000844
:10005000514C0008554C0008594C00085D4C0008F4
:10006000614C0008654C0008694C00086D4C0008A4
:10007000714C0008754C0008794C00087D4C000854
:10008000814C0008854C0008354A0008894C00085E
:10009000594A00088D4C0008914C0008954C000806
:1000A000994C00089D4C0008A14C0008A54C000884
:1000B000A94C0008AD4C0008B14C0008B54C000834
:1000C000B94C0008BD4C0008C14C0008C54C0008E4
:1000D000C94C00083B4A0008414A0008474A00084A
:1000E000CD4C0008D14C0008D54C0008D94C000874
:1000F000DD4C0008E14C0008E54C0008E94C000824
:10010000ED4C0008F14C0008F54C0008F94C0008D3
:10011000FD4C0008014D0008534A0008054D000839
:10012000094D00080D4D0008114D0008154D00083F
:10013000194D00081D4D0008214D0008254D0008EF
:10014000294D00082D4D0008314D0008354D00089F
:10015000394D00083D4D0008414D00084D4A00084A
:10016000454D0008494D00084D4D0008514D00080F
:10017000554D0008594D00085D4D00080000000075
:10018000614D0008654D000840F0200070472DE9E2
:10019000F14FB0B0924604910DF142013A9A2B9181
:1001A00099464A7000200AE01AF8011B0498309A18
:1001B00090470028049000F031860D98401C0D9067
:1001C0009AF8000050B12528EED1002100220791B5
:1001D000089209910A920B910C9204E00D9800F09C
:1001E0001FBE41F001011AF8010F2028F9D0232881
:1001F0000CD02B2804D02D2805D0302809D00BE0B6
:1002000041F00201EFE741F00401ECE741F00801A1
:10021000E9E741F01001E6E72A280FD1D9F80020DC
:1002200052F8040BC9F8002000280F9003D5404273
:100230000F9041F004010AF1010A14E00F92DFF877
:10024000E83B0AE00F98984205DA00EB800402EBE5
:100250004402303A0F920AF1010A9AF80020A2F102
:1002600030000A28EED39AF800002E2803D04FF071
:10027000FF320E9229E01AF8010F2A2809D1D9F885
:10028000000050F8042BC9F800000E920AF1010A90
:100290001BE02D280CBF0AF1010A002000220E925B
:1002A000DFF8844B0BE040B90E9AA24205DA02EB6C
:1002B000820503EB4503303B0E930AF1010A9AF8DD
:1002C0000030A3F130020A2AEDD3ADF840100FF64A
:1002D0005C309AF8001000F0C1FE08B11AF8010B6A
:1002E0008DF842009DF84200682805D19AF8000078
:1002F00068280CD1622106E06C2804BF9AF800003F
:100300006C2804D171218DF842100AF1010A12A85B
:1003100006901AF801BBBBF125012CD01C3900F066
:100320009481091F022940F29081133900F0A884BA
:10033000093900F08A81891E00F03D85491E00F0D0
:10034000EA84491E022940F28081091F00F0E384FB
:10035000491F00F0EF80491E00F09284491E00F012
:10036000D780C91E0CD0891E00F08A84C91E00F0F7
:10037000878400F02BBD01220792252100F023BDC8
:10038000D9F8000050F8044BC9F80000002C05947F
:1003900040F0AB802B994878002800F0A1804FF006
:1003A000FF340FF6902000F069FE201A40F03685E9
:1003B00000F018BD01236A4602A9304600F0FEFD98
:1003C000002840F02B856D1EF4D13096079D12AFAA
:1003D00075B1309E17F8011B0498B04700280490AF
:1003E00000F01C850D98401C6D1E0D90F2D13096CA
:1003F0000A9D3021002D8DF800100CDD309E012368
:100400006A4602A9304600F0D9FD002840F0068572
:100410006D1EF4D13096059F089D75B1309E17F87A
:10042000011B0498B0470028049000F0F7840D9851
:10043000401C6D1E0D90F2D130960B9D3021002D89
:100440008DF800100CDD309E01236A4602A930466B
:1004500000F0B4FD002840F0E1846D1EF4D1309628
:1004600005980899099D471875B1309E17F8011B2A
:100470000498B0470028049000F0D0840D98401CE8
:100480006D1E0D90F2D130960C9D3021002D8DF80F
:1004900000100CDD309E01236A4602A9304600F0B0
:1004A0008DFD002840F0BA846D1EF4D130969DF881
:1004B000400041077FF584AE2020002C8DF800001D
:1004C0007FF77EAE309D01236A4602A9284600F0E0
:1004D00075FD002840F0A284641EF4D130956FE6CB
:1004E0000FF63830059000F07DBC0E9D002D04D530
:1004F000204600F0E3FD044607E02A46204600F0CF
:10050000F9FD002814BF041B2C46089400F06ABCB7
:10051000D9F8001051F8040BC9F8001020F00004BD
:10052000002121F0FF35CDE9024512AB059378217A
:1005300000F03DBC2B99487820B14FF0FF340FF606
:10054000AC2030E79DF84200622860D0682817D0C0
:100550006A283FD06C2806D0712847D074282CD048
:100560007A281DD062E0D9F8001051F8040BC9F8C0
:100570000010002866D14FF0FF340FF6882012E7F4
:10058000D9F8001051F8040BC9F8001020B94FF049
:10059000FF340FF6702006E70D99018000F022BCB1
:1005A000D9F8001051F8040BC9F80010002849D1FF
:1005B0004FF0FF340FF64C20F5E6D9F8001051F853
:1005C000040BC9F8001000283CD14FF0FF340FF69F
:1005D0003420E8E6D9F8001051F8040BC9F80010EF
:1005E00080B94FF0FF340FF61C20DCE6D9F800107C
:1005F00051F8040BC9F8001020B94FF0FF340FF682
:100600000420D0E60D9AD317C0E90023EAE3D9F815
:10061000001051F8040BC9F8001020B94FF0FF3456
:100620000FF6E010BFE60D990170DBE3D9F800107A
:1006300051F8040BC9F8001020B94FF0FF340FF641
:10064000C410B0E60D990160CCE39DF842004C283F
:1006500007BFD9F80010CB1DD9F80000C31D23F047
:100660000703C9F80030D3E900010833C9F80030A6
:10067000CDE90201C80F02D007982D210AE0BDF88C
:100680004000810702D507982B2103E0C00705D55C
:100690000798202112AB1954401C079012A8079903
:1006A000DDE9024543184BF020006128059321AE97
:1006B0000BD00E98002802D506200E9005E001BF51
:1006C0004BF02000672801210E91DDE902014F0067
:1006D0007F1517F1010F0DD108030BD0ABF16102AB
:1006E00003201A2A089002D20FF634110FE00FF6F9
:1006F00034110CE017F1010F0ED109030CD1ABF14D
:10070000610203201A2A08901CD30FF6201103223D
:10071000184600F01BFD65E3DDE902016A4600F0C2
:1007200069FDCDE902014BF02000612811D1059847
:1007300030210170821C0592BBF1610F0CBF782142
:10074000582102E00FF6E001E1E741700798801CB4
:100750000790DDE9020120F0000231F0004308BFFC
:10076000002A02D10025002445E14BF02008B8F111
:10077000610F40F095800E98002847BF212101911C
:10078000401C0190019F7F1C204629460022002327
:10079000DDE9024500F066FD38BF85F000450099AF
:1007A0008DF88420091F002F00910DF1850034DDA4
:1007B0000646204629460022002300F06DFD2BD27C
:1007C0001C2200F083FD04460D4600F01DFEFF1FB5
:1007D000002F804609DD00F033FE02460B4620461E
:1007E000294600F0F5FE04460D46F01D0721B8F13C
:1007F000000F0CDD491E5EBF08F00F0200F8012D4E
:100800004FEA2818F3D502E0002200F8012D491E16
:10081000FAD5C61D002FCCDC30460DF18501401AFB
:1008200001990DF1850605468842C8BF0D46002D89
:100830002FD4854206DA0DF18500415D0829A8BF55
:100840000F2000DA0020294621AA0A4400E06D1E8C
:1008500012F80139491E8342F9D00F2804D10DF155
:100860008500425C521C4254002904D50098001DAA
:1008700021AE6D1C0090681E0BD431180A783032FE
:10088000D3B23A2BA4BF5A443A3A401E01F8012988
:10089000F4D50E98002840F1AD80691E0E91A9E0B4
:1008A0000099DFF8082747F29750414391FBF2F295
:1008B000009225F00045C2F10702002A04DD20461F
:1008C000294600F04FFB0BE052420020DFF8E01613
:1008D00000F048FB02460B462046294600F0EAFE9F
:1008E00004460D46B8F1660F06BF009F0A3706277B
:1008F0000E983F18142FC8BF142730208DF884009D
:100900000DF1850000E03046002F35DD064620461B
:10091000294600F0F3FF01460A4606F108030420C9
:100920000A26B2FBF6F606EB860EA2EB4E0230323A
:1009300003F8012C0A22B6FBF2F202EB820EA6EBC0
:100940004E063036401E03F8026DE9D1083F002FF5
:1009500003F10806D7DD084600F0E2FF02460B4629
:100960002046294600F034FE0022DFF8483600F029
:10097000E5FF04460D46CAE70DF18501401A0DF169
:10098000850604E00099491E401E0091761C3178CE
:100990003029F7D0B8F1660F02D10099491C04E064
:1009A000B8F1650F0CBF012100210E9D4D19A84221
:1009B000B8BF451E002D1DD4854204DA705D342871
:1009C000C8BF392000DC30202946721E531800E0D1
:1009D0006D1E13F80149491E8442F9D0392802D10D
:1009E000705C401C7054002904D50098401C1646C9
:1009F0006D1C0090009C01F077F8406A0778DDF8E4
:100A0000388028B2002802DC01250FF224664BF062
:100A10002000662808BF641C16D0672846D120B283
:100A200010F1040F48DB404546DA9DF84000641C95
:100A3000010703D428B24045D8BF804620B2B8EBA6
:100A4000000848BF4FF000080FFA84FBBBF1000F0D
:100A500000F3B5800898411C0891302205990A548A
:100A6000B8F1000F03DC9DF84000010704D5089899
:100A7000411C089105990F5418EB0B0FB8BFC8F132
:100A8000000424B26042A0442AB20B909045B8BF43
:100A90004546059B08982DB209952A4631461844CB
:100AA00000F054FBA8EB05000C90D2E0BBF1610F05
:100AB00017D14FF0700B19E028B2404504DA9DF8C9
:100AC00040100A0758BF8046B8F1010848BF4FF0F0
:100AD0000008BBF1670F14BF4FF0450B4FF0650BDB
:100AE00004E0BBF1410F08BF4FF0500B0898411CC8
:100AF0000891B8F1000F059916F8012B0A5403DC90
:100B00009DF8400001071AD50898411C0891B8F1DA
:100B1000000F05990F5412DD6D1E28B28045B8BF35
:100B200045460598089B2AB23146184400F00EFB52
:100B300008992DB269180891A8EB05000B9005984B
:100B40000899084421B2002980F800B003D42B2270
:100B50004270821C04E02D2242700C46821C6442CA
:100B600000212CAB20460AE004460A2094FBF0F05A
:100B700000EB8005A4EB450403F8014B491C00B2CF
:100B80000028F1DC012906DC4BF02000652804BFB9
:100B9000302002F8010B00292CAB08D1302002F8DC
:100BA000010B06E0491E585C303002F8010B0029A9
:100BB000F8DC059908980844121A099249E028B20D
:100BC00021B288421CDA0598089B2AB231461844A3
:100BD00000F0BCFA08992DB269180891ABEB05003A
:100BE000B8F1000F0B9003DC9DF84000020704D51C
:100BF000059847540999491C0991CDF8308028E09F
:100C00000598089B22B23146184400F09FFA0898D4
:100C10002D1B5844B8F1000F089003DC9DF84010DC
:100C20000A0703D5411C089105990F5428B2804545
:100C3000B8BF45460598089B2AB206EB0B0118443D
:100C400000F084FA08982DB228180890A8EB050047
:100C50000B909DF8400000F01400102840F0C28076
:100C6000079A08990B988A18099982180C988A187B
:100C700082180F98824280F2B580821A0A92B1E0FF
:100C80009DF84200622808D068280ED06A2814D047
:100C90006C281FD0712810D01CE0D9F8001051F832
:100CA000040BC9F80010C0B21AE0D9F8001051F8CE
:100CB000040BC9F8001080B212E0D9F80000C21D80
:100CC00022F00702C9F80020D2E900010832C9F871
:100CD000002006E0D9F8001051F8040BC9F8001004
:100CE0000021CDE902019DF8400001075AD5DDE958
:100CF0000223002B08BF002A54D04BF02000782894
:100D000050D1079812A930220A54401C431C079363
:100D100001F800B046E09DF84200622808D068283B
:100D20000ED06A2814D06C281FD0712810D01CE077
:100D3000D9F8001051F8040BC9F8001040B21AE0BD
:100D4000D9F8001051F8040BC9F8001000B212E0F5
:100D5000D9F80000C21D22F00702C9F80020D2E92C
:100D600000010832C9F8002006E0D9F8001051F857
:100D7000040BC9F80010C117CDE90201002902D502
:100D800007982D210AE0BDF84000810702D5079899
:100D90002B2103E0C00705D50798202112AA115482
:100DA000401C079012A8079901440591594602A8D2
:100DB00000F04EF816E001200790D9F8000050F836
:100DC000041BC9F800008DF848100BE00121252212
:100DD000BBF1000F07918DF8482003D00222079243
:100DE0008DF849B00F9A07980A990C9C121A089826
:100DF000521A0B99121A0998521A121A9DF84000A9
:100E0000141B41073FF5E2AA2020002C8DF80000BA
:100E10007FF7DCAA309E2546FFF7CCBA4FF0FF30B3
:100E200031B0BDE8F08F0000CBCCCC0C686A6C749C
:100E30007A4C00007072696E74665F733A2062616A
:100E40006420257320617267756D656E7400000003
:100E50002DE9FC4707468A463C6950466F2808BF83
:100E6000082505D0FFF790F9782814BF0A2510252A
:100E7000D7E900013C2680468946BAF1640F18BFC5
:100E8000BAF1690F05D1002903D5D8F1000869EB43
:100E90004909B9F1000F08BFB8F1000F0CD1386B48
:100EA00050B9082D3AD197F83800010736D53022CD
:100EB0003B2684F83B2031E08DF800A040464946AF
:100EC0002A46EB1700F014FE3032D0B2761E3A28D4
:100ED00001960EDAA255404649462A46EB1700F025
:100EE00007FE80465FEA010908BFB8F1000F05D18F
:100EF00008E09DF800001218513AEBE7F868A119D4
:100F00008842DBD3082D09D197F83800010705D5B1
:100F1000A05D302802D0761E3020A055C6F13C02DC
:100F2000BA61A119F960386B824208DA821A3A6212
:100F30004FF6EF70398F01403987BDE8F3870028FD
:100F40000ED597F8380000F01400102808D17B6BFC
:100F50007969386A5B1A1B1A9A1A002AC8BF3A6262
:100F6000BDE8F3872DE9D04306460F4614464FF0FF
:100F70000008DFF8449012E0E00707D542464B46F0
:100F80003046394600F0DAFC06460F4640464946F0
:100F900042464B4600F0D2FC641080468946002C45
:100FA000EAD130463946BDE8D0830000A086010072
:100FB0000000F03F84D7974100002440F8B5054673
:100FC0000E4617461C4600205CB117F8011BB0689E
:100FD000A847B06030B1F06A401CF0620020641E87
:100FE000F3D1F2BD4FF0FF30F2BD00007072696EB8
:100FF00074665F733A20256E20646973616C6C6F50
:10100000776564007072696E74663A20626164206C
:10101000256E20617267756D656E740000000000BA
:101020006E616E004E414E00696E6600494E46008C
:1010300030000EE002684368024408305FEAC37C77
:1010400044BF4B445B1E52F804CB43F804CB091F4A
:10105000F9D150F8041B0029ECD17047C9B20278CD
:101060008A421AB11CBF10F8012FF9E718BF0020FF
:1010700070470268531C03601170704780B500B957
:1010800006A005490B681BB122220021984701E008
:1010900000F0B1FD222002BDF4020020636F6E73E8
:1010A000747261696E742068616E646C65723A2056
:1010B000626164206D6573736167650000F101030F
:1010C000810704D010F8011B820781B1FAD10268B0
:1010D000A2F10131914311F0803104BF50F8042F87
:1010E000F6E709BAB1FA81F100EBD100401CC01A51
:1010F00070472E00C9B2830706D0521E22D310F8C3
:10110000013B9942F7D11FE0083A13D302F10402E0
:1011100041EA012141EA014150F8043B121F21BF7D
:101120004B40A3F1013C2CEA030C1CF0803FF3D0B0
:10113000C9B2001F083210F8013B521E28BF91EAC5
:10114000030FF8D818BF0120401E704762B38B0709
:1011500008D0521E11F8013B00F8013B00F024803A
:101160008B07F6D1830740F0208000BF103A07D3E9
:1011700030B4B1E83810103AA0E83810F9D230BCD9
:10118000530724BFB1E80810A0E8081044BF51F885
:10119000043B40F8043BD20724BF31F8022B20F86F
:1011A000022B44BF0B7803707047121F17D35B00EC
:1011B00009D151F8043B20F8023B1B0C121F20F808
:1011C000023BF6D20BE051F8043B00F8013B1B0A4E
:1011D00020F8023B1B0C121F00F8013BF3D238BF72
:1011E000121D521E24BF11F8013B00F8013BF8D834
:1011F0007047000010B5144600F002F8226010BDE0
:10120000C1F30A5343B14A0012F5001F28D2A3F2DA
:10121000FE32A1EB0251704750EA410C20D001F0A0
:10122000004C31EA0C01B1FA81F204BFB0FA80F34C
:10123000D2180B3AB2F120032CBF00FA03F191400F
:1012400041EA0C013EBFC2F1200C20FA0CF3194315
:101250009040524240F2FD33D21A01EB03517047E5
:101260000022704741EA030C50EA4C0C52EA0C0C85
:101270004FF4001C09D307D01CEB410F9CBF1CEBA3
:10128000430F8B4208BF824270471CEB430FFBD8D1
:10129000994208BF9042704741EA030C50EA4C0C57
:1012A00052EA0C0C4FF4001C09D307D01CEB410F81
:1012B0009CBF1CEB430F994208BF904270471CEB48
:1012C000410FFBD88B4208BF82427047124254D470
:1012D00040F2FF7C1CEA11530FD0634531D09B18BC
:1012E00063453CBF01EB0251704701F0004141EA08
:1012F0000C510020AFF30080704750EA410320D02A
:1013000001F0004C91EA0C011CD0B1FA81F30B3BC7
:101310009A420DD9D21A994051EA0C01C3F1200C1E
:1013200020FA0CFC61449840531C40F2FF7CD7E744
:10133000914041EA0C01C2F1200C20FA0CF3194350
:1013400090407047B0FA80F31533202BE0D3202A69
:10135000EED3203A203B9A4209D9D21A00FA03F17F
:1013600041EA0C010020531C40F2FF7CB8E700FA70
:1013700002F141EA0C0100207047524240F2FF7C2A
:101380001CEA11530DD06345DBD0B2EB030C3CBF1C
:10139000A1EB025170470CF1010221EA035141F423
:1013A000801150EA410CCCD001F0004C352A27DCEA
:1013B00030B481EA0C01B2F1200309DAC2F1200352
:1013C000044601FA03F5D0402843D1409C400CE08C
:1013D000C3F12002450020FA03F418BF44F00104D1
:1013E00021FA03F091400C43002174F1004550F1C3
:1013F000000051EB0C01244230BC7FF47BAF7047FE
:101400006146002076E70000C1F30A5340F21E4215
:10141000D31A0CDDCA0283F3070342EA505242F0AA
:101420000042DA4002EBE17282EAE17070476FEA53
:10143000E17203F2E13008B182F000407047000031
:1014400010F0004160B148BF4042B0FA80F29040D5
:10145000D21CC2F5846241EA025202EBD02140055F
:1014600070470000841A71EB030604D26E40001B23
:10147000B141121973414FF4001C1CEB410F34BFF2
:101480007CEB430683E00C0DA4EB1356362E00F3E1
:101490007C80012E45EAC32341DC43EA525312BF4C
:1014A000D20292025B08240545EAC12141EA50516B
:1014B000D2EBC020994125D407D1B0FA80F610FABA
:1014C00006F162D00020203608E0B1FA81F6B14082
:1014D000C6F1200220FA02F21143B0404FEAF47440
:1014E000B4EB465434F001064FEA74040AD8D6F53A
:1014F0000016760D04F00044F04061FA06F2504008
:10150000F1404840C00A40EA415021F0004128BF64
:101510005FEA500550F1000044EBD12135E0DB0AD1
:1015200045EAC121C90AB6F120050EDD42EA0242B0
:10153000120CC5F1200603FA06F6EB4042EA060556
:101540006D42984161F100010DE062FA06F5F2404A
:10155000554063FA06FC82EA0C02F3405A406D42A1
:10156000904161EB030111F4801F05D1641E6205F7
:1015700002D06D004041494121F48011430875F1CA
:10158000004350F1000041EB045170BC70471CEB6C
:10159000410F15D223F0004352EA43060BD04FEA25
:1015A0004C0CBCEB410F04D80C0D661E342EB7DD7D
:1015B000EBE7801A994150EA410608BF0021E4E7B1
:1015C00008BF1CEB430F28BF6FF00001DDE70000F0
:1015D00070B491EA030F4FF000457FF543AF6B40C5
:1015E000841A71EB030603D2001BB1411219734137
:1015F0004FF4001C1CEB410F34BF7CEB430442E072
:101600000C0DA4EB1356352E4FDC45EAC323DB0A41
:1016100045EAC121C912B6F120050DDD63FA05F6D0
:10162000EB4086EA0305124218BF45F00105C018D9
:1016300051F100010CD213E062FA06F5F240554078
:10164000F3415A40B340F3405A408018594107D300
:1016500049085FEA30005FEA350528BF45F001051B
:1016600001F58011420875F1004250F1000041EB94
:1016700004514E0016F5001F70BC38BF70470020A3
:10168000090D090570471CEB410F10D252EA4306C1
:101690000BD0BCEB410F05D80C0DAB43661E342EAE
:1016A000B6DD02E0AB438018594170BC704770BC96
:1016B00070470000F0B540F2FF7581EA030C0CF0B2
:1016C000004C15EA11541DBF15EA1357AC42AF4246
:1016D000E5E0BC41C1F31301C3F31303801A994140
:1016E00043F4801304D2641E001849418018594104
:1016F000C90241EA5051B1FBF3F603FB1611A2FBFC
:101700000675D7EBC020A94102D2761E8018594138
:10171000C90241EA5051B1FBF3FE03FB1E11A2FBCB
:101720000E75D7EBC020A94103D2AEF1010E80188F
:101730005941890241EA9051760546EA8E2EB1FB65
:10174000F3F603FB1611A2FB0675D7EB8020A94127
:1017500002D2761E80185941C90241EA50514EEA20
:10176000060EB1FBF3F603FB1611A2FB0675D7EBD1
:10177000C020A94102D2761E80185941C90241EA0F
:101780005051B1FBF3F703FB1711A2FB0735D3EB65
:10179000C020A94167F100070CBF004247F00107D4
:1017A00066F3D5274FEA1E31B80814F5806412DDC0
:1017B000BD0775F1004250EB0E5051EB045111F58D
:1017C000801F5CBF41EA0C01F0BD4CF07F6141F02D
:1017D000E0410020F0BDBD076D0840EA0E5041F425
:1017E0008011D4F10104B4F120060ADAC4F1200614
:1017F0000200E04001FA06F3E1401843B24015430D
:101800000EE0342C13DCC6F1200445EA40056D08D7
:1018100020FA06F2154321FA06F0A1400D430021FB
:1018200075F1004250F1000051EB0C01F0BD0020B9
:101830005FEA0C01F0BDCFB992185B41B3FA83F7B0
:1018400004BFB2FA82F6BF190B3FB7F120062FBFD3
:1018500002FA06F3BB40C7F1200622FA06F638BFAB
:101860003343BA401CB1E419641E33E77F4231F0C0
:101870000041B1FA81F404BFB0FA80F6A4190B3C20
:10188000B4F120062FBF00FA06F1A140C4F12006F2
:1018900020FA06F638BF3143A0403C1B1AE7AC42A1
:1018A0001ABF05EA1357AF4212E050EA41061CBFC7
:1018B00052EA4306BFE750EA4107304661461CBF83
:1018C00041EA0551F0BD52EA430C08BFC143F0BDE7
:1018D00000204FF4001616EB410F98BF16EB430F94
:1018E00008BF16EB410F24BFC14305E016EB430FC1
:1018F0000CBF61464CEA0551F0BD0000400D40F2BE
:101900001E4C40EAC120BCEB115C40F0004003D407
:101910008CF30701C84070476FEAE1707047000020
:1019200050B1B0FA80F18840C91CC1F58461090545
:1019300001EBD021400570470146704730B540F2B9
:10194000FF7C1CEA11541DBF1CEA13556445654514
:101950003FE0641981EA030C6FF35F530CF0004C15
:1019600043F48013C90241F0004141EA505EC502D0
:101970001100A5FB020200284FF00000EEFB012041
:101980004FF00001E3FB052118BF42F001024018AF
:1019900000214941E3FB0E01A4F580640D0302D24E
:1019A00092184041494154F1010470DD450872F13B
:1019B000004250F1000051EB0451A1F5801102D416
:1019C00041EA0C0130BD40F2FF7E4CEA0E5100208E
:1019D00030BD0CEA1355644518BF654581EA030C18
:1019E0000CF0004C41D050EA410E1CBF52EA430EAD
:1019F00002E06146002030BD24422C441BD15FEA46
:101A0000050EF6D0090302BF01460020AEF1140E08
:101A1000B1FA81F5AEEB050401FA05FE0C35C5F10E
:101A2000200100FA05F5C8404EEA000E6FF35F533F
:101A300043F480139CE733F00043B3FA83F504BF0B
:101A4000B2FA82FE75440B3D641BB5F1200E2FBF28
:101A500002FA0EF3AB40C5F1200E22FA0EFE38BF9B
:101A600043EA0E03AA40641C7CE750EA410E14BF0F
:101A700052EA430E6FF000014FF4001515EB430FCF
:101A80008EBF194615EB410F9DE7B4D830BDD4F198
:101A90000104B4F120050FDAC4F12005520828BF73
:101AA00042F0010210FA05FE01FA05F57244E2BFA8
:101AB000E0402843E1400FE0352C9ADCC5F12004DA
:101AC00052EA400220FA05F218BF42F0010231FA50
:101AD00005F0A1400A43002172F1004250F10000DC
:101AE00051EB0C0130BD0000004870472000002081
:101AF000D3BBD9B1B2F5803F5BD2022A1ED98C4646
:101B0000B1FBF2F102FB11C31B0443EA1043B3FB28
:101B1000F2FC02FB1C3380B240EA0343B3FBF2F059
:101B200002FB103240EA0C4000237047022A05D91C
:101B30008446B0FBF2F002FB10C270474AB105D1F7
:101B400000F0010249085FEA3000704700220023DC
:101B5000704700F053B80B000200002100207047CE
:101B6000F7D3002200237047904271EB030CF2D3AD
:101B700070B5B1FA81F4B3FA83F52C1BA340C4F11C
:101B8000200532FA05F63343A2405FF00046E640F6
:101B900002E05B085FEA3202841A71EB030524BF9E
:101BA000204629467641F4D302000B003000002184
:101BB00070BD70B5B1FA81F4B2FA82F5C4F12004B7
:101BC0006419B4F12006DAD3B2405FF00044F44067
:101BD000002502E052085FEA3303C61A71EB020ED9
:101BE00024BF3046714664416D41F3D302000B00BF
:101BF0002000290070BD012000F002B870470000ED
:101C000080B5AFF30080024A11001820ABBEFBE79D
:101C10002600020010B5040001D1012010BD94F887
:101C20003D0008B900F019F800F01CF800F026F8A3
:101C3000FFE72168486100F001F810BD2068C06826
:101C400040F400502168C86000202064202084F8FF
:101C50003D0084F83E000020704784F83C00204698
:101C600000F0CFBC242084F83D002068C06820F438
:101C700000502168C860204600F07CBB20680069E5
:101C800020F49040216808612068406920F02A0013
:101C900070472DE9FC4106460D4614461F4696F84E
:101CA0003D00202849D10DB1200001D1012045E09F
:101CB00096F83C00012840D0012086F83C00002026
:101CC0003064212086F83D0000F078FD8046B48421
:101CD000F48400F08FF804BF306900280EBF0024A0
:101CE0002C460025002086F83C000CE0002C12BF9A
:101CF00014F8010B35F8020BC0F308003168486096
:101D0000F08C401EF084F08C00280097434607D0EA
:101D100000228021304600F0DFF90028E6D005E0FF
:101D200000224021304600F0D7F908B1032005E039
:101D3000202086F83D00002000E00220BDE8F6816A
:101D40002DE9FC4106460D4614461F4696F83E0016
:101D500020284CD10DB1200001D1012048E096F897
:101D60003C00012843D000F082F80020306300F0EE
:101D700025FD8046B485F48500F03CF804BF306949
:101D800000280EBF00242C460025002086F83C00C9
:101D90000EE03068406800F07F0020E0ACB93068A9
:101DA0004068C0F3080025F8020BF08D401EF08556
:101DB000F08DB8B10097434600222021304600F054
:101DC0008BF90028EAD0032012E000F013F804D0C9
:101DD000002804BF30690028DBD13068406804F86F
:101DE000010BE2E7202086F83E00002000E0022000
:101DF000BDE8F681B068B0F5805F704790F83D307F
:101E0000202B1CD109B1130001D10120704790F89B
:101E10003C30012B13D0012380F83C3001628284D6
:101E2000C28400210164212180F83D10002180F846
:101E30003C100168C96841F0800100F0B8B9022087
:101E4000704790F83E30202B0FD109B1130001D11B
:101E50000120704790F83C30012B06D0012380F818
:101E60003C300023036300F085B902207047012055
:101E700086F83C0000203064222086F83E0070473F
:101E80002068143050E8001F206800F1140221F08F
:101E9000400142E80010002870472068143050E8E4
:101EA000001F206800F114024908490042E80010B0
:101EB000002870471CB5044620680168C268406964
:101EC00011F00F0F07D188065FD590065DD520462B
:101ED000BDE81640E4E1C30702D412F4907F54D069
:101EE000CB0705D5D30503D5236C43F00103236449
:101EF0004B0705D5C30703D5236C43F002032364C6
:101F00008B0705D5C30703D5236C43F00403236473
:101F10000B0707D5930601D4C00703D5206C40F00A
:101F200008002064206C00282ED0880604D5900676
:101F300044BF204600F0B4F920684069216C0907CD
:101F400001D440061BD5204600F035F920684069D1
:101F500040060FD5FFF794FFFCD1A06B50B10FF2F4
:101F6000B92000F083F800280ED0A06B016DBDE809
:101F70001C4008472046BDE8164000F025BC20461E
:101F800000F022FC0020206413BD206B01285CD1EE
:101F9000C8065AD5D00658D500F094F82068406994
:101FA000400627D5A06B0068406880B200285CD04E
:101FB000A18D884259DAE085A06BC069B0F5807FB9
:101FC00014D000F062F821F4807100F0BBF8F8D171
:101FD000FFF763FFFCD1FFF753FFFCD100F04FF890
:101FE00000F05BF8FCD1A06B00F0F0FBA18DE08D60
:101FF000091A24E0A08DE18D411AE08D00281CBF54
:1020000088B2002831D000F055F822F4907200F028
:1020100032F8F8D12068143050E8002F206800F121
:1020200014035208520000F026F8F3D100F027F80C
:1020300000F040F822F0100200F01DF8F8D189B24B
:102040002046BDE81C4000F02BBC080605D5100654
:1020500003D52046BDE81640E4E0480605D5500605
:1020600003D52046BDE816400CE113BDA16B086501
:10207000A06B00F0EDBB43E8002000287047202053
:1020800084F83E0000202063704720680C3050E840
:10209000001F206800F10C02704720680C3050E8E7
:1020A000001F206800F10C0221F0100142E800102E
:1020B0000028704720680C3050E8002F206800F19D
:1020C0000C03704700200090206800680090206892
:1020D00040680090009870472DE9F04105460E4693
:1020E00090461F46069C286800683040B0420CBFEE
:1020F00001200020404518D114F1010FF3D024B184
:1021000000F05CFBC01B8442EDD200F011F821F41A
:10211000D07100F017F8F8D100F018F8FCD100F0F9
:1021200022F885F83C00032000E00020BDE8F081A3
:1021300028680C3050E8001F286800F10C02704736
:1021400021F4F07142E8001000287047286814302C
:1021500050E8001F286800F114024908490042E8CD
:10216000001000287047202085F83D0085F83E00CB
:102170000020704781628285C2850021016422218E
:1021800080F83E10002180F83C10016929B10168F7
:10219000C96841F480710268D1600168496941F001
:1021A0000101026851610168C96841F020010068BD
:1021B000C1600020704701680C3151E8002F0168B0
:1021C00001F10C0322F4907243E800210029F2D1BE
:1021D0000168143151E8002F016801F1140352081D
:1021E000520043E800210029F2D1016B01290CD1F2
:1021F00001680C3151E8002F016801F10C0322F055
:10220000100243E800210029F2D1202180F83E107D
:102210000021016370470000806B0021C185C184EB
:1022200000F0D2BA90F83D10212929D18168B1F58A
:10223000805F04BF0169002909D1016A0988C1F3DF
:10224000080102685160016A891C016205E0016AA7
:102250004A1C0262097802685160C18C491EC1841F
:1022600089B259B90168C96821F080010268D1605A
:102270000168C96841F040010068C16000207047F2
:102280000220704780B50168C96821F040010268EA
:10229000D160202180F83D1000F003FB002002BD3A
:1022A00080B590F83E10222962D18168B1F5805F37
:1022B0000CD1016909B1826A0EE001684968C1F375
:1022C0000801826A1180816A891C0FE0826A0029F4
:1022D00004BF0169002902D10168496803E001686F
:1022E000496801F07F011170816A491C8162C18DCA
:1022F000491EC18589B2C9BB0168C96821F02001A6
:102300000268D1600168C96821F480710268D160F7
:10231000016849694908490002685161202180F833
:102320003E10016B01291FD10021016301680C31AE
:1023300051E8002F016801F10C0322F0100243E87C
:1023400000210029F2D101680968C90608D50021D9
:10235000009101680968009101684968009100993D
:10236000818D00F09DFA01E000F042FD002002BDE9
:10237000022002BD2DE9F84605462868016921F4CE
:102380004051E8680143286801612868C1683848FD
:102390000140A86801432869014368690143E8696D
:1023A00001432868C1602868416921F44071A86927
:1023B00001432868416128682E4988421CBF2E4984
:1023C000884202D100F0CDFE01E000F0C2FE0446DA
:1023D000E869B0F5004F6FF0630722D1192600F0CD
:1023E00062F86421B0FBF1FA00F05DF800F05AF8F1
:1023F00000F04AF8C0003230B0FBF1F0400000F4C9
:10240000F87000EB0A1A00F04EF800F04BF800F0FC
:1024100035F8FF0032376420B7FBF0F000F007001A
:1024200020E0192600F037F86421B0FBF1FA00F043
:1024300032F800F02FF800F027F800013230B0FB3E
:10244000F1F000F0F00000EB0A1A00F024F800F0C0
:1024500021F800F013F83F0132376420B7FBF0F0A9
:1024600000F00F00504429688860BDE8F186000044
:10247000F369FFFF00100140001401406421B0FB2C
:10248000F1F007FB009770476421B0FBF1F007FB08
:10249000009070478146A6FB04016A68930F920082
:1024A000FFF726BB8146A6FB04016A68D30F5200E2
:1024B000FFF71EBB82B000200090DFF8CC0201685D
:1024C00041F480410160006800F480400090009871
:1024D00000200090DFF8B402016841F080510160F3
:1024E000006800F0805000900098072002B000F0D3
:1024F000B4BE10B586B000F05CF82068DFF890122A
:10250000884225D10020009000F039F941F4807113
:102510000160006800F4807000F051F841F00101A2
:102520000160006800F00100009000980120019017
:10253000032002900020039001A9964800F0B0FE0D
:1025400000220021122000F089FE122000F095FEEA
:1025500006B010BD10B586B000F02BF820688E498B
:10256000884224D100F048F841F000710160006811
:1025700000F0007000F023F800F0C8F80090009818
:102580004FF440700190022002900020039003203D
:1025900004900920059001A9804800F081FE1420D4
:1025A00000F06BFE00220021142000F057FE06B060
:1025B00010BD04461422002101A800F063BF009062
:1025C00000980020009076480168704700687549BF
:1025D000884200D0704780B500F00EF800F08FF808
:1025E0000090009800220021362000F037FE3620AF
:1025F000BDE8024000F041BE002000906348016841
:10260000704710B586B0044614220021684600F0D9
:1026100039FF20686449884210D100F0AEF800F01C
:102620006EF800F08EF84FF4C06000F099F80022C8
:102630000021252000F012FE25205CE05B49884245
:1026400013D100F071F841F400310160006800F42A
:10265000003000F076F80C2000F082F80022002113
:10266000262000F0FBFD262045E0514988421ED17E
:1026700000F05AF841F480210160006800F48020E5
:1026800000F04BF800F042F8059005984FF44060D8
:1026900000F04FF8072004906946404800F000FE23
:1026A00000220021272000F0D9FD272023E0414906
:1026B000884222D100F061F841F0200101600068F9
:1026C00000F0200000F029F841F0040101600068EA
:1026D00000F0040005900598C02000F02AF80820BA
:1026E00004906946344800F0DBFD002200214720B9
:1026F00000F0B4FD472000F0C0FD06B010BD41F071
:1027000010010160006800F01000704741F0020104
:102710000160006800F002007047059005980020F5
:1027200005901F4801687047002005901748016810
:102730007047009002200190002002900320039037
:10274000704705900598002005901548016841F0F4
:1027500001010160006800F00100059005987047D4
:102760000090022001900020029003200390072097
:1027700004906946074800F093BD00200590024888
:1027800001687047000000004438024040380240B1
:1027900000200140000002400064004000040240AC
:1027A000303802400010004000100140004400405A
:1027B0000048004000140140000802400148006841
:1027C000704700BFF00200207047000070B504465B
:1027D000A56DFFF7F3FF064694F83500022806D0F2
:1027E00080206065002084F83400012070BD2068DE
:1027F000006800F040F804BFA06C002801D000F091
:1028000047F800F017F820680068C0070BD5FFF7FD
:10281000D5FF801B0628F6D320206065032000F03A
:1028200011F8032070BD3F20E16D8840A86000F0E2
:1028300008F870BD20680068400840002168086002
:102840007047012084F83500002084F83400704778
:1028500090F83510022903D080214165012070478E
:10286000052180F8351001680968490849000068A9
:1028700001600020704720F0160021680860206881
:10288000406920F0800021684861206C0028704772
:102890002068006820F00800216808607047000088
:1028A0007047704710B502460020012302E0D45C57
:1028B00000195B1C4C1EA342F9DBC043401CC0B294
:1028C00010BD10B5DFF8A04603E00120DFF89C162C
:1028D0000870DFF89C0601680968890619D54FF46D
:1028E0007A7309222146FFF72BFA09212046FFF7C8
:1028F000D9FF2178FF2904BF61781729E5D1A17894
:10290000042904BF217A8142DFD10020DFF85C1660
:102910000870DFF85806007810BD000080B5FFF79A
:10292000D0FFE8B90120DFF844160870DFF8380658
:102930000179407900EB012000EE100AB8EE400A60
:10294000DFED380AC0EE200ADFF82806C0ED000AE5
:10295000DFF8240680ED000A4FF47A7000F09CFD49
:10296000DFF8100690ED000A01BD30B502460023E5
:10297000012000E05B1CD45CCD5CAC4201D1082B93
:10298000F8D3072B38BF002030BD0168DFF8EC25F5
:102990001268914200D0704738B5DFF8E445DFF89F
:1029A000E4552B462246002100F039FF10B1BDE866
:1029B000314036E34FF48051DFF8CC0500F03EFDA6
:1029C000206840F24641884220D1DFF8C0152846F1
:1029D000FFF7CBFF012805D1DFF8B405BDE8324091
:1029E00001F0B7B8DFF8AC152846FFF7BEFF0128A5
:1029F00006D0DFF8A4152846FFF7B7FF012805D158
:102A0000DFF88C05BDE8324001F0DFB831BD006869
:102A1000DFF87C150968884203D10120DFF87C15B6
:102A20000870704700007A442DE9FE4F01F03AFA31
:102A300000F040F900F053FA00F0BEF900F0DCF9C4
:102A4000DFF8380500F027FE08B100F0EAFA0221AD
:102A5000DFF8280500F062FF08B100F0E2FA082074
:102A6000DFF83C15086100208860C86040F25960BA
:102A7000086000F0DEF900F000FA00F009FADFF873
:102A800024050090DFF8201501F026FA00F008FA7E
:102A900000F01DFA00F05CF9DFF8F40401F059F8D9
:102AA000DFF8F844DFF804A5DFF8F484DFF8CC940D
:102AB000DFF8FCB420780128FCD1FFF72FFFDFF806
:102AC000F424332010702E20507030209070D0707D
:102AD00000F0CBF8642190FBF1F03030107100F081
:102AE000C4F8642590FBF1F105FB11000A2190FB6D
:102AF000F1F03030507100F0B8F80A2690FBF1F197
:102B000006FB110030309071D671DFF8AC0480ED17
:102B1000000A00F09EF8009801F0F4F9ADF8040006
:102B2000009801F0EDF9DFF89474BDF80430024626
:102B3000DFF88C14584601F005FA38803A88594677
:102B4000DFF88004FFF75AF9DFF87C24342000F026
:102B5000A9F8007900F082F8007900F08CF800798B
:102B600000F094F8DFF86424352000F09BF88079B9
:102B700000F074F8807900F07EF8807900F086F833
:102B8000DFF84C74384601F026FA012000F084FC8E
:102B9000384601F04AFBDFF83C24362111702E2123
:102BA000517042F21071B0FBF1F13031917042F28C
:102BB00010710B46B0FBF3F301FB13034FF47A776C
:102BC000B3FBF7F33033D370B0FBF1FC01FB1C0C0B
:102BD0004FF47A739E46BCFBFEFE03FB1ECCBCFB8F
:102BE000F5FC0CF1300717718C46B0FBFCFC01FBC7
:102BF0001C0C9E46BCFBFEFE03FB1ECCAE46BCFB83
:102C0000FEFE05FB1ECC0A27BCFBF7FC0CF1300CCA
:102C100082F805C08C46B0FBFCFC01FB1C019C4605
:102C2000B1FBFCFC03FB1C116423B1FBF3F305FBBC
:102C300013150A21B5FBF1F106FB115630369671DA
:102C4000D771DFF89413086000F003F800202070BB
:102C500030E753464146484600F068BD642190FB8A
:102C6000F1F03030107100987047FDEEC00A10EEA0
:102C7000900AC0B2704790FBF1F105FB11000A21E8
:102C800090FBF1F0303050710098704790FBF1F1FB
:102C900006FB110030309071D671534641464846CC
:102CA00000F044BD10702E20507030209070D07015
:102CB0000098704780B592B03022002106A800F03D
:102CC000E1FB00F0A3F900200090C448016841F046
:102CD00080510160006800F0805000900098002052
:102CE0000090BF48016841F480410160006800F431
:102CF000804000900098022006900120099010204A
:102D00000A9002200C9000200D9008200E90482080
:102D10000F90022010900720119006A801F0E8FB08
:102D200008B100F07EF90F200190022002900020EF
:102D300003904FF4805004904FF4A050059002216E
:102D400001A800F071F908B100F06BF913B000BDF3
:102D50001FB510220021684600F094FB9C4CA1484E
:102D600020604FF4803060604FF08070A0600020E1
:102D70002061207684F82000E0629B48A062002059
:102D8000E0600120E061002084F8300001206061F3
:102D9000204601F0F7F808B100F043F90020009058
:102DA00001200190062002906946204601F040FA79
:102DB00008B100F036F91FBD80B570488B4901603D
:102DC0000221416000218160C1604FF460210161F6
:102DD0004FF4801141610021017601214176817615
:102DE000C1760021818300F06BFB00B14DE001BD95
:102DF00001466C4801F088B880B58AB0012008907F
:102E000000200590049048F6C0000090002001903A
:102E10004CF620200290002003900120069007909D
:102E20006946564800F0C7FB08B100F0FAF80BB04D
:102E300000BD1CB508220021684600F023FB544C5D
:102E40006B48206041F61F4060600020A06042F2A5
:102E50000F70E0600020A061204600F06DFE08B118
:102E600000F0DFF80020009001906946204601F054
:102E7000F0FC08B100F0D5F813BD80B54A485D49B3
:102E800000F016F800B100E001BDBDE80140C8E067
:102E900080B54C48584900F00BF800B1F5E701BD8A
:102EA00080B53348554900F003F800B1EDE701BDA6
:102EB00001604FF41651416000218160C1600161E1
:102EC0000C21416100218161C161FEF7A3BE80B583
:102ED0004B484C49FFF7ECFF00B1D6E701BD10B5F8
:102EE00086B000F093F8002000904748016841F058
:102EF00080010160016801F0800100F08CF841F070
:102F000001010160016801F0010100F084F841F065
:102F100002010160016801F0020100F07CF841F05B
:102F200004010160016801F0040100F074F841F04F
:102F300008010160006800F0080000900098124C41
:102F400001224FF4E041204600F074FA4FF4E040D3
:102F500001900120029000200390049001A92046D6
:102F600000F09EF906B010BDA8020020FA02002071
:102F700074010020DC020020E0020020300200206A
:102F800058020020D4020020000C02400000002063
:102F9000A40000200800002010000020FB020020F8
:102FA0009002002074020020EC000020E8020020C3
:102FB000FC010020CC020020E4020020F8020020E6
:102FC0002C4C000830010020B4020020BC0200207C
:102FD0005C000020C4020020EC02002040380240C7
:102FE00000700040002001400100000F006400401C
:102FF0000010004000100140004400400048004024
:10300000B801002000140140303802401422002191
:1030100001A800F037BA00910099002100910168E1
:10302000704772B6FEE700002DE9F04104000E463D
:103030005AD0534D00F082F802D200F07EF853D1FE
:103040002078800716D52078400704D500F07BF85B
:1030500041F4E05101602078000704D500F073F8D6
:1030600041F46041016047490A6822F0F002A0681B
:1030700002430A602078C0072ED56068012803D17A
:1030800041480068800306E0022818BF032804D1E5
:103090003D480068800104D426E03B480068800772
:1030A00022D5384F39688908606840EA8101396063
:1030B000FFF784FB8046386800F00C006168B0EBD5
:1030C000810F09D0FFF77AFBA0EB080041F28931AC
:1030D0008842F0D303202EE0286800F007008642E3
:1030E00004D200F02AF801D0012024E02078400723
:1030F00006D524490A6822F4E052E06802430A60D7
:103100002078000707D500F01EF821F460412269FD
:1031100041EAC201016001F0E5FB1C49194A12684D
:10312000C2F30312895CC840194908601948006855
:1031300001F008FC0020BDE8F0812E70286800F046
:103140000700B04270470F48016870471048006898
:10315000704780B5FFF7FAFF00F00DF8C2F3822246
:1031600006E080B5FFF7F2FF00F005F8C2F3423247
:10317000895CC84002BD0849024A126870470000D5
:10318000003C02400838024000380240FC4B000876
:103190001C00002018000020384C0008384A136832
:1031A0004FF6FF010B40000200F4E0601843354980
:1031B00008431060704732480068C0F3022070472F
:1031C000010007D4012200F01F018A402E49400966
:1031D00041F820207047020003D409012B4A115402
:1031E000704709012A4A00F00F00104400F8041C3F
:1031F000704710B500F00700C0F10703052B2FBF83
:103200000F23012404FA03F35B1E041D072C34BFB3
:103210000020C01E19408140012303FA00F0401E27
:103220001040084310BD10B50446601EB0F1807F09
:103230000CD2184908600F214FF0FF30FFF7CBFF89
:10324000002015490860072014490860641EB4F185
:10325000807F8041C043C00F10BD9FE770B504461A
:103260000D461646FFF7A7FF32462946FFF7C1FF76
:1032700001462046BDE87040ADE7A1E7D3E7000076
:103280000CED00E00000FA0500E100E000E400E0E1
:1032900018ED00E014E000E018E000E010E000E0CD
:1032A000F8B50023012404FA03F50A682A40AA426B
:1032B00040F0B7800D7905F00305012D1EBF0D7993
:1032C00005F00305022D12D1856803265F00BE407C
:1032D000B543CE68BE403543856045689C4025EACD
:1032E00004044D68C5F300159D402C4344600C79DF
:1032F00004F00304032C21D0C46803255E00B5400C
:10330000AC438D68B5402C43C4600C7904F00304D1
:10331000022C13D1DC0800EB8404246ADD0800EBE6
:1033200085050F269F0007F01C07BE40B4430E69B9
:103330009F0007F01C07BE4034432C62046803253D
:103340005E00B540AC430D7905F00305B5402C4354
:1033500004604C6814F4403F63D0002400943B4C5C
:10336000256845F480452560246804F48044009471
:10337000009C374C9D0854F825600F279D0005F0F0
:103380000C0507FA05F526EA0505324EB04208BFDE
:10339000002622D0304EB04208BF01261DD02F4E4D
:1033A000B04208BF022618D02D4EB04208BF0326F7
:1033B00013D02C4EB04208BF04260ED02A4EB04285
:1033C00008BF052609D0294EB04208BF062604D002
:1033D000274EB0420CBF072608269F0007F00C07B7
:1033E000BE4035439E0844F82650224D00F01EF89A
:1033F000F60248BF14432C601F4D00F017F8B602C8
:1034000048BF14432C601D4D00F010F8B60348BFB0
:1034100014432C601A4D00F009F8F60348BF14431A
:103420002C605B1C102BFFF43DAFF1BD2C68944366
:103430004E68704702B9090481617047426901EA28
:103440000203914341EA03418161704744380240DD
:103450000838014000000240000402400008024019
:10346000000C02400010024000140240001802400C
:10347000001C0240083C01400C3C0140043C01405F
:10348000003C014010B5044610460A46014620465D
:1034900001F07CFA204610BD38B50446FFF78EF9DE
:1034A000054614F1010F02D0044800782418FFF7F4
:1034B00085F9401BA042FAD331BD00BF580000205F
:1034C00038B5040022D094F8200010B92046FFF748
:1034D00041F800F016F9054620684068C00705D499
:1034E000FFF76CF9401B0B28F6D30DE000F002F952
:1034F000FFF764F9054620684068800708D5FFF7A4
:103500005DF9401B0B28F6D300F0ECF8012032BD2A
:10351000207E00F04CF80CBF40F0800020F08000CE
:1035200021680860607E00F042F80CBF40F0400067
:1035300020F0400021680860A07E00F038F80CBF41
:1035400040F0200020F0200021680860E07E00F0BC
:103550002EF80CBF20F0100040F010002168086029
:10356000207F00F024F80CBF40F0080020F0080095
:1035700021680860607F00F01AF80CBF40F004007A
:1035800020F0040021680860A168E0680143206918
:103590000143606901436068401E01432068C161C6
:1035A00000206062012084F82000002032BD012844
:1035B000206800687047F0B590F82020012A18BFF5
:1035C000022A52D1534A106840F00100106010687E
:1035D00020F47C50106010684B6A40EA03201060B1
:1035E00001200B7D03F01F0300FA03F34A4C20680F
:1035F00098432060C86960B9484805689D4300F059
:103600003AF8CE6800F03DF80E68C6EA0545C0F805
:103610004452C86901280CD1404805681D4300F098
:103620002AF80E6800F02DF8CE68C6EA0545C0F805
:103630004452886900283A4805680CBF9D431D43E1
:10364000056008690028374805680CBF9D431D4385
:103650000560086A012802D12068034323601068CE
:103660004008400010600020F0BD416A41F4802114
:1036700041620120F0BD05602B484D6900EBC50596
:1036800070474F68C7EA0646C5F840624D6900EBCF
:10369000C5008D68704738B5044694F820000128AD
:1036A0001AD1022084F820002068006840084000F9
:1036B00021680860FFF782F8054620684068C00767
:1036C00007D5FFF77BF8401B0B28F6D300F00AF86C
:1036D00006E00020606232BD606A40F40020606253
:1036E000012032BD606A40F400306062052084F839
:1036F000200070472068006820F002002168086000
:1037000070472068006840F0010021680860FFF7FA
:1037100055B80000006600401C6600400C66004082
:1037200004660040146600400064004030B590F824
:1037300020400568AD68012C18BF022C5ED115F041
:10374000E05F57D0C5F30164032C03D3416A41F411
:10375000000156E00125A5401D608B6823B90B6868
:10376000CD6845EA435505E04B688D6845EAC305D9
:10377000CB681D43036803EB0413C3F880510B6946
:10378000056805EB0415C5F88431097D01290AD1C6
:1037900000F03BF8D1F8841141F48071036803EB29
:1037A0000413C3F88411D17993791B0443EA0163AC
:1037B000517943EA0123117900F026F8C1F88C31E0
:1037C000D17893781B0443EA0163517843EA0123DB
:1037D000117800F019F8C1F8883100F016F8D1F826
:1037E000801141F00101006800EB0410C0F8801165
:1037F000002030BD416A41F4001102E0416A41F409
:1038000080214162012030BD0B43016801EB0411AE
:103810007047416A41F4802141620120704710B530
:1038200090F82040012C18BF022C59D100290468BF
:1038300001D1E46800E0246914F0030F03D1416A68
:1038400041F400114FE000F057F814F004049460C4
:1038500000F052F807BF640D1460E408546000F0F3
:103860004BF804F00204D46000F040F804F00F04B8
:10387000146100F03BF8C4F30724946100F036F8BB
:10388000240C546100F044F81A7000F041F8120A58
:103890005A7000F03DF8120C9A7000F039F8120ED0
:1038A000DA7000F02FF81A7100F02CF8120A5A7131
:1038B00000F028F8120C9A7100F024F8120EDA7158
:1038C0000029016805D1C96841F020010068C16084
:1038D00004E0096941F0200100680161002010BD89
:1038E000416A41F480214162012010BD046804EB6B
:1038F0000114D4F8B4417047046804EB0114D4F8FF
:10390000B0417047026802EB0112D2F8BC21704747
:10391000026802EB0112D2F8B821704790F820201B
:10392000012A18BF022A03D102685269114300E03C
:103930006FE700684161002070472DE9F84F0546A8
:103940004FF0000828684669D0F804B08468D0F8C1
:103950000C90D0F810A08769F00746D5E00714D581
:10396000012029688860A00703D5284601F041F8A6
:103970000BE0600748BF4FF4006806D420074EBF35
:103980004FF48058284601F035F8E00515D54FF47E
:10399000807029688860A00503D5284601F02BF8BF
:1039A0000BE0600548BF48F4005806D420054EBF20
:1039B00048F48048284601F01FF8E00315D54FF47D
:1039C000803029688860A00303D5284601F015F8E7
:1039D0000BE0600348BF48F4004806D420034EBF04
:1039E00048F48038284601F009F8300748BF5FEAFC
:1039F000C96004D548F4007810202968C8607007B1
:103A000048BF5FEA097005D508202968C8602846C4
:103A100000F0F5FFB00707D52868C06810F0030F65
:103A20001CBF2846FEF7B1FF700648BF5FEACA60B8
:103A300004D548F48068102029680861B00648BFA2
:103A40005FEA0A7005D5082029680861284600F059
:103A5000D7FFF00607D52868006910F0030F1CBFD8
:103A6000284600F0CEFFB00348BF5FEACB6005D523
:103A7000102029684860284600F0C4FFF00348BFC2
:103A80005FEA0B7005D5082029684860284600F0D9
:103A9000BAFF300441D55FEA4B703BD5F00503D542
:103AA000F80748BF48F00108B00503D5B80748BF7C
:103AB00048F00208700503D5780748BF48F00408AD
:103AC000300527D517F0700F24D007F07007102F9E
:103AD0000CD0202F0DD0302F0ED0402F0FD0502FD4
:103AE00010D0602F08BF48F480780DE048F0080837
:103AF0000AE048F0100807E048F0200804E048F029
:103B0000400801E048F080082868806920F07000D3
:103B100029688861042029684860B8F1000F09D03D
:103B2000686A48EA0008C5F824802846BDE8F24FD4
:103B300000F06ABFBDE8F18F10B5040001D101208B
:103B400010BD94F83D0018B900F088F8FEF73EFD6E
:103B500058E090F83D10012901D001207047022162
:103B600080F83D100168C96841F001010268D16028
:103B70000168DFF8CC20914218BFB1F1804F17D017
:103B8000DFF8C02091421CBFDFF8BC2091420FD06B
:103B9000DFF8B82091421CBFDFF8B420914207D073
:103BA000DFF8B02091421CBFDFF8AC20914205D174
:103BB000896801F00701062905D00168096841F00C
:103BC000010100680160002070470168C968490868
:103BD00049000268D1600168096A41F2111211427C
:103BE00001BF0168096A40F24442114205D10168EF
:103BF00009684908490002681160012180F83D10F8
:103C000000207047022084F83D00211D206800F04C
:103C1000E1F8012084F8460084F83E0084F83F0073
:103C200084F8400084F8410084F8420084F843009E
:103C300084F8440084F8450084F83D00002010BD5D
:103C4000000001400004004000080040000C00405B
:103C500000040140004001400018004084F83C008E
:103C60002046704710B5044620680069800718D5C3
:103C70002068C068800714D56FF0020021680861D1
:103C8000012020772068806910F0030F204602D0C1
:103C900000F0BBFE03E000F0B9FE00F098F8002051
:103CA000207720680069400718D52068C068400761
:103CB00014D56FF004002168086102202077206885
:103CC000806910F4407F204602D000F09EFE03E0A1
:103CD00000F09CFE00F07BF800202077206800694F
:103CE000000718D52068C068000714D56FF00800D9
:103CF00021680861042020772068C06910F0030F54
:103D0000204602D000F081FE03E000F07FFE00F0CC
:103D10005EF80020207720680069C00618D520686A
:103D2000C068C00614D56FF0100021680861082033
:103D300020772068C06910F4407F204602D000F050
:103D400064FE03E000F062FE00F041F800202077FE
:103D500020680069C00709D52068C068C00705D57C
:103D60006FF0010000F02FF8FEF751FE20680069A7
:103D7000000609D52068C068000605D56FF08000F0
:103D800000F021F800F043FE20680069400609D5E4
:103D90002068C068400605D56FF0400000F013F8B9
:103DA00000F036FE2068006980060BD52068C068E8
:103DB000800607D56FF0200000F005F8BDE8104040
:103DC00000F027BE10BD21680861204670472046DC
:103DD00000F020BE10B50468274B984218BFB0F120
:103DE000804F0BD0254A90421CBF254A904205D0F7
:103DF000244A90421CBF244A904210D124F07004FF
:103E00004A681443984218BFB0F1804F1BD01B4A38
:103E100090421FBF1A4A90421A4A904213D000F0B3
:103E200028F81CBF194A90420DD0194A90421CBF75
:103E3000184A904207D0184A90421FBF174A904232
:103E4000174A904203D124F44074CA68144324F002
:103E500080044A69144304608A68C2620A68826204
:103E6000984219BF084A90420969016301214161E2
:103E700010BD054A90427047000001400004004018
:103E800000080040000C00400004014000400140D8
:103E9000004401400048014000180040001C004060
:103EA0000020004080B50B48016841F400710160BA
:103EB000016841F480610160016841F48071016032
:103EC0000320FFF7CAF9002000F03CFDFEF7F2FAEC
:103ED000002002BD003C024010B5044608462060A8
:103EE0001E2313220549FDF7D4FE0A2204F108011E
:103EF0002068BDE81040FDF7A4BF0000E84B0008B3
:103F000080887047C08870470268914218D1417A12
:103F1000C0290FD1C17A827A42EA01220A2192FB9A
:103F2000F1F18180417B027B42EA01220A2192FB6E
:103F3000F1F1C1800A2200F108010068FDF781BF9C
:103F4000704700000CB430B583B00A4606A9029150
:103F5000044600250194009502AB01A90848784465
:103F60001E30FCF714F9019A157000284EBF044664
:103F70000198041B204603B030BC5DF80CFB00BF69
:103F8000F3D0FFFF38B5044600250CB9012032BD3F
:103F9000206C30B92046FEF7ACFA0020606484F84B
:103FA0003C00206CC00610D4206C20F4885040F0F7
:103FB00002002064204600F0E6F900206064012041
:103FC000216C60F30101216400E00125002084F8E8
:103FD0003C00284632BD81B00021009190F83C1091
:103FE000012908BF022000F08280012180F83C10E6
:103FF00001688968C90715D40168896841F0010121
:1040000002689160DFF8C4140968DFF8C424B1FBCA
:10401000F2F101EB410101E00099491E0091009984
:104020000029F9D101688968C90757D5026CDFF802
:10403000A4140A4042F48072026401684968490588
:1040400004D50121026C61F30D320264016CC904D4
:1040500046BF416C21F0060100214164002180F837
:104060003C106FF0220102681160DFF86C140A68DE
:1040700012F01F0F22D10268DFF860349A4211D08B
:10408000DFF85C349A4204D1096811F01F0F2DD17A
:1040900008E0DFF850349A4228D1096801F01F0186
:1040A000102923D21146896811F0405F1ED11146B4
:1040B000896841F080411046816017E00068DFF8B0
:1040C0001C14884202BFDFF82004016811F0405F31
:1040D0000CD1016841F08041016007E0016C41F0C2
:1040E00010010164416C41F001014164002001B004
:1040F000704770B50446206805684668A8072CD547
:10410000B0062AD5206CC00603D4206C40F40070A1
:10411000206400F085F804BF207E002816D12068B6
:10412000C06A10F4700F03D02068806840050DD479
:104130002068406820F0200021684860206C20F44E
:1041400080702064206CC00400F064F8204600F009
:1041500062FC6FF0120021680860680735D53006F0
:1041600033D5206CC00603D4206C40F4005020648A
:104170002068806810F4401F20D12068806B10F404
:10418000401F03D020688068400517D4206840682D
:10419000400513D400F044F804BF207E00280DD160
:1041A0002068406820F0800021684860206C20F47E
:1041B00080502064206CC00500F02CF8204600F0F0
:1041C0002BFC6FF00C0021680860E80710D5700622
:1041D0000ED520680068C0070AD5206C40F48030F6
:1041E0002064204600F019FC6FF00100216808608F
:1041F000A8060ED570010CD5606C40F0020060641A
:104200006FF0200520680560204600F007FC20685C
:10421000056070BD03D4206C40F00100206470473D
:104220002068806810F0405F70470068C06C70477D
:1042300018B502460020009092F83C00012801D1F8
:10424000022012BD012082F83C0008680A2810688C
:104250000FD3C068072300F084F898431368D86030
:104260001068C0688B6800F07CF818431368D86049
:1042700012E0006907230C6804EB4404A340984350
:1042800013681861106800698B680C6804EB4404BB
:10429000A3401843136818614868072810D21068B3
:1042A000406B1F234C68641E00F067F85863106869
:1042B000406B0B884C68641E00F059F8586321E08D
:1042C0000D2810680FD2006B1F234C68E41F00F00C
:1042D00054F818631068006B0B884C68E41F00F0FA
:1042E00046F818630EE0C06A1F234C680D3C00F0CE
:1042F00044F8D8621068C06A0B884C680D3C00F026
:1043000036F8D86275481368834207D10B68122BC0
:1043100007D1714B1C6844F480041C60136883420D
:104320001BD10868102818BF112816D16A480368E5
:1043300043F400030360086810280ED16348006846
:104340006349B0FBF1F10A204143009102E000987B
:10435000401E009000980028F9D1002082F83C000F
:1043600012BD0C680A3C04EB4404A340704704EB04
:104370008404A34018431368704704EB8404A340EB
:10438000984313687047544A116821F44031116012
:10439000136841680B4313600168496821F4807118
:1043A0000268516001684968026941EA02210268B5
:1043B00051600168496821F04071026851600168EC
:1043C0004A6881680A4301684A600168896821F483
:1043D00000610268916001688A68C1680A430168E7
:1043E0008A60816A414A91420168896821F070615E
:1043F00002689160016811D08A68816A0A43016885
:104400008A600168896821F0405102689160016802
:104410008A68C16A0A4301688A6004E0896821F0F9
:104420004051026891600168896821F002010268C8
:10443000916001688968027E41EA420102689160E8
:1044400090F8201000290168496810D041F40061FB
:10445000026851600168496821F460410268516056
:1044600001684968426A521E41EA423101E021F482
:104470000061026851600168C96A21F47001026834
:10448000D1620168C96AC269521E41EA02510268DA
:10449000D1620168896821F4007102689160016845
:1044A000896890F8302041EA4221026891600168F1
:1044B000896821F4806102689160016889684269B5
:1044C00041EA822100688160704700001C000020E2
:1044D00040420F00FEF9FFFF04230140002001408D
:1044E0000021014000220140082001400100000F8E
:1044F0002DE9FC4104001AD02078C00719D5DFF857
:104500001C03016801F00C01042909D0006800F0C7
:104510000C00082845D1DFF808030068400240D5A8
:10452000DFF800030068800303D56068002800F00E
:104530007081207880071DD5DFF8E002016811F056
:104540000C0F08D0006800F00C0008285ED1B448B9
:10455000006840025AD4B3480168890703D5E1686E
:10456000012940F05681016821F0F801226941EAF1
:10457000C20101602078000778D56069002866D004
:104580000120A9490860FEF719F90546A748006807
:1045900080076BD4FEF712F9401B0328F6D30320E3
:1045A0003AE16068B0F5803F01D19E4807E0B0F580
:1045B000A02F9C48016806D141F480210160016868
:1045C00041F4803105E021F480310160016821F47B
:1045D00080210160606860B1FEF7F0F805469148FF
:1045E00000688003A5D4FEF7E9F8401B6528F6D3E0
:1045F000D5E7FEF7E3F805468A480068800398D5BA
:10460000FEF7DCF8401B6528F6D3C8E7E06878B110
:10461000012087490860FEF7D1F805468148016806
:104620008907A0D4FEF7CAF8401B0328F6D3B6E7E3
:104630007F490860FEF7C2F805467A48006880079F
:1046400098D5FEF7BBF8401B0328F6D3A7E77649B9
:104650000860FEF7B3F8054674480068800705D582
:10466000FEF7ACF8401B0328F6D398E72078400704
:1046700061D500256F4E3068C0000BD4002000903B
:10468000306840F080503060306800F0805000901A
:1046900000980125684F3868C00510D4386840F488
:1046A00080703860FEF78AF880463868C00506D406
:1046B000FEF784F8A0EB08000328F6D36FE7A068A4
:1046C000012801D15D4806E005285C48016806D153
:1046D00041F004010160016841F0010105E0490871
:1046E00049000160016821F004010160A06870B117
:1046F000FEF764F8074651480068800716D4FEF7B5
:104700005DF8C01B41F289318842F4D347E7FEF7D8
:1047100055F8074649480068800707D5FEF74EF868
:10472000C01B41F289318842F4D338E71DB13068AB
:1047300020F080503060A06900286CD037480068B5
:1047400000F00C000828A0693FD002282DD13C4D74
:1047500000202860FEF732F80746324E30688001AC
:1047600005D5FEF72BF8C01B0328F7D317E7E06940
:10477000216A0843616A40EA8110A16A4908491E1A
:1047800040EA0140E16A40EA0160254908600120F1
:104790002860FEF713F80446306880013BD4FEF72A
:1047A0000DF8001B0328F7D3F9E600202449086020
:1047B000FEF704F804461B48006880012BD5FDF77E
:1047C000FDFF001B0328F6D3E9E6012821D0144899
:1047D000006800F48001E269914202BF00F03F01ED
:1047E000226A914201BF47F6C0710140626AB1EB93
:1047F000821F0ED100F4403101F58031A26A5208C7
:10480000B1EB024F02BF00F07060E16AB0EB016FE4
:1048100001D0012000E00020BDE8F6810838024008
:104820000438024000380240800E4742743802408B
:10483000000047424038024000700040703802409B
:10484000600047420268D160002180F83C100020DF
:1048500010BD10B590F83C20012A01D1022010BDF6
:10486000012280F83C20022280F83D200268546832
:10487000936824F070040A68144302685460026864
:10488000144CA24218BFB2F1804F11D0104CA2427A
:104890001CBF114CA2420BD00C4CA2421CBF0F4CAF
:1048A000A24205D0084CA2421CBF0D4CA24205D129
:1048B00023F0800349680B4311468B60012180F887
:1048C0003D10C1E70000000000400140000C004026
:1048D00000040040000001400008004000040140C6
:1048E0000018004010B51348006800F00C000428C0
:1048F00002D0082802D01BE00F4810BD0F4C2268E0
:1049000002F03F02206840022068C0F3881001D501
:10491000094900E00A49A1FB00010023FDF7E8F87E
:104920002168C1F30141491C4900B0FBF1F010BD01
:10493000034810BD0838024000127A0004380240D3
:104940000024F40010B504464FF47A700C4909783D
:10495000B0FBF1F00B490968B1FBF0F0FEF78EFCFB
:1049600058B9102C09D2002221464FF0FF30FEF733
:1049700075FC05480460002010BD012010BD00BF7B
:10498000580000201C0000201800002062F30F22B5
:1049900062F31F42401810F0030308D0C91A1FD356
:1049A000DB0748BF00F8012D28BF20F8022D1300B7
:1049B00030B414461546103928BF20E93C00FAD817
:1049C000490728BF20E90C0048BF40F8042D8900A2
:1049D00028BF20F8022D48BF00F8012D30BC7047D9
:1049E000C91818BF00F8012DCB0728BF00F8012D0A
:1049F00070477047704770477047704770477047FF
:104A000070477047704770477047704770477047EE
:104A10007047704770477047704770477047000095
:104A2000FEE7FEE7FEE7FEE7FEE7704770477047E8
:104A300000F024B80A48FFF75CBB0A48FDF73ABA11
:104A40000948FDF737BA0948FDF734BA0848FDF7B9
:104A500031BA0848FFF706B90748FEF76EBF0000F5
:104A60005C000020EC0000203001002074010020D8
:104A7000B8010020A4000020300200200348016893
:104A8000034A127889180160704700BFF0020020C5
:104A9000580000205F44656661756C745F506172F8
:104AA0006B696E6744617461626173651000000038
:104AB0000024F400F2110008F2110008F2110008BD
:104AC000F2110008F2110008F2110008F2110008BA
:104AD000FFFFFFFFFFFFFFFFF2100008F2110008C9
:104AE000F2110008FFFFFFFFFFFF000001000000C0
:104AF00030B4002512E050F8042BD30744BF4A44D9
:104B0000521E091F042942F8045BFAD213468C078F
:104B100044BF15809B1CC90748BF1D7050F8041B7B
:104B20000029E8D130BC704710B5074979441831E5
:104B3000064C7C44163404E00A68081D114488477A
:104B40000146A142F8D110BD2C0000004C0000002D
:104B50004EF68851CEF20001086840F470000860FB
:104B6000BFF34F8FBFF36F8F4FF00170E1EE100A6C
:104B7000704700007DFFFFFFA00200005C000020E6
:104B800000000000AFC4FFFF5C00000008FFFFFF53
:104B9000000000200000000000F00DF8002801D007
:104BA000FFF7C2FFAFF300800020AFF30080FDF7F6
:104BB0003BFF00F002F80120704700F001B8000050
:104BC00007463846FDF71CF8FBE70000054801469C
:104BD00003B4684680F30988AFF30080FFF7B8FF9D
:104BE000FFF7DAFFA5EDF5FEAAB40601010000000B
:104BF00000000000000000FFFF06AB000000000006
:104C0000000000000102030406070809014880476C
:104C1000014800471D4C0008CD4B000802480168C0
:104C200041F470010160704788ED00E025642025A3
:104C300064200A0D000000000000000001020304CF
:104C4000FFF7FEBFFFF7FEBFFFF7FEBFFFF7FEBF98
:104C5000FFF7FEBFFFF7FEBFFFF7FEBFFFF7FEBF88
:104C6000FFF7FEBFFFF7FEBFFFF7FEBFFFF7FEBF78
:104C7000FFF7FEBFFFF7FEBFFFF7FEBFFFF7FEBF68
:104C8000FFF7FEBFFFF7FEBFFFF7FEBFFFF7FEBF58
:104C9000FFF7FEBFFFF7FEBFFFF7FEBFFFF7FEBF48
:104CA000FFF7FEBFFFF7FEBFFFF7FEBFFFF7FEBF38
:104CB000FFF7FEBFFFF7FEBFFFF7FEBFFFF7FEBF28
:104CC000FFF7FEBFFFF7FEBFFFF7FEBFFFF7FEBF18
:104CD000FFF7FEBFFFF7FEBFFFF7FEBFFFF7FEBF08
:104CE000FFF7FEBFFFF7FEBFFFF7FEBFFFF7FEBFF8
:104CF000FFF7FEBFFFF7FEBFFFF7FEBFFFF7FEBFE8
:104D0000FFF7FEBFFFF7FEBFFFF7FEBFFFF7FEBFD7
:104D1000FFF7FEBFFFF7FEBFFFF7FEBFFFF7FEBFC7
:104D2000FFF7FEBFFFF7FEBFFFF7FEBFFFF7FEBFB7
:104D3000FFF7FEBFFFF7FEBFFFF7FEBFFFF7FEBFA7
:104D4000FFF7FEBFFFF7FEBFFFF7FEBFFFF7FEBF97
:104D5000FFF7FEBFFFF7FEBFFFF7FEBFFFF7FEBF87
:084D6000FFF7FEBFFFF7FEBFE5
:0400000508004BCDD7
:00000001FF
