:020000040800F2
:10000000380500206D1B0008691A00086B1A0008EB
:100010006D1A00086F1A0008711A0008000000002D
:10002000000000000000000000000000731A00083B
:10003000751A000800000000771A0008791A0008F5
:100040007D1B0008811B0008851B0008891B000818
:100050008D1B0008911B0008951B0008991B0008C8
:100060009D1B0008A11B0008A51B0008A91B000878
:10007000AD1B0008B11B0008B51B0008B91B000828
:10008000BD1B0008C11B0008C51B00087D1A000825
:10009000811A0008891A00088B1A0008C91B000879
:1000A000CD1B0008D11B0008D51B0008D91B000878
:1000B0008D1A0008DD1B0008E11B0008E51B000885
:1000C000E91B0008ED1B0008F11B0008F51B0008E8
:1000D000F91B0008FD1B0008011C0008051C000896
:1000E000091C00080D1C0008111C000838B504008C
:1000F00022D094F8200010B9204600F0A4FA00F0B5
:10010000E5F8054620684168C80705D400F040FBC3
:10011000401B0B28F6D30DE000F0D1F800F038FBBF
:10012000054620684168880708D500F031FB401B70
:100130000B28F6D300F0BBF8012032BD207E012849
:1001400006D1216808680A4640F08000106005E08A
:1001500020680168024621F080011160607E00F095
:100160003DF80CBF41F0400121F040010160A07E4C
:1001700000F034F80CBF41F0200121F020010160B3
:10018000E07E00F02BF80CBF21F0100141F01001CF
:100190000160207F00F022F80CBF41F0080121F03F
:1001A00008010160607F00F019F80CBF41F0040104
:1001B00021F004010160A268E068216902436069DE
:1001C0000A43616802432068491E0A43C261002154
:1001D0006162012084F82000002032BD01282068DF
:1001E00001687047F0B5066890F82020012A18BF12
:1001F000022A51D106F500720124106840F0010076
:10020000106006F511750B7DD06903F01F0304FA29
:1002100003F3DC432040D06106F51076C86970B95D
:10022000D0682040D0604868CF6800F039F80F6887
:100230008868BFB247EA0047486945F83070C86926
:1002400001280ED1D0681843D06048680F6800F0CC
:1002500027F8CE688868B6B246EA0046486945F88D
:1002600030608869002850680CBF204018435060F7
:1002700008690028506907BF044054611843506161
:10028000086A012802D1D0690343D36100201168B4
:10029000490849001160F0BD416A41F480211CE029
:1002A00080B240EA07404F6946F837007047606AFD
:1002B00040F400306062052184F820107047206807
:1002C0000168024621F00201116070472068016850
:1002D00041F00101016000F05BBA41620120F0BD14
:1002E000F0B590F82040012C18BF022C66D10029EF
:1002F000046801D1E56800E0256915F0030F03D11A
:10030000416A41F400115CE00D0104F5D87674599E
:1003100014F004049460066806F5D87603D1745985
:10032000640D146002E07659F6085660046804F51E
:10033000D876775907F00207D76000F043F806F047
:100340000F06166100F03EF8C6F30724946100F032
:1003500039F8360C566102682A44D2F8B8411C704C
:1003600006682E44D6F8B821120A5A7004682C4444
:10037000D4F8B821120C9A7004682C44D4F8B8212F
:10038000120EDA7000F023F81A7100F020F8120A49
:100390005A7100F01CF8120C9A7100F018F8120E45
:1003A000DA71006821B9C16841F02001C16003E041
:1003B000016941F0200101610020F0BD416A41F472
:1003C00080218AE704682C44D4F8B461704704683B
:1003D0002C44D4F8BC2170472DE9F84F05464FF066
:1003E000000828684669D0F804B08468D0F80C90FA
:1003F000D0F810A08769F10745D5E20713D5012190
:100400008160A00703D5284600F0C8F90BE060071B
:1004100048BF4FF4006806D420074EBF4FF4805801
:10042000284600F0BCF9E00515D52A684FF4807124
:10043000A005916003D5284600F0B2F90BE06005F5
:1004400048BF48F4005806D420054EBF48F4804801
:10045000284600F0A6F9E00315D52A684FF480314C
:10046000A003916003D5284600F09CF90BE06003DF
:1004700048BF48F4004806D420034EBF48F48038F3
:10048000284600F090F9300748BF5FEAC96104D5FB
:100490002968102048F40078C860700748BF5FEAF8
:1004A000097105D508202A68D060284600F07CF93B
:1004B000B00707D52968C86810F0030F1CBF28468D
:1004C00000F08FF9700648BF5FEACA6104D5296859
:1004D000102048F480680861B00648BF5FEA0A71DE
:1004E00005D508202A681061284600F045FBF00673
:1004F00007D52968086910F0030F1CBF284600F0D3
:100500003CFBB00348BF5FEACB6105D52A681020E9
:100510005060284600F032FBF00348BF5FEA0B71E1
:1005200005D52A6808205060284600F028FB3004D2
:1005300040D55FEA4B713AD5F00503D5F90748BFBE
:1005400048F00108B00503D5B90748BF48F00208D4
:10055000700503D5790748BF48F00408300526D553
:1005600017F0700F23D007F07007102F0CD0202F3A
:100570000DD0302F0ED0402F0FD0502F10D0602F25
:1005800008BF48F480780DE048F008080AE048F019
:10059000100807E048F0200804E048F0400801E0B7
:1005A00048F080082868816921F070018161042089
:1005B00029684860B8F1000F09D0686A48EA000865
:1005C000C5F824802846BDE8F24F00F0D9BABDE84E
:1005D000F18F30B5016884684218416802EB51031D
:1005E000C90703D54C4401E0491C08D19A4218BF01
:1005F00012F9011B01D10C3030BD12F8015B00294A
:1006000004F8015BF0D4491EF7D5EFE75B4881B0F1
:10061000016841F001010160026802F001020092EC
:100620000099426842F080524260406800F0805079
:10063000009000985248016821F0E06141F000719B
:10064000016001B0704718B585B004461022002142
:10065000684600F096FA21684A48814248D14748E6
:10066000494C416841F000714160416801F00071FE
:1006700004910499026842F0040202604FF40061A0
:10068000006800F004000490002204980091019298
:1006900002926946204600F07FFA4FF48050022112
:1006A00000900191032203926946204600F074FAFB
:1006B00000220021132000F07DFB132000F097FBA7
:1006C00000220021142000F075FB142000F08FFBA5
:1006D00000220021152000F06DFB152000F087FBA3
:1006E00000220021162000F065FB162000F07FFBA1
:1006F00006B010BD18B585B004461022002101A82F
:1007000000F03FFA206800F033F809D1086840F49F
:1007100000600860096801F400610091009825E01C
:10072000B0F1804F22D1486840F00100486048682D
:1007300000F00100009000980A6842F004020A608C
:100740000022096801F004010091012100980E487F
:1007500001910292039201A900F01EFA00220021E9
:100760001C2000F027FB1C2000F041FB06B010BD50
:10077000064A0249904270470000000018100240EB
:10078000040001400064004000080140002C0140CA
:1007900001484068704700BFAC00002070477047B8
:1007A00070477047704770477047000030B5024689
:1007B0000023012000E05B1CD45CCD5CAC4201D185
:1007C000072BF8D9072B38BF002030BDDFF8801386
:1007D00000688A6A904203D1DFF87813012008701C
:1007E000704738B5DA4C01682568A94231D104F167
:1007F000A4052B4604F170020021FFF771FD10B132
:10080000BDE83140B6E1206F40F24641884220D138
:1008100004F18C012846FFF7C9FF012805D104F136
:100820002800BDE8324000F040BB04F194012846A6
:10083000FFF7BCFF012806D004F19C012846FFF712
:10084000B5FF012805D104F12800BDE8324000F0D1
:1008500057BB31BDF8B586B000F000FD00F027F9B8
:10086000102200F056F9BC48BC4E0168B84C41F06B
:1008700020010160026802F02002049204990268DB
:1008800042F0040202600022006800F004000490BC
:100890004FF400710498304600F054FA4FF4807021
:1008A00000210090019102913046694600F074F9F0
:1008B0004FF4007100910122019200210291022265
:1008C00003926946304600F067F9A548206002218E
:1008D0004FF4801060616160012000224FF46021BC
:1008E0006076E076A260E26021612276A276A28341
:1008F0002046FFF7FBFB08B100F03CF900F00DF9D2
:10090000984F082000217866F965002040F2031115
:100910003866796500F0C0F800F0FAF89248F8609F
:1009200047213961002078614FF6FF71F861386224
:100930007862B96107F10C0000F084FA08B100F0A8
:1009400019F94FF48050029002A907F10C0000F051
:10095000B9FB08B100F00EF900210091019107F1F7
:100960000C00694600F08CFC08B100F003F900F0BF
:1009700093F800F0CDF84FF08040A06241F61F419F
:10098000E1620020206342F20F71A0632064616382
:1009900004F1280000F056FA08B100F0EBF84FF42B
:1009A00000510291002203920492059202A904F1DF
:1009B000280000F087FB08B100F0DCF8002100916E
:1009C000019104F12800694600F05AFC08B100F0DA
:1009D000D1F807F10C0000F042FA04F1280000F011
:1009E00064FA00F05EF8614C614D012200F05AF8A3
:1009F000F86800214162416A0A29FCD300F051F8ED
:100A0000FFF7C6FEF86600F042F828B9FFF7C0FE0F
:100A1000F96E0A318842F6D3F868416A3967FFF700
:100A2000B7FEF86600F033F828B1FFF7B1FEF96EB3
:100A300032318842F6D3F868406A396F7867401AD5
:100A400000F050FC22462B4600F05AFC00F02EFD30
:100A5000388137213970C0B22E217970642330215A
:100A6000B970F97090FBF3F202F1300103FB12024E
:100A70000A239C4690FBFCFC92FBF3F203FB1C0058
:100A80003971303230307A71B871FB71ADE74FF4A3
:100A90008071304600F050B91022002102A800F009
:100AA00070B800224FF40071304600F04BB900B529
:100AB0008FB02822002105A800F063F8142200F06E
:100AC00028F84FF480310022069107920D91012001
:100AD0000590099002224FF4E0110C920E9105A8A6
:100AE00000F000FD08B100F045F8022101910F204F
:100AF0004FF480610090002203910292049202213F
:100B0000684600F079FE08B100F034F80FB000BD7F
:100B100008220021684600F034B8002180B58AB070
:100B200001200591089048F6C001009100224CF682
:100B30002021029106900790049201920392694647
:100B40000348FFF74FFB08B100F014F80BB000BDED
:100B5000000000203401002018100240000801406D
:100B600000640040BC000020002C01409CC420B068
:100B70007268913F72B6FEE77047704770477047E2
:100B8000704710B5044610460A460146204600F05C
:100B9000F5FE204610BD00002DE9F8474FF0000E8D
:100BA00000246A4A6A4BDFF8AC814FF00F09824695
:100BB0000DE0D7683840D06007E0C2F808C04D6843
:100BC000AD02F6D5D0680743D7600EF1010E0F686D
:100BD00037FA0EF000F0AE80012000FA0EFC0CEAAD
:100BE00007076745F1D1486838B301281AD00228B1
:100BF0001DD003282ED0112816D012281AD0564DF9
:100C0000A8421CBF554DA84217D0554DA8421CBF45
:100C1000544DA84211D0544DA8421CBF534DA84278
:100C20000BD018E0CC6816E0CC68241D13E0CC682B
:100C3000083410E0CC680C340DE0886808B904244E
:100C400009E0012819BF0824CAF814C00824CAF80A
:100C500010C000E00024B7F5807F03D250464FEA71
:100C60008E0C05E0AEF108050AF104004FEA850C90
:100C7000056809FA0CF6B54304FA0CF646EA050CC9
:100C8000C0F800C04868C0009FD5D8F8000040F008
:100C90000100C8F80000D8F8005005F001050095E3
:100CA0004FEA8E0500984FEA9E0053F8206005F049
:100CB0000C0C09FA0CF526EA05052D4EB24508BFC5
:100CC00000260ED02B4EB24508BF012609D02A4E71
:100CD000B24508BF022604D0284EB2450CBF0326F9
:100CE000042606FA0CF646EA050C43F820C0F84341
:100CF0004D68ED0306D5D2F800C047EA0C0CC2F8E7
:100D000000C002E01568054015604D68D2F804C0C7
:100D1000AD034CBF47EA0C0C00EA0C0CC2F804C04F
:100D20004D68D2F808C0ED024CBF47EA0C0C00EA4F
:100D30000C0C42E7BDE8F1878068084018BF01202D
:100D4000C0B2704702B90904016170470004014054
:100D5000080001401810024000001110000012109D
:100D6000000021100000221000003110000032109D
:100D700000080140000C0140001001400014014037
:100D80000901020002D4284881547047274B02F021
:100D90000F021A4402F8041C7047254B19684FF6DD
:100DA000FF020002114000F4E060084321490843BB
:100DB0001860704770B51E4B1C68C4F302230124F1
:100DC000C3F10705052D2EBF0F2504FA05F56D1E8D
:100DD0001E1D072E34BF0023DB1E2940994004FA54
:100DE00003F3BDE870405B1E1A401143C8E70100E1
:100DF00007D4012200F01F010F4B8A40400943F83D
:100E000020207047401EB0F1807F01D30120704741
:100E10000A490B4A48600023F02010708B600720BD
:100E2000086000207047000000E400E018ED00E0DA
:100E30000CED00E00000FA0500E100E010E000E049
:100E400023ED00E038B5040001D1012032BD00F0EF
:100E50008AF818B900F083F8FFF74CFC6BE090F8C3
:100E60003D10012901D001207047022180F83D107A
:100E7000DFF8FC200168914218BFB1F1804F07D024
:100E8000DFF8F02091421CBFDFF8EC30994205D129
:100E9000896801F00701062905D001680A6808463B
:100EA00042F0010202600020704790F83D100129D5
:100EB00001D001207047022180F83D100168CA6806
:100EC00042F00102CA600168DFF8A420914218BF15
:100ED000B1F1804F07D0DFF89C2091421CBFDFF8B2
:100EE0009830994205D1896801F00701062905D09B
:100EF00001680A68084642F001020260002070475B
:100F00000168CA6852085200CA6041F211130168B0
:100F10000A6A1A4202BF096A40F24442114205D1EC
:100F200001680A6852080B4652001A60012180F8D5
:100F30003D100020704702206870211D206800F0DD
:100F40001EF90120A8720121A970E8702971687149
:100F5000A971E871297268726970002032BD0021A0
:100F600029702046704704F13C05687870470000FE
:100F7000002C0140000400400008004010B5044669
:100F8000206801698A0715D5C1688A0712D56FF0F4
:100F90000201016101222277806910F0030F2046CF
:100FA00002D000F01EFD03E000F01CFD00F087F809
:100FB00000202077206801694A0715D5C1684A07D3
:100FC00012D56FF00401016102222277806910F4CA
:100FD000407F204602D000F004FD03E000F002FD57
:100FE00000F06DF800202077206801690A0715D508
:100FF000C1680A0712D56FF0080101610422227747
:10100000C06910F0030F204602D000F0EAFC03E0B4
:1010100000F0E8FC00F053F8002020772068016918
:10102000CA0615D5C168CA0612D56FF01001016154
:1010300008222277C06910F4407F204602D000F0D9
:10104000D0FC03E000F0CEFC00F039F8002020775F
:1010500020680169CA0708D5C168CA0705D56FF0BD
:10106000010101612046FFF7B1FB206801690A0612
:1010700008D5C1680A0605D56FF0800101612046D8
:1010800000F0B1FC206801694A0608D5C1684A062B
:1010900005D56FF040010161204600F0A5FC2068F5
:1010A00001698A060AD5C1688A0607D56FF0200152
:1010B00001612046BDE8104000F097BC10BD2046FD
:1010C00000F094BC38B500F04EF801D1022032BDDA
:1010D0000120207002226270DFF800012A68936804
:1010E000034093600868020018BF10282DD0202804
:1010F00018BF302829D0402823D0502816D0602887
:1011000018D0702803D0B0F5005F07D021E000F0C0
:1011100025F82868816841F0770105E000F01EF8A5
:101120002868816841F48041816012E000F012F883
:1011300050210BE0CA684968286800F068F860210F
:1011400004E000F007F8402100E00146286800F0C4
:1011500070F80EE0CA684968286849E0CB684A68B8
:10116000896828686DE0054605F13C04207801286F
:1011700070470120607000212170002032BD70B5E1
:101180000368174E174C184DB04218BFB0F1804F8E
:1011900003D0A84218BFA04209D14A6823F07003C7
:1011A0001343B0421CBFB0F1804FA84201D0A0420F
:1011B00003D1CA6823F4407313434A6923F08003C0
:1011C00013430360B0428B68C3620A68826202D133
:1011D0000969064A11600123436170BD8800FFFF61
:1011E000002C01400008004000040040302C014069
:1011F00010B5036A046A64086400046223F00A03F9
:10120000846924F0F00444EA0214846123E010B5F8
:10121000036A23F0100303628369046A23F47043B2
:1012200043EA023324F0A004836144EA0114046217
:1012300010BD826822F07002114341F00701816005
:10124000704710B5846824F47F442143114341EA78
:101250000321816010BD1943016210BD80B50748AC
:10126000016841F0100101600320FFF796FD0F2097
:1012700000F0BEFBFFF7CAF9002002BD00200240CB
:1012800070B500F13C031A78012A01D1022070BD2B
:1012900001221A7002245C7005686E68AC680A68E6
:1012A00026F0700616436E6002680C48824218BF32
:1012B000B2F1804F05D00A4882421CBF064DAA42B7
:1012C00004D1486824F080040443946001215970DB
:1012D0000020187070BD000000080040002C014084
:1012E0000004004050B1B0FA80F18840C91CC1F53B
:1012F0008461090501EBD021400570470146704724
:1013000030B540F2FF7C1CEA11541DBF1CEA135596
:10131000644565453FE0641981EA030C6FF35F5350
:101320000CF0004C43F48013C90241F0004141EA43
:10133000505EC5021100A5FB020200284FF000001C
:10134000EEFB01204FF00001E3FB052118BF42F046
:101350000102401800214941E3FB0E01A4F580641D
:101360000D0302D292184041494154F1010470DD4D
:10137000450872F1004250F1000051EB0451A1F513
:10138000801102D441EA0C0130BD40F2FF7E4CEAEC
:101390000E51002030BD0CEA1355644518BF654559
:1013A00081EA030C0CF0004C41D050EA410E1CBF06
:1013B00052EA430E02E06146002030BD24422C4434
:1013C0001BD15FEA050EF6D0090302BF01460020DB
:1013D000AEF1140EB1FA81F5AEEB050401FA05FE8B
:1013E0000C35C5F1200100FA05F5C8404EEA000EA3
:1013F0006FF35F5343F480139CE733F00043B3FA79
:1014000083F504BFB2FA82FE75440B3D641BB5F14F
:10141000200E2FBF02FA0EF3AB40C5F1200E22FAC8
:101420000EFE38BF43EA0E03AA40641C7CE750EA74
:10143000410E14BF52EA430E6FF000014FF4001545
:1014400015EB430F8EBF194615EB410F9DE7B4D83E
:1014500030BDD4F10104B4F120050FDAC4F1200548
:10146000520828BF42F0010210FA05FE01FA05F504
:101470007244E2BFE0402843E1400FE0352C9ADCA3
:10148000C5F1200452EA400220FA05F218BF42F0EA
:10149000010231FA05F0A1400A43002172F1004235
:1014A00050F1000051EB0C0130BD0000C1F30A53B4
:1014B00040F21E42D31A0CDDCA0283F3070342EA4C
:1014C000505242F00042DA4002EBE17282EAE170EF
:1014D00070476FEAE17203F2E13008B182F0004038
:1014E000704700002DE9F843040016D02078DFF89B
:1014F0004C64C10713D5706800F00C00042807D0B5
:10150000706800F00C00082841D17068C1033ED516
:101510003068810303D56068002800F0648120787A
:10152000DFF82874810719D5706810F00C0F07D008
:10153000706800F00C00082861D17068C1035ED4A7
:101540003068810703D52069012840F04C8131685B
:10155000606921F0F80141EAC00131602178080793
:1015600040F18180A069DFF8E813002800F0A68030
:1015700001220A60FFF70CF90546706A810763D4FF
:10158000FFF706F9401B0228F7D903202EE1606817
:10159000B0F5803F04D1306840F48030306014E012
:1015A00008B930680AE0B0F5A02F306806D140F4E1
:1015B00080203060316841F4803105E020F48030D3
:1015C0003060316821F480213160606858B1FFF7E4
:1015D000DFF8054630688103A1D4FFF7D9F8401B36
:1015E0006528F7D3D1E7FFF7D3F8054630688103C4
:1015F00095D5FFF7CDF8401B6528F7D3C5E72069DF
:10160000A8B101213960FFF7C3F8054630688107AA
:1016100005D4FFF7BDF8401B0228F7D9B5E73068BD
:10162000616920F0F80040EAC100306096E7386058
:10163000FFF7AEF80546316888078FD5FFF7A8F8A1
:10164000401B0228F7D9A0E7DFF8F4020168C908B7
:101650004FF47A72B1FBF2F2009200BF0098411E83
:1016600000280091F9D1207841076ED5F069002556
:10167000C10009D4F06940F08050F0610125F069A3
:1016800000F0805000900098DFF8C882D8F8000081
:10169000C10520D4D8F8000040F48070C8F80000DC
:1016A000FFF776F88146D8F80000C10513D4FFF79C
:1016B0006FF8A0EB09006528F5D366E70860FFF72F
:1016C00067F80546706A8107CDD5FFF761F8401BC2
:1016D0000228F7D959E7E068012808D008B9306A2C
:1016E00009E00528306A06D140F004003062306A13
:1016F00040F0010005E0400840003062306A20F010
:101700000400306241F28938E06860B1FFF740F8C8
:101710008146306A810713D4FFF73AF8A0EB09003D
:101720004045F6D331E7FFF733F88146306A810749
:1017300006D5FFF72DF8A0EB09004045F6D324E7C6
:101740001DB1F06920F08050F061E06900284CD0B4
:10175000716801F00C01082938D002282AD100F064
:1017600047F805463068810105D5FFF711F8401BA1
:101770000228F7D909E7206AB0F5803F05D17168E2
:10178000A06821F40031014371607268206A616AC7
:1017900022F4741202430A437260012000F029F817
:1017A00004463068810120D4FEF7F2FF001B0228B6
:1017B000F7D9EAE600F01CF804463068810114D538
:1017C000FEF7E6FF001B0228F7D9DEE601280AD063
:1017D0007068226A00F48031914202BF00F47010F8
:1017E000616A884201D0012000E00020BDE8F28358
:1017F00000203866FEF7CCBF2DE9F0410400884692
:101800004ED0554E00F077F802D200F06FF847D175
:1018100020684A4D810712D5400703D5696841F415
:10182000E06169602078010703D5686840F4605082
:1018300068606968A06821F0F0010143696021785F
:10184000C80725D56068012802D129688A0303E00A
:101850000228296802D18A0102D421E08A071FD513
:101860006968890840EA81006860FEF791FF0746D1
:101870006868616800F00C00B0EB810F08D0FEF7DB
:1018800087FFC01B41F289318842F1D303202BE04E
:10189000306800F00700804504D200F027F801D03E
:1018A000012021E02078410705D56A68E06822F42C
:1018B000E06202436A602178080706D569682069FA
:1018C00021F4605141EAC001696000F019F86A68CA
:1018D00022491B4BC2F30312895CC84018601A48A6
:1018E000006800F085F80020BDE8F0813168C90883
:1018F00048EAC1013160306800F007004045704798
:10190000174910480A6802F00C03082B00D07047F2
:1019100010B500BF14A4C2F38343D203E35C08D51F
:101920000968584314A3C1F340415A5CB0FBF2F07C
:1019300010BD18460B49484310BD0000001002407E
:10194000B800002000127A00B400002000004242DB
:101950008004424200700040002002405C1B0008EE
:101960000410024000093D000203040506070809AF
:101970000A0B0C0D0E0F10100102000062F30F2273
:1019800062F31F42401810F0030308D0C91A1FD396
:10199000DB0748BF00F8012D28BF20F8022D1300F7
:1019A00030B414461546103928BF20E93C00FAD857
:1019B000490728BF20E90C0048BF40F8042D8900E2
:1019C00028BF20F8022D48BF00F8012D30BC704719
:1019D000C91818BF00F8012DCB0728BF00F8012D4A
:1019E00070477047704770477047704770470000F6
:1019F00038B50D4D0D4B2A7804464FF47A711868AE
:101A0000B1FBF2F2B0FBF2F0FFF7FCF950B9102C89
:101A100008D2002221464FF0FF30FFF7CBF9AC602F
:101A2000002032BD012032BDAC000020B8000020F3
:101A300030B4002512E050F8042BD30744BF4A44C9
:101A4000521E091F042942F8045BFAD213468C0780
:101A500044BF15809B1CC90748BF1D7050F8041B6C
:101A60000029E8D130BC7047FEE7FEE7FEE7FEE75D
:101A7000FEE770477047704700F010B801E00000C3
:101A800000BF0448FEF7A8BCFBE7FAE70248FFF7EF
:101A900075BA0000000000202800002002494A68B2
:101AA000087882184A607047AC00002010B50749DA
:101AB00079441831064C7C44163404E00A68081D49
:101AC000114488470146A142F8D110BD080000002A
:101AD000240000005DFFFFFF7C000000BC00002030
:101AE00000000000EFEAFFFF2C010000560000009C
:101AF0000000002000F00DF8002801D0FFF7D6FF0D
:101B0000AFF300800020AFF30080FEF7A3FE00F0EB
:101B100002F80120704700F001B80000074638467F
:101B200000F002F8FBE7000080B5AFF30080024A46
:101B300011001820ABBEFBE7260002000548014655
:101B400003B4684680F30988AFF30080AFF30080E8
:101B5000FFF7D0FFA5EDF5FE704700000000000084
:101B6000000000000102030406070809014880473D
:101B700001480047591B00083D1B0008FFF7FEBF46
:101B8000FFF7FEBFFFF7FEBFFFF7FEBFFFF7FEBF89
:101B9000FFF7FEBFFFF7FEBFFFF7FEBFFFF7FEBF79
:101BA000FFF7FEBFFFF7FEBFFFF7FEBFFFF7FEBF69
:101BB000FFF7FEBFFFF7FEBFFFF7FEBFFFF7FEBF59
:101BC000FFF7FEBFFFF7FEBFFFF7FEBFFFF7FEBF49
:101BD000FFF7FEBFFFF7FEBFFFF7FEBFFFF7FEBF39
:101BE000FFF7FEBFFFF7FEBFFFF7FEBFFFF7FEBF29
:101BF000FFF7FEBFFFF7FEBFFFF7FEBFFFF7FEBF19
:101C0000FFF7FEBFFFF7FEBFFFF7FEBFFFF7FEBF08
:101C1000FFF7FEBF8100F300175F44656661756CD6
:101C2000745F5061726B696E674461746162617365
:0F1C300065F8000001F9000010FC000224F40028
:0400000508001B3D97
:00000001FF
