:020000040800F2
:10000000C80500201D450008F9430008FB4300080F
:10001000FD430008FF430008014400080000000001
:100020000000000000000000000000000344000881
:1000300005440008000000000744000809440008C7
:100040005145000855450008594500085D45000820
:100050006145000865450008694500086D450008D0
:100060007145000875450008794500087D45000880
:100070008145000885450008894500088D45000830
:100080009145000895450008994500089D450008E0
:100090000D440008A1450008A5450008A945000831
:1000A000AD450008B1450008B5450008B945000850
:1000B000BD450008C1450008C5450008C945000800
:1000C000CD450008D1450008D5450008D9450008B0
:1000D000DD450008E1450008E5450008E945000860
:1000E000ED450008F1450008F5450008F945000810
:1000F000FD450008014600080546000809460008BD
:100100000D4600081146000815460008194600086B
:100110001D46000821460008254600081344000833
:10012000294600082D4600083146000835460008DB
:10013000394600083D46000841460008454600088B
:10014000494600084D46000851460008554600083B
:10015000594600085D4600086146000865460008EB
:10016000694600086D46000871460008754600089B
:10017000794600087D46000881460008000000001E
:10018000854600088946000838B5040021D094F857
:100190003D0020B984F83C00204600F05BFC00F0F4
:1001A000A1F82068006840F40040216808602068D9
:1001B000006820F400402168086000F05AFD014604
:1001C000DFF838236068904205D2DFF8640381428B
:1001D00005D2012032BDDFF85C038142F9D3DFF89C
:1001E0006C03B1FBF0F320684068800943EA80109B
:1001F000256868602068056A6068904206D34FF4FD
:10020000967043434FF47A70B3FBF0F35B1CAD0977
:1002100043EA8513206803622068C36960689042DE
:1002200011D2481E62685200B0FBF2F0401CC0F3CD
:100230000B00042838BF04211ED3491E606840000B
:1002400000F04AF818E0A06830B9491E606800EB79
:10025000400000F041F80AE0491E6268192042435C
:10026000B1FBF2F1491CC1F30B0141F480410805D7
:100270000CBF012141F40041DFF8D40203400B43DD
:100280002068C3612068016821F0C001E069014372
:10029000206A01432068016020688168DFF8B402A9
:1002A000014020690143E0680143206881602068C3
:1002B000C168090AA06940EA012160690143206818
:1002C000C16000F019F80020206400F0A6F90020B9
:1002D000206384F83E0032BDB1FBF0F1491CC1F34C
:1002E0000B017047242084F83D0020680068400816
:1002F00040002168086070472068006840F00100F5
:1003000021680860704730680069716A0870706A17
:10031000401C7062308D401E3085708D401E70858F
:10032000704730680069716A0870706A401C7062BA
:10033000308D401E3085708D401E7085306840695C
:100340004007704720F480603168086030680068BA
:1003500040F4006070470090306840690090306859
:100360008069009000983068006840F4007031683F
:10037000086070472DE9FE4300F0F0F800F04BF8FC
:100380003FD100F041F800283BD196F83C0001280D
:1003900037D000F00FF9D6F800E0CEF80070212732
:1003A00000F0B3F800F058F9002823D105E0706A96
:1003B000007831680861FFF7AAFF308D78B12246D6
:1003C0002946304600F06CFA78B9706A00783168D6
:1003D0000861FFF7AAFFF0D5308D0028E7D122464B
:1003E0002946304600F078FA30B1306C042801D14B
:1003F000FFF7B9FF012005E0FFF7B5FF00F010F8A7
:1004000000E00220BDE8FE83009419230122524936
:10041000304600F0D1B9044696F83D0020287047D8
:10042000202086F83D00002086F83E0086F83C003B
:1004300070472DE9FE4300F091F8FFF7ECFF54D12F
:10044000FFF7E2FF002850D196F83C0001284CD07D
:1004500000F0B0F8D6F800E0CEF80070222700F0E7
:1004600054F800F04FF9002836D1308D18B101282A
:1004700004D100F083F8FFF76EFF10E0022805D1E9
:1004800030680068FFF75EFF3168086000F06CF8C4
:1004900005E000F035F800281ED1FFF734FF308D5D
:1004A00000281FD0042814D20128F2D0022808D135
:1004B00000F01EF800F046F800280DD100F066F8B4
:1004C000EBE700F039F8002806D100F08CF818B9F5
:1004D000F4E700F015F808B1012007E0FFF721FF6D
:1004E000DDD5DAE7FFF79CFF00E00220BDE8FE83E0
:1004F00000942B460022DFF830117047A1860100DE
:1005000022462946304600F019BA86F83D70402749
:1005100086F83E7000273764C6F824C07085708D59
:100520003085DFF80001F062019400953046704795
:1005300080841E0000093D00DFF8EC7000942B461B
:1005400000223946304600F037B9000040420F0023
:100550000030FFFF007CFFFF0200100006460F4640
:100560009046994600F0A2BB002000903068406998
:10057000009030688069009000987047306800688B
:1005800020F480603168086000207047306800689F
:1005900040F400703168086030680069716A087062
:1005A000706A401C7062308D401E3085708D401E18
:1005B00070857047012086F83C0030680068C007ED
:1005C00005D43068006840F00100316808600C9D77
:1005D0000B98DDF828C04B464246394637683F68DD
:1005E00027F4006770473068006820F48060316845
:1005F000086030680069716A0870706A401C706237
:10060000308D401E3085708D401E708500942B46C5
:1006100000223946304600F0CFB8202084F83D0053
:10062000704700000000FFFF0400010000902068F8
:1006300040690090206880690090009870472068A9
:10064000006840F4807021680860009653460022DC
:100650004FF001112046AFE02DE9F84304468946EA
:1006600015461E46DDF82080099F00F038F8434605
:10067000FFF7EDFF38B100F02EF844BF4FF40070E3
:100680002064032025E009F0FE092068C0F81090DE
:100690003B46424600F08CF8A8B9FFF7C7FF3A4640
:1006A000414600F02DF848B9012E0ED0280A2168E5
:1006B00008613A46414600F023F830B1206C042826
:1006C00001D100F014F8012003E0EDB220680561CB
:1006D0000020BDE8F28320680068C00570472068EC
:1006E000006840F4807021680860009770472068B7
:1006F000006840F400702168086070473246514637
:100700002046CDE02DE9FC4704460F4615469846A5
:10071000DDF828A00B9E00F044F8FFF790FF0028BA
:1007200029D107F0FE0021680861DFF80C923346FA
:100730005246494600F03EF800282FD1FFF776FFD9
:10074000FFF7DCFF70B9B8F1010F05D0280A216866
:100750000861FFF7D3FF28B9EDB220680561FFF704
:10076000CDFF28B1206C042818D1FFF7C0FF15E099
:10077000FFF765FF38B1FFF7AEFF44BF4FF40070DD
:10078000206403200BE047F00107FFB220680761F7
:1007900033465246494600F00DF800B10120BDE84D
:1007A000F6872068006840F4806021680860704720
:1007B000DFF88411204625E02DE9F04105460E467C
:1007C00090461C46069F3002000E012828680CBF88
:1007D0004069806900F046F80CBF012000204045C8
:1007E0000DD114F1010FEED000F060FAC01B84426D
:1007F00001D3002CE7D100F08BF8012000E00020AD
:10080000BDE8F081F8B505460E4614461F46300295
:10081000000E0128286810D1406900F023F810D09C
:100820002868406940050ED500F033F86FF4806009
:1008300000F0A3F840F0040011E0806900F012F825
:10084000EED10020F2BD14F1010FE0D000F02EFA3D
:10085000C01B844201D3002CD9D100F00EF800F067
:1008600006F8F2BD304080B2B1B2884270472864C9
:10087000002085F83C0001207047002028632020DC
:1008800085F83D00002085F83E00286C40F02000EF
:1008900070472868006840F4007029680860704755
:1008A00070B500F045F828684069000612D4284663
:1008B00000F06FF808B1012070BD14F1010FF2D003
:1008C00000F0F4F9801B844201D3002CEBD100F03E
:1008D0001FF8F0E7002070BD70B500F029F8286817
:1008E0004069400712D4284600F053F808B10120AF
:1008F00070BD14F1010FF2D000F0D8F9801B8442D2
:1009000001D3002CEBD100F003F8F0E7002070BD1C
:1009100000202863202085F83D00002085F83E0057
:10092000286C40F020002864002085F83C007047C7
:1009300005460C46164670470200010070B5FFF7E9
:10094000F7FF28684069400615D428684069C0064A
:1009500007D400F0ABF9801B844209D3002CF0D1FE
:1009600006E06FF0100000F008F8FFF780FF70BDA0
:10097000FFF783FFF9E7002070BD29684861002078
:100980002863202085F83D00002085F83E00286C73
:100990007047016849694A0512D56FF4806203689F
:1009A0005A6100220263202280F83D20002280F854
:1009B0003E20026C42F004020264002280F83C20D7
:1009C00011F4806018BF0120C0B2704782B00020CF
:1009D00000905548016841F480410160006800F4CE
:1009E000804000900098002000905048016841F03D
:1009F00080510160006800F080500090009807204E
:100A000002B000F0B8B910B586B000F04CF820681C
:100A1000474988421CD100F04CF841F00071016058
:100A2000006800F000700090009800F047F84FF464
:100A300040700190022000F02BF8092000F02EF801
:100A400000220021142000F097F9142000F0A3F9EF
:100A500006B010BD10B586B000F025F82068364904
:100A6000884213D100F02AF8C0200190122000F033
:100A70000FF8042000F012F800F01BF841F4001108
:100A80000160006800F400100090009806B010BDEE
:100A9000029000200390032004907047059001A964
:100AA000244800F08BB904461422002101A800F06C
:100AB00075BA002000901D48016870470020009022
:100AC0001E48016841F002010160006800F0020068
:100AD00000900098704780B50168194A91420AD188
:100AE000FFF7E7FF41F010010160006800F010001F
:100AF0000090009801BD08461249884213D1FFF7C3
:100B0000D8FF41F020010160006800F02000009053
:100B1000009800220021372000F02EF93720BDE890
:100B2000024000F038B901BD44380240403802406C
:100B3000006400400004024000540040303802408D
:100B400000100040001400402DE9F04104000E4662
:100B50005AD04F4D00F082F802D200F07EF853D107
:100B60002078800716D52078400704D500F07BF860
:100B700041F4E05101602078000704D500F073F8DB
:100B800041F46041016043490A6822F0F002A06824
:100B900002430A602078C0072ED56068012803D17F
:100BA0003D480068800306E0022818BF032804D1EE
:100BB00039480068800104D426E03748006880077F
:100BC00022D5344F39688908606840EA810139606C
:100BD00000F06CF88046386800F00C006168B0EBFB
:100BE000810F09D000F062F8A0EB080041F28931D2
:100BF0008842F0D303202EE0286800F007008642E8
:100C000004D200F02AF801D0012024E02078400727
:100C100006D520490A6822F4E052E06802430A60DF
:100C20002078000707D500F01EF821F46041226902
:100C300041EAC201016000F0BBF91849154A126887
:100C4000C2F30312895CC840154908601548006862
:100C500000F0DEF90020BDE8F0812E70286800F079
:100C60000700B04270470B48016870470C480068A5
:100C7000704780B5FFF7FAFF00F006F8C2F3822252
:100C8000FFE7895CC84002BD0749024A1268704705
:100C9000003C024008380240003802400C45000881
:100CA00004000020000000204845000801480068BA
:100CB000704700BFB4010020384A13684FF6FF01A7
:100CC0000B40000200F4E06018433549084310600F
:100CD000704732480068C0F302207047010007D413
:100CE000012200F01F018A402E49400941F82020CE
:100CF0007047020003D409012B4A115470470901BF
:100D00002A4A00F00F00104400F8041C704710B588
:100D100000F00700C0F10703052B2FBF0F230124AC
:100D200004FA03F35B1E041D072C34BF0020C01E11
:100D300019408140012303FA00F0401E104008438F
:100D400010BD10B50446601EB0F1807F0CD218496A
:100D500008600F214FF0FF30FFF7CBFF002015494F
:100D60000860072014490860641EB4F1807F804148
:100D7000C043C00F10BD9FE770B504460D46164630
:100D8000FFF7A7FF32462946FFF7C1FF014620467D
:100D9000BDE87040ADE7A1E7D3E700000CED00E04F
:100DA0000000FA0500E100E000E400E018ED00E0DA
:100DB00014E000E018E000E010E000E0F8B50023E7
:100DC000012404FA03F50A682A40AA4240F0B780D9
:100DD0000D7905F00305012D1EBF0D7905F0030502
:100DE000022D12D1856803265F00BE40B543CE6850
:100DF000BE403543856045689C4025EA04044D6843
:100E0000C5F300159D402C4344600C7904F00304A5
:100E1000032C21D0C46803255E00B540AC438D6827
:100E2000B5402C43C4600C7904F00304022C13D1A8
:100E3000DC0800EB8404246ADD0800EB85050F263E
:100E40009F0007F01C07BE40B4430E699F0007F0E7
:100E50001C07BE4034432C62046803255E00B54085
:100E6000AC430D7905F00305B5402C4304604C6894
:100E700014F4403F63D0002400943A4C256845F4B4
:100E800080452560246804F480440094009C364C1E
:100E90009D0854F825600F279D0005F00C0507FA02
:100EA00005F526EA0505314EB04208BF002622D0DE
:100EB0002F4EB04208BF01261DD02E4EB04208BFB3
:100EC000022618D02C4EB04208BF032613D02B4E5A
:100ED000B04208BF04260ED0294EB04208BF0526F6
:100EE00009D0284EB04208BF062604D0264EB04294
:100EF0000CBF072608269F0007F00C07BE403543AD
:100F00009E0844F82650214D00F01EF8F60248BF16
:100F100014432C601E4D00F017F8B60248BF14436E
:100F20002C601C4D00F010F8B60348BF14432C6031
:100F3000194D00F009F8F60348BF14432C605B1C00
:100F4000102BFFF43DAFF1BD2C6894434E68704701
:100F50000069084018BF0120C0B2704702B90904F7
:100F60008161704744380240083801400000024067
:100F70000004024000080240000C02400010024041
:100F80000014024000180240001C0240083C0140CE
:100F90000C3C0140043C0140003C014010B50446BB
:100FA00010460A460146204600F056F8204610BD7D
:100FB00010B51348006800F00C00042802D008287F
:100FC00002D01BE00F4810BD0F4C226802F03F0218
:100FD000206840022068C0F3881001D5094900E06C
:100FE0000A49A1FB0001002300F0A0F82168C1F329
:100FF0000141491C4900B0FBF1F010BD034810BD90
:101000000838024000127A00043802400024F4003C
:1010100010B504464FF47A700C490978B0FBF1F032
:101020000B490968B1FBF0F0FFF7B6FE58B9102C78
:1010300009D2002221464FF0FF30FFF79DFE054800
:101040000460002010BD012010BD00BF080000207A
:10105000040000200000002062F30F2262F31F4210
:10106000401810F0030308D0C91A1FD3DB0748BF8C
:1010700000F8012D28BF20F8022D130030B41446CB
:101080001546103928BF20E93C00FAD8490728BF87
:1010900020E90C0048BF40F8042D890028BF20F843
:1010A000022D48BF00F8012D30BC7047C91818BF89
:1010B00000F8012DCB0728BF00F8012D70470EE086
:1010C00002684368024408305FEAC37C44BF4B4473
:1010D0005B1E52F804CB43F804CB091FF9D150F83A
:1010E000041B0029ECD1704713F0004C03D55B4280
:1010F000524263F100039CEA210C00F0178010B506
:10110000644603D34942404261F1000100F00EF809
:10111000640004D34942404261F10001244203D5F6
:101120005B42524263F1000310BD0000D3BBD9B152
:10113000B2F5803F5BD2022A1ED98C46B1FBF2F198
:1011400002FB11C31B0443EA1043B3FBF2FC02FB96
:101150001C3380B240EA0343B3FBF2F002FB1032CF
:1011600040EA0C4000237047022A05D98446B0FBB0
:10117000F2F002FB10C270474AB105D100F0010243
:1011800049085FEA3000704700220023704700F0F2
:1011900051B80B000200002100207047F7D3002255
:1011A00000237047904271EB030CF2D370B5B1FA93
:1011B00081F4B3FA83F52C1BA340C4F1200532FA65
:1011C00005F63343A2405FF00046E64002E05B08CC
:1011D0005FEA3202841A71EB030524BF20462946D8
:1011E0007641F4D302000B003000002170BD70B5D1
:1011F000B1FA81F4B2FA82F5C4F120046419B4F1B1
:101200002006DAD3B2405FF00044F440002502E04B
:1012100052085FEA3303C61A71EB020E24BF304650
:10122000714664416D41F3D302000B002000290098
:1012300070BD00007047000038B5040022D094F85B
:10124000200010B92046FFF7DEFB00F016F9054636
:1012500020684068C00705D4FFF728FD401B0B2815
:10126000F6D30DE000F002F9FFF720FD05462068F7
:101270004068800708D5FFF719FD401B0B28F6D3FF
:1012800000F0ECF8012032BD207E00F04CF80CBFDD
:1012900040F0800020F0800021680860607E00F04F
:1012A00042F80CBF40F0400020F040002168086088
:1012B000A07E00F038F80CBF40F0200020F02000A5
:1012C00021680860E07E00F02EF80CBF20F01000CE
:1012D00040F0100021680860207F00F024F80CBF67
:1012E00040F0080020F0080021680860607F00F0EE
:1012F0001AF80CBF40F0040020F0040021680860D8
:10130000A168E068014320690143606901436068A6
:10131000401E01432068C16100206062012084F802
:101320002000002032BD0128206800687047F0B519
:1013300090F82020012A18BF022A52D1534A10687F
:1013400040F001001060106820F47C5010601068BC
:101350004B6A40EA0320106001200B7D03F01F035D
:1013600000FA03F34A4C206898432060C86960B9CA
:10137000484805689D4300F03AF8CE6800F03DF813
:101380000E68C6EA0545C0F84452C86901280CD168
:10139000404805681D4300F02AF80E6800F02DF85B
:1013A000CE68C6EA0545C0F84452886900283A4824
:1013B00005680CBF9D431D43056008690028374838
:1013C00005680CBF9D431D430560086A012802D1D2
:1013D000206803432360106840084000106000202C
:1013E000F0BD416A41F4802141620120F0BD0560F9
:1013F0002B484D6900EBC50570474F68C7EA0646A4
:10140000C5F840624D6900EBC5008D68704738B57E
:10141000044694F8200001281AD1022084F8200004
:10142000206800684008400021680860FFF73EFC23
:10143000054620684068C00707D5FFF737FC401B0A
:101440000B28F6D300F00AF806E00020606232BDF7
:10145000606A40F400206062012032BD606A40F49E
:1014600000306062052084F8200070472068006822
:1014700020F002002168086070472068006840F092
:10148000010021680860FFF711BC00000066004001
:101490001C6600400C660040046600401466004074
:1014A0000064004030B590F820400568AD68012C1C
:1014B00018BF022C5ED115F0E05F57D0C5F3016470
:1014C000032C03D3416A41F4000156E00125A540F5
:1014D0001D608B6823B90B68CD6845EA435505E06C
:1014E0004B688D6845EAC305CB681D43036803EB71
:1014F0000413C3F880510B69056805EB0415C5F8A2
:101500008431097D01290AD100F03BF8D1F884111A
:1015100041F48071036803EB0413C3F88411D1799B
:1015200093791B0443EA0163517943EA012311795A
:1015300000F026F8C1F88C31D17893781B0443EA87
:101540000163517843EA0123117800F019F8C1F8DA
:10155000883100F016F8D1F8801141F001010068DF
:1015600000EB0410C0F88011002030BD416A41F446
:10157000001102E0416A41F480214162012030BD46
:101580000B43016801EB04117047416A41F480216B
:1015900041620120704710B590F82040012C18BF1F
:1015A000022C59D10029046801D1E46800E02469C3
:1015B00014F0030F03D1416A41F400114FE000F031
:1015C00057F814F00404946000F052F807BF640D5B
:1015D0001460E408546000F04BF804F00204D46096
:1015E00000F040F804F00F04146100F03BF8C4F37D
:1015F0000724946100F036F8240C546100F044F89C
:101600001A7000F041F8120A5A7000F03DF8120CFE
:101610009A7000F039F8120EDA7000F02FF81A7193
:1016200000F02CF8120A5A7100F028F8120C9A7186
:1016300000F024F8120EDA710029016805D1C9689A
:1016400041F020010068C16004E0096941F0200117
:1016500000680161002010BD416A41F480214162AF
:10166000012010BD046804EB0114D4F8B4417047A4
:10167000046804EB0114D4F8B0417047026802EB2F
:101680000112D2F8BC217047026802EB0112D2F8B5
:10169000B821704790F82020012A18BF022A03D1F0
:1016A00002685269114300E06FE700684161002061
:1016B00070472DE9F84F05464FF000082868466945
:1016C000D0F804B08468D0F80C90D0F810A08769E6
:1016D000F00746D5E00714D5012029688860A007E7
:1016E00003D5284600F0E4F80BE0600748BF4FF44C
:1016F000006806D420074EBF4FF48058284600F0FB
:10170000D8F8E00515D54FF4807029688860A005E9
:1017100003D5284600F0CEF80BE0600548BF48F43A
:10172000005806D420054EBF48F48048284600F0F3
:10173000C2F8E00315D54FF4803029688860A00313
:1017400003D5284600F0B8F80BE0600348BF48F422
:10175000004806D420034EBF48F48038284600F0E5
:10176000ACF8300748BF5FEAC96004D548F4007898
:1017700010202968C860700748BF5FEA097005D566
:1017800008202968C860284600F098F8B00707D5F7
:101790002868C06810F0030F1CBF284600F0B1F89D
:1017A000700648BF5FEACA6004D548F4806810201C
:1017B00029680861B00648BF5FEA0A7005D50820AD
:1017C00029680861284600F002FBF00607D5286862
:1017D000006910F0030F1CBF284600F0F9FAB003AF
:1017E00048BF5FEACB6005D51020296848602846CD
:1017F00000F0EFFAF00348BF5FEA0B7005D5082050
:1018000029684860284600F0E5FA300441D55FEACF
:101810004B703BD5F00503D5F80748BF48F00108E9
:10182000B00503D5B80748BF48F00208700503D5D6
:10183000780748BF48F00408300527D517F0700F27
:1018400024D007F07007102F0CD0202F0DD0302F90
:101850000ED0402F0FD0502F10D0602F08BF48F46B
:1018600080780DE048F008080AE048F0100807E02A
:1018700048F0200804E048F0400801E048F0800803
:101880002868806920F07000296888610420296830
:101890004860B8F1000F09D0686A48EA0008C5F846
:1018A00024802846BDE8F24F00F095BABDE8F18FDC
:1018B0007047704770477047704770477047000027
:1018C0000068DFF874140968884200D0704770B56A
:1018D000DFF86844DFF86854DFF868643346DFF8FF
:1018E000682429462046FFF7DDFD3346DFF85C24F7
:1018F00029462046FFF7D6FD0120DFF85414087072
:1019000070BD0168DFF834241268914200D070473E
:1019100080B5DFF84034DFF840240021FFF73BFEBC
:1019200000B16BE101BD00002DE9F84F2DED028BF8
:1019300082B000F051FA00F0FEF800F0CFF900F0AC
:1019400046F900F05EF90820DFF8F4130861002082
:101950008860C86040F25160086000F06FF9DFF8FD
:10196000FC0300F053FA7620DFF8F4138884DFF8E4
:10197000F4038862582081F832000C4606E004F136
:101980002C0000F043FA5A2000F0ECFC04F12C018A
:10199000204600F018FB0028F1D000F065F900F0B7
:1019A00077F9DFF89803FFF732FD08B100F00DFA80
:1019B0000221DFF88803FFF76DFE08B100F005FA99
:1019C000DFF8A40300F0EFFCDB4800F022FDDFF8B5
:1019D0009C93DFF86883DE4DDFF868A3DFF890633F
:1019E00054E0DFF8900396ED000ADFEDA60A80EEE2
:1019F000200A80ED000A9FEDA41BB0EE418AF0EEB4
:101A0000618A006800F092FE0022DB4B00F0B2FE1B
:101A100041EC100BB0EE481AF0EE681A00F0D1FF5E
:101A200053EC102B0020D54901F092F80022D44B42
:101A300001F000F901F0D4F900EE100AD14880ED70
:101A4000000AC24A322000F06FF800F065F800F09A
:101A500057F800F061F890FBF1F10BFB110B0A2035
:101A60009BFBF0F03030507100F056F80A2190FBEB
:101A7000F1F107FB1107303797710A20D0715346F7
:101A800000994046FFF70EFD0020287028780128B5
:101A9000FCD101F066FAAC4A312000F045F800F0C4
:101AA00035F800F02DF800F031F88B4690FBF1F19D
:101AB0000BFB11000A2190FBF1F03030507100F067
:101AC00025F80A2790FBF1F107FB110030309071E7
:101AD000D771AD4880ED000A994800905346014601
:101AE0004046FFF7DFFCA94B32464946204600F04E
:101AF0000FFC00287FF475AF30609FED8E0A9DE7E4
:101B0000642190FBF1F0303010717047FDEEC00A97
:101B100010EE900AC0B2704799ED000ABDEEC00AFF
:101B200010EE100AC0B2704710702E205070302096
:101B30009070D070704780B592B03022002106A816
:101B4000FFF72CFA00F03CF9002000909048016863
:101B500041F080510160006800F0805000900098D2
:101B6000002000908B48016841F4804101600068CA
:101B700000F4804000900098012006904FF48030DF
:101B8000079002200C904FF480000D9004200E90DE
:101B900048200F90022010900720119006A801F015
:101BA00019FA08B100F011F90F20019002200290FB
:101BB000002003904FF4805004900590022101A86A
:101BC000FEF7C2FF08B100F000F913B000BD80B508
:101BD0005A48714901600221416000218160C16061
:101BE0004FF4602101614FF4801141610021816156
:101BF0008183FFF721FB00B100E001BDBDE801409A
:101C0000E3E080B58AB001200890002005900490A0
:101C100048F6C0000090002001904CF62020029071
:101C20000020039001200690079069464348FFF783
:101C30007EFB08B100F0C9F80BB000BD80B5494883
:101C4000564901605649416000218160C1604FF4EE
:101C500080410161002141618161C1610162FEF742
:101C600093FA00B1CAE701BD1CB500F032F83E4C52
:101C70004C482060472060600020A0604FF6FE7056
:101C800013E000000000C8426C45D9CC955BC83F0A
:101C90001CB500F01EF8284C4348206041F61F4058
:101CA00060600020A06042F20F70E0600020A06140
:101CB000204600F06BFB08B100F087F80020009090
:101CC00001906946204601F036FB08B100F07DF82E
:101CD00013BD082200216846FFF760B980B586B0C1
:101CE00000F06EF8002000903048016841F080015B
:101CF0000160016801F0800100F05CF841F0010131
:101D00000160016801F0010100F054F841F00201A6
:101D10000160006800F0020000900098012001902E
:101D200000200290039001A92148FFF747F807B06F
:101D300000BD000000000000A800002024010020D9
:101D400068010020B00100208001002088010020EF
:101D5000BC010020900100204C0100201C0100204B
:101D6000F00000200C00002060000020A8010020EE
:101D7000A0010020A401002000AA8F400000F03F35
:101D800040A5E5409C01002098010020AC01002006
:101D900040380240007000400064004000540040A1
:101DA000A0860100001000400014004030380240BE
:101DB00000000240009100990021009101687047E5
:101DC0001422002101A8FFF7E9B872B6FEE77047B8
:101DD000704770477047704780B50B48016841F401
:101DE00000710160016841F480610160016841F4A3
:101DF000807101600320FEF7BEFF0020FFF708F9A5
:101E0000FEF7E4FD002002BD003C0240032101700A
:101E10000021417003218170C170017141717047CF
:101E20001FB5144641F2883202920222019203AA9F
:101E300000F01DF8FEF7FDFA010006D19DF80D0037
:101E40009DF80C2042EA00222280481E8041C00FEB
:101E500004B010BD1FB541F288340294019300F024
:101E600006F8FEF7E6FA00B1012004B010BD0092BA
:101E700001230A46818C4904090C806A704710B519
:101E8000044622468821FFF7CBFF002843D0A21C3E
:101E90008A2100F081F800283DD0221D8C2100F01D
:101EA0007BF8002837D0A21D8E2100F075F800289D
:101EB00031D004F10802902100F06EF858B304F11B
:101EC0000A02922100F068F828B304F10C02942170
:101ED00000F062F8F8B104F10E02962100F05CF80F
:101EE000C8B104F11002982100F056F898B104F13D
:101EF00012029A2100F050F868B104F114029C21FA
:101F000000F04AF838B104F116029E2100F044F8BE
:101F100008B1012010BD002010BD1CB504460123EE
:101F200004F11802A121FFF795FF98BB04F11A02F2
:101F3000E12100F031F868B3012304F11C02E32130
:101F40002046FFF787FF28BB6A46E4212046FFF7BB
:101F500067FFF8B10DF10202E5212046FFF760FFAF
:101F6000C0B1012304F12202E7212046FFF772FFEE
:101F700080B9BDF90010090101F47F61BDF80000CE
:101F8000C0F303200143E183BDF80200000920846F
:101F9000012016BD002016BD204641E706B583B0DE
:101FA0000A4642F2107102910121019104A90091A7
:101FB0000123818C4904090C806AFEF7DBF900B12A
:101FC000012005B000BD7CB505460C46A88C7628DE
:101FD00018BF77284BD1012305F13202D0212846C2
:101FE000FFF738FF002842D195F83200582818BF73
:101FF00060283CD1B622E02100F043F8002836D119
:1020000001236A46F3212846FFF724FF0028F7D171
:102010009DF80000C007F3D42846FFF730FF78B3DF
:1020200095F83200602803D12846FFF776FF38B3D1
:1020300060796278920042EA4012D2B2F52100F053
:1020400020F8A0B92078012804BF00202070E07893
:10205000A678B60046EA40162078064395F8320086
:10206000602806D12279F22100F00BF808B1002097
:1020700076BDF2B2F42100F004F8401E8041C00F9A
:1020800076BD28468AE730B5CC100388A4EB43041C
:10209000B0F902305C430388C3EB21130588C5EB1C
:1020A00021156B431B13B0F9040043439B1303EB4F
:1020B000E4231360106800EB80008030001230BD14
:1020C0002DE9F04F80468946D317B2F5FA3063F117
:1020D0000001A0FB006700FB017701FB0077B8F966
:1020E0001040E517A4FB062304FB073305FB06336A
:1020F000B8F90E6000F084F86D0445EAD43512EBAF
:1021000044426B41A0FB004500FB015501FB00551B
:10211000B8F90A60F717A6FB04AB06FB05BB07FB83
:1021200004BB4FEA1A2444EA0B6AB8F9086000F0CD
:1021300067F82D0345EA14551AEB043045EB2B21C3
:10214000001C41F50041B8F80640A4FB006704FB01
:1021500001777E10FF1704BF002E00204ED04846A6
:10216000C0F58010C117C90741EA5001C007821AA3
:1021700061EB0303B8F90C00C1000020121A8B4177
:1021800040F63544A4FB020104FB031132463B46F2
:10219000FEF7AAFF02460B46B8F91660F717400B88
:1021A00040EAC1404913A0FB064500FB075501FB6F
:1021B0000655500B40EAC340A0FB046700FB0577BF
:1021C00001FB0477760E46EAC716961943EB67675C
:1021D000B8F91400C117A2FB004502FB015503FB2F
:1021E0000055E40C44EA4534321947EBE543120A42
:1021F00042EA0362B8F9120002EB0010BDE8F08F6A
:10220000F717A6FB004506FB015507FB0055704775
:1022100010B5A2F596328903B0F91E30A1EB035137
:10222000B0F9203002FB131101F58041C91390F978
:1022300022405443A412037F5A43D21202F50042B3
:102240006243921202F50012B0F91A305A4302F5B5
:10225000005292135143CB13CA135343DB11007E38
:102260004343B1EB231103D500210913084610BDE8
:102270003B488142F9DB4FF4C831F7E72DE9FE43D3
:1022800080460E4691461C4698F8320060280CD0D5
:102290000CB1002020600024062301AAF72140464B
:1022A000FFF7D8FD28B1002030E0002CF4D008233F
:1022B000F3E701AD9DF804006F783F0147EA00376E
:1022C0009DF8060047EA10176A469DF8070029792D
:1022D000090141EA00319DF8090041EA1011404628
:1022E000FFF7D1FE3060009A39464046FFF7E8FE1E
:1022F000C9F800004CB1009AA8799DF80B1041EA8A
:1023000000214046FFF784FF20600120BDE8FE83E6
:102310007FB50D4616461C0014BF6B46002301AA6C
:1023200002A9FFF7ABFFB8B19DED020AB8EEC00AF3
:10233000DFED0A0A80EE200A85ED000A9DED010A14
:10234000BBEECC0A86ED000A2CB19DED000ABBEE77
:10235000CB0A84ED000A012004B070BD0000C84221
:102360000100001938B50446FEF7A0FC054614F13B
:10237000010F02D0044800782418FEF797FC401B98
:10238000A042FAD331BD00BF0800002010B5040000
:1023900001D1012010BD94F83D0018B900F0A2F859
:1023A000FEF799FB71E090F83D10012901D0012062
:1023B0007047022180F83D100168DFF80C2191423E
:1023C00018BFB1F1804F17D0DFF8002191421CBF38
:1023D000DFF8FC2091420FD0DFF8F82091421CBFBB
:1023E000DFF8F420914207D0DFF8F02091421CBFC3
:1023F000DFF8EC20914205D1896801F00701062938
:1024000005D00168096841F0010100680160002001
:10241000704790F83D10012901D00120704702213A
:1024200080F83D100168C96841F001010268D1607F
:102430000168DFF89420914218BFB1F1804F17D0A6
:10244000DFF8882091421CBFDFF8842091420FD032
:10245000DFF8802091421CBFDFF87C20914207D03A
:10246000DFF8782091421CBFDFF87420914205D13B
:10247000896801F00701062905D00168096841F063
:1024800001010068016000207047022084F83D00CF
:10249000211D206800F0E2F8012084F8460084F84D
:1024A0003E0084F83F0084F8400084F8410084F83E
:1024B000420084F8430084F8440084F8450084F81E
:1024C0003D00002010BD000000000140000400405D
:1024D00000080040000C00400004014000400140A2
:1024E0000018004084F83C002046704710B50446B0
:1024F00020680069800718D52068C068800714D557
:102500006FF002002168086101202077206880694F
:1025100010F0030F204602D000F056FF03E000F059
:1025200054FF00F098F800202077206800694007E9
:1025300018D52068C068400714D56FF004002168E2
:102540000861022020772068806910F4407F2046CF
:1025500002D000F039FF03E000F037FF00F07BF815
:102560000020207720680069000718D52068C0681F
:10257000000714D56FF00800216808610420207757
:102580002068C06910F0030F204602D000F01CFF45
:1025900003E000F01AFF00F05EF8002020772068CA
:1025A0000069C00618D52068C068C00614D56FF051
:1025B000100021680861082020772068C06910F4A5
:1025C000407F204602D000F0FFFE03E000F0FDFE59
:1025D00000F041F80020207720680069C00709D585
:1025E0002068C068C00705D56FF0010000F02FF823
:1025F000FFF766F920680069000609D52068C06801
:10260000000605D56FF0800000F021F800F0DEFE36
:1026100020680069400609D52068C068400605D5D5
:102620006FF0400000F013F800F0D1FE2068006960
:1026300080060BD52068C068800607D56FF02000A3
:1026400000F005F8BDE8104000F0C2BE10BD2168E2
:10265000086120467047204600F0BBBE10B50468F4
:10266000274B984218BFB0F1804F0BD0254A9042BB
:102670001CBF254A904205D0244A90421CBF244AE0
:10268000904210D124F070044A681443984218BF55
:10269000B0F1804F1BD01B4A90421FBF1A4A904294
:1026A0001A4A904213D000F028F81CBF194A9042F1
:1026B0000DD0194A90421CBF184A904207D0184AC0
:1026C00090421FBF174A9042174A904203D124F408
:1026D0004074CA68144324F080044A6914430460B7
:1026E0008A68C2620A688262984219BF084A9042A8
:1026F000096901630121416110BD054A904270479B
:10270000000001400004004000080040000C0040B0
:1027100000040140004001400044014000480140E5
:1027200000180040001C004000200040C0F3C751CA
:1027300081B1FF2906D0C110400721F0E04101F12D
:102740006051704741020CBF40F4E0016FF000415E
:102750000020704700F0004100020AD0B0FA80FC6F
:1027600000FA0CF001F16051A1EB0C5101EBD0210A
:1027700040057047F0B540F2FF7581EA030C0CF09C
:10278000004C15EA11541DBF15EA1357AC42AF4275
:10279000E5E0BC41C1F31301C3F31303801A99416F
:1027A00043F4801304D2641E001849418018594133
:1027B000C90241EA5051B1FBF3F603FB1611A2FB2B
:1027C0000675D7EBC020A94102D2761E8018594168
:1027D000C90241EA5051B1FBF3FE03FB1E11A2FBFB
:1027E0000E75D7EBC020A94103D2AEF1010E8018BF
:1027F0005941890241EA9051760546EA8E2EB1FB95
:10280000F3F603FB1611A2FB0675D7EB8020A94156
:1028100002D2761E80185941C90241EA50514EEA4F
:10282000060EB1FBF3F603FB1611A2FB0675D7EB00
:10283000C020A94102D2761E80185941C90241EA3E
:102840005051B1FBF3F703FB1711A2FB0735D3EB94
:10285000C020A94167F100070CBF004247F0010703
:1028600066F3D5274FEA1E31B80814F5806412DDEF
:10287000BD0775F1004250EB0E5051EB045111F5BC
:10288000801F5CBF41EA0C01F0BD4CF07F6141F05C
:10289000E0410020F0BDBD076D0840EA0E5041F454
:1028A0008011D4F10104B4F120060ADAC4F1200643
:1028B0000200E04001FA06F3E1401843B24015433C
:1028C0000EE0342C13DCC6F1200445EA40056D0807
:1028D00020FA06F2154321FA06F0A1400D4300212B
:1028E00075F1004250F1000051EB0C01F0BD0020E9
:1028F0005FEA0C01F0BDCFB992185B41B3FA83F7E0
:1029000004BFB2FA82F6BF190B3FB7F120062FBF02
:1029100002FA06F3BB40C7F1200622FA06F638BFDA
:102920003343BA401CB1E419641E33E77F4231F0EF
:102930000041B1FA81F404BFB0FA80F6A4190B3C4F
:10294000B4F120062FBF00FA06F1A140C4F1200621
:1029500020FA06F638BF3143A0403C1B1AE7AC42D0
:102960001ABF05EA1357AF4212E050EA41061CBFF6
:1029700052EA4306BFE750EA4107304661461CBFB2
:1029800041EA0551F0BD52EA430C08BFC143F0BD16
:1029900000204FF4001616EB410F98BF16EB430FC3
:1029A00008BF16EB410F24BFC14305E016EB430FF0
:1029B0000CBF61464CEA0551F0BD000041EC100B24
:1029C00001BD80B553EC112B51EC100B00F002FD52
:1029D000F4E7000070B491EA030F4FF0004540F1B6
:1029E000BF806B40841A71EB030604D26E40001B5B
:1029F000B141121973414FF4001C1CEB410F34BF5D
:102A00007CEB430683E00C0DA4EB1356362E00F34B
:102A10007C80012E45EAC32341DC43EA525312BFB6
:102A2000D20292025B08240545EAC12141EA5051D5
:102A3000D2EBC020994125D407D1B0FA80F610FA24
:102A400006F162D00020203608E0B1FA81F6B140EC
:102A5000C6F1200220FA02F21143B0404FEAF474AA
:102A6000B4EB465434F001064FEA74040AD8D6F5A4
:102A70000016760D04F00044F04061FA06F2504072
:102A8000F1404840C00A40EA415021F0004128BFCF
:102A90005FEA500550F1000044EBD12135E0DB0A3C
:102AA00045EAC121C90AB6F120050EDD42EA02421B
:102AB000120CC5F1200603FA06F6EB4042EA0605C1
:102AC0006D42984161F100010DE062FA06F5F240B5
:102AD000554063FA06FC82EA0C02F3405A406D420C
:102AE000904161EB030111F4801F05D1641E620562
:102AF00002D06D004041494121F48011430875F135
:102B0000004350F1000041EB045170BC70471CEBD6
:102B1000410F15D223F0004352EA43060BD04FEA8F
:102B20004C0CBCEB410F04D80C0D661E342EB7DDE7
:102B3000EBE7801A994150EA410608BF0021E4E71B
:102B400008BF1CEB430F28BF6FF00001DDE700005A
:102B500070B491EA030F4FF000457FF543AF6B402F
:102B6000841A71EB030603D2001BB14112197341A1
:102B70004FF4001C1CEB410F34BF7CEB430442E0DC
:102B80000C0DA4EB1356352E4FDC45EAC323DB0AAC
:102B900045EAC121C912B6F120050DDD63FA05F63B
:102BA000EB4086EA0305124218BF45F00105C01844
:102BB00051F100010CD213E062FA06F5F2405540E3
:102BC000F3415A40B340F3405A408018594107D36B
:102BD00049085FEA30005FEA350528BF45F0010586
:102BE00001F58011420875F1004250F1000041EBFF
:102BF00004514E0016F5001F70BC38BF704700200E
:102C0000090D090570471CEB410F10D252EA43062B
:102C10000BD0BCEB410F05D80C0DAB43661E342E18
:102C2000B6DD02E0AB438018594170BC704770BC00
:102C30007047000030B540F2FF7C1CEA11541DBF04
:102C40001CEA1355644565453FE0641981EA030CAD
:102C50006FF35F530CF0004C43F48013C90241F052
:102C6000004141EA505EC5021100A5FB02020028A6
:102C70004FF00000EEFB01204FF00001E3FB0521C7
:102C800018BF42F00102401800214941E3FB0E0148
:102C9000A4F580640D0302D292184041494154F1D9
:102CA000010470DD450872F1004250F1000051EB63
:102CB0000451A1F5801102D441EA0C0130BD40F26B
:102CC000FF7E4CEA0E51002030BD0CEA13556445DE
:102CD00018BF654581EA030C0CF0004C41D050EA66
:102CE000410E1CBF52EA430E02E06146002030BD97
:102CF00024422C441BD15FEA050EF6D0090302BF23
:102D000001460020AEF1140EB1FA81F5AEEB0504D8
:102D100001FA05FE0C35C5F1200100FA05F5C840A1
:102D20004EEA000E6FF35F5343F480139CE733F0D9
:102D30000043B3FA83F504BFB2FA82FE75440B3D3B
:102D4000641BB5F1200E2FBF02FA0EF3AB40C5F1A4
:102D5000200E22FA0EFE38BF43EA0E03AA40641C7E
:102D60007CE750EA410E14BF52EA430E6FF00001B7
:102D70004FF4001515EB430F8EBF194615EB410FAD
:102D80009DE7B4D830BDD4F10104B4F120050FDAC9
:102D9000C4F12005520828BF42F0010210FA05FED6
:102DA00001FA05F57244E2BFE0402843E1400FE03C
:102DB000352C9ADCC5F1200452EA400220FA05F2D3
:102DC00018BF42F0010231FA05F0A1400A43002188
:102DD00072F1004250F1000051EB0C0130BD0000D7
:102DE00001F000428B1AA3F16051B1F5801F0ADB9C
:102DF000B1F17F6F1FD242EAC102C10071F10041FF
:102E000042EB507070470B15C3F10903212B10D210
:102E1000890241EA905180020128494141F0004174
:102E200021FA03F0C3F12003994071F100415041B0
:102E30007047100070476FF0000013EB103F5CBF4D
:102E4000000E42EAC0507047DFF8641100220B68A0
:102E50005A620A68526A8242FBD3704730B585B025
:102E600000F014F80095112001900020039007E075
:102E700030B585B000F00AF800950020019002906E
:102E800069462046FDF79AFF05B030BD04460D4661
:102E9000142200216846FEF781B810B5454C012187
:102EA0002046FFF7DBFF002200F057F844F25060A5
:102EB000FFF7CAFF012200F050F81420FFF7C4FF0B
:102EC00001213AE038B500F013F83A4D00F013F85C
:102ED00040B95020FFF7B8FF00F00DF8002814BFEC
:102EE0000124FF2400F007F80028FBD1204632BD62
:102EF00000242820A8E701212846FEF729B870B54C
:102F000000252C4E00F015F80028FBD0FFF7F1FF4C
:102F100000F00FF810B900F01AF801E000F011F815
:102F200000F007F80028FBD16D1C082DEADBE0B2A9
:102F300070BD01213046FEF70BB82046BDE81040B9
:102F400096E70121C5F1070081400C43704701213C
:102F5000C5F1070081408C43704701212046FDF7F1
:102F6000FDBF10B5FFF799FFFFF7ACFF12490870DE
:102F7000FFF7C5FF11490870FFF7C1FF104908703E
:102F8000104CFFF7BCFF2070FFF7B9FF0E49087027
:102F9000FFF7B5FF0D49088020780D4900F001F8D2
:102FA00010BD088000EE100AB8EE400A704700001D
:102FB0006000002000000240C1010020BF0100208D
:102FC000C0010020BD010020BE010020BA01002088
:102FD000B80100202DE9FC4104001AD02078C00778
:102FE00019D5DFF81C03016801F00C01042909D090
:102FF000006800F00C00082845D1DFF808030068DD
:10300000400240D5DFF800030068800303D5606804
:10301000002800F07081207880071DD5DFF8E002DD
:10302000016811F00C0F08D0006800F00C000828AF
:103030005ED1B448006840025AD4B3480168890799
:1030400003D5E168012940F05681016821F0F801BB
:10305000226941EAC20101602078000778D56069E1
:10306000002866D00120A9490860FDF71FFE05462B
:10307000A748006880076BD4FDF718FE401B0328A3
:10308000F6D303203AE16068B0F5803F01D19E4855
:1030900007E0B0F5A02F9C48016806D141F48021DB
:1030A0000160016841F4803105E021F48031016064
:1030B000016821F480210160606860B1FDF7F6FDD0
:1030C0000546914800688003A5D4FDF7EFFD401B3D
:1030D0006528F6D3D5E7FDF7E9FD05468A4800687F
:1030E000800398D5FDF7E2FD401B6528F6D3C8E7BD
:1030F000E06878B1012087490860FDF7D7FD0546F3
:10310000814801688907A0D4FDF7D0FD401B032842
:10311000F6D3B6E77F490860FDF7C8FD05467A4853
:103120000068800798D5FDF7C1FD401B0328F6D342
:10313000A7E776490860FDF7B9FD054674480068C1
:10314000800705D5FDF7B2FD401B0328F6D398E7AD
:103150002078400761D500256F4E3068C0000BD441
:1031600000200090306840F080503060306800F0FF
:103170008050009000980125684F3868C00510D431
:10318000386840F480703860FDF790FD80463868FC
:10319000C00506D4FDF78AFDA0EB08000328F6D38E
:1031A0006FE7A068012801D15D4806E005285C486A
:1031B000016806D141F004010160016841F001019C
:1031C00005E0490849000160016821F0040101603F
:1031D000A06870B1FDF76AFD074651480068800796
:1031E00016D4FDF763FDC01B41F289318842F4D348
:1031F00047E7FDF75BFD074649480068800707D5AC
:10320000FDF754FDC01B41F289318842F4D338E701
:103210001DB1306820F080503060A06900286CD06B
:103220003748006800F00C000828A0693FD0022849
:103230002DD13C4D00202860FDF738FD0746324E69
:103240003068800105D5FDF731FDC01B0328F7D399
:1032500017E7E069216A0843616A40EA8110A16AC0
:103260004908491E40EA0140E16A40EA01602549F7
:10327000086001202860FDF719FD044630688001D0
:103280003BD4FDF713FD001B0328F7D3F9E600201C
:1032900024490860FDF70AFD04461B4800688001C8
:1032A0002BD5FDF703FD001B0328F6D3E9E6012823
:1032B00021D01448006800F48001E269914202BF05
:1032C00000F03F01226A914201BF47F6C071014000
:1032D000626AB1EB821F0ED100F4403101F58031FA
:1032E000A26A5208B1EB024F02BF00F07060E16ABF
:1032F000B0EB016F01D0012000E00020BDE8F681B5
:10330000083802400438024000380240800E47422C
:1033100074380240000047424038024000700040CC
:1033200070380240600047420268D160002180F896
:103330003C10002010BD10B590F83C20012A01D1AE
:10334000022010BD012280F83C20022280F83D209E
:1033500002685468936824F070040A681443026891
:1033600054600268144CA24218BFB2F1804F11D0D1
:10337000104CA2421CBF114CA2420BD00C4CA242DA
:103380001CBF0F4CA24205D0084CA2421CBF0D4CE2
:10339000A24205D123F0800349680B4311468B609C
:1033A000012180F83D10C1E700000000004001400D
:1033B000000C0040000400400000014000080040F4
:1033C0000004014000180040704770477047704784
:1033D000704770472DE9F04D2DED0A8B43EC182B0B
:1033E00055EC184B84B041EC190B24F0000635F075
:1033F000004708BF002E00F0BE8253EC192B0020BE
:10340000DFF8F41500F00EFB00F0B58251EC180B5C
:103410008A464FEA4A077F150020DFF8741500F04E
:1034200001FB04BF17F1010F5FEA0A3000F0A3822D
:1034300051EC190B8B464FEA4B004FEA605818F1DC
:10344000010F00F0E18131F000430CBF002A17F1B9
:10345000010F00F0D9816B0043EAD4736200002BA6
:1034600008BF002A04D1B0EE48AAF0EE68AA1BE01B
:1034700040F23346A6EB5352352A06DB04F0000235
:1034800005F0004343EC1A2B0EE0202A03DD203A1E
:10349000D540954000E001D1002403E0002AC4BFDC
:1034A000D440944045EC1A4BC80F0BD053EC182B6A
:1034B00051EC1A0B00F0B6FA04D0AFF300809FED88
:1034C0002F9B5AE26A4651EC190B00F0BBFA41EC13
:1034D000190BC80F36D021F0004053EC192B0346CE
:1034E00043EC192B51EC1A0B4B0043EAD07342000A
:1034F000002B08BF002A04D1B0EE4A0AF0EE6A0A97
:1035000019E040F23444A4EB5352352A04DB00F0B6
:10351000000001F000410CE0202A03DD203AD140F8
:10352000914000E001D1002003E0002AC4BFD04058
:10353000904041EC100B53EC1A2B51EC100B00F0A7
:1035400071FA01D1002600E00126009801281DD162
:1035500051EC190BDFF83C24DFF83C3400F0AAFAF8
:1035600014D253EC192B00204FF08041FFF762FB7F
:1035700000279FED04BB41EC190B27E0FFFFFFFF85
:10358000FFFFFF7F000000000000F03F53EC192B0D
:103590000020DFF80814FFF74DFB9FED76AB53ECEE
:1035A0001A2BFFF717FA00F09FFAA0F1200420462B
:1035B00000F0B6FA0022DFF8E833FFF73BFB53ECEC
:1035C0001A2BFFF707FA41EC1B0B670151EC190BA3
:1035D00053EC1B2BFFF7BCFA41EC1A0B53EC192BE5
:1035E00051EC1B0BFFF7F6F902460B4651EC1A0B98
:1035F000FFF7C0F841EC190B53EC192BFFF71AFB3E
:1036000041EC1C0B53EC1C2BDFF89803DFF89813EC
:10361000FFF710FBDFF89423DFF89433FFF7DAF9B4
:1036200053EC1C2BFFF706FBDFF88823DFF8883309
:10363000FFF7D0F953EC1C2BFFF7FCFADFF87C23E3
:10364000DFF87C33FFF7C6F953EC1C2BFFF7F2FAD7
:10365000DFF87023DFF87033FFF7BCF953EC1C2B55
:10366000FFF7E8FADFF86423DFF86433FFF7B2F915
:1036700053EC1C2BFFF7DEFADFF85823DFF8583342
:10368000FFF7A8F953EC1C2BFFF7D4FA53EC1A2BD5
:10369000FFF75EFA04460D460020DFF85C1353EC9A
:1036A0001B2BFFF755FA00224FF08043FFF7C2FAB9
:1036B00022462B46FFF78EF953EC192BFFF7BAFA87
:1036C00041EC100BC548784400F21230074453EC2B
:1036D0001A2B51EC100BFFF77DF941EC190B0098F8
:1036E00000F01EFAD7E90023FFF774F941EC1A0B3A
:1036F00053EC192BBA48BB49FFF79CFA53EC1A2B31
:10370000FFF768F953EC182BFFF794FA0022B64B39
:1037100000F0D0F941EC1B0B6AD30122B34B00F04F
:1037200011FA62D9C80F53EC1B2B1ABF0020B04905
:10373000B049FFF74FF900F0D7F90022AE4BCDE9C1
:1037400001238046CDF8008053EC192B51EC180B67
:10375000FFF770FA04460D46D7E90201D7E90423C2
:10376000FFF738F953EC182BFFF764FA9FEDA3BB72
:1037700004E000BF000000000000E03F53EC1B2B02
:10378000FFF758FA22462B46FFF724F907468B46E7
:1037900053EC1A2B51EC180BFFF74CFA04460D466C
:1037A000404600F0BDF902460B4620462946FFF789
:1037B000CFF953EC1B2BFFF73DFA3A465B46FFF778
:1037C00009F9DDE9012300F0D7F941EC190B31F0DB
:1037D000004108BF00280BD051EC190B4A005215CC
:1037E00012F1010F06D1080304D19FED8C9B01E07B
:1037F0009FED869B002E00F0C08051EC190B81F0EC
:10380000004141EC190BB8E018F1010F03D15FEA58
:103810000B3040F0B28017F1010F07D15FEA0A3098
:1038200004D0B0EE489AF0EE689AA6E0012617F1AF
:10383000010F63D0294620464B0043EAD073420073
:10384000002B08BF002A04D1B0EE48AAF0EE68AA07
:103850001AE040F23342A2EB5352352A04DB00F067
:10386000000001F000410DE0202A04DDA2F120005B
:10387000C140814000E001D1002003E0002AC4BF24
:10388000D040904041EC1A0B53EC182B51EC1A0B22
:1038900000F0C8F818BF00264B0043EAD07342007E
:1038A000002B08BF002A04D1B0EE4A0AF0EE6A0AE3
:1038B0001AE040F23442A2EB5352352A04DB00F006
:1038C000000001F000410DE0202A04DDA2F12000FB
:1038D000C140814000E001D1002003E0002AC4BFC4
:1038E000D040904041EC100B46B153EC1A2B51ECF8
:1038F000100B00F097F80CBF0026012618F1010FFD
:1039000008BF5FEA0B3006D151EC190BC80F13D179
:10391000EC0F2DD024E017F1010F08BF5FEA0A3049
:1039200010D16A4651EC190B00F08CF8EC0F00989E
:1039300014D100281CDC13E0EC0F01D1002E13E0A1
:1039400076B108E0002E1ABF51EC190BC80F002009
:10395000EC0F08D120B19FED2B9B0EE0002807DD76
:103960009FED2A9B09E0002818BF9FED2A9B04D1F8
:103970009FED2A9B01E09FED049B04B051EC190BD5
:10398000BDEC0A8BBDE8F08D000000000000F03FA8
:103990000000F0BFCD3B7F669EA0E63F0000504098
:1039A0000000903FF7DE29BFD8F8C23FF4B3FECC49
:1039B0001A99C33F62CB68D96F46C73FC6C912DAAE
:1039C000C471CC3F4AE98A942449D23FF75F979962
:1039D0009999D93FBC5555555555E53FC40500004B
:1039E000FE822B654715F73F0000E0C00000E04075
:1039F0000000E0BF0000E03F0000F03FEF39FAFEBA
:103A0000422EE63F000000000000008000000000A1
:103A100000000000000000000000F0FF00000000B7
:103A20000000F07F904205D1994204D041EA030C96
:103A300050EA4C0C70474FF4001C1CEB410F38BF90
:103A40008942704710B5144600F002F8226010BD9C
:103A5000C1F30A5343B14A0012F5001F28D2A3F262
:103A6000FE32A1EB0251704750EA410C20D001F028
:103A7000004C31EA0C01B1FA81F204BFB0FA80F3D4
:103A8000D2180B3AB2F120032CBF00FA03F1914097
:103A900041EA0C013EBFC2F1200C20FA0CF319439D
:103AA0009040524240F2FD33D21A01EB035170476D
:103AB0000022704741EA030C50EA4C0C52EA0C0C0D
:103AC0004FF4001C09D307D01CEB410F9CBF1CEB2B
:103AD000430F8B4208BF824270471CEB430FFBD859
:103AE000994208BF90427047C1F30A5340F21E4208
:103AF000D31A0CDDCA0283F3070342EA505242F0A4
:103B00000042DA4002EBE17282EAE17070476FEA4C
:103B1000E17203F2E13008B182F00040704700002A
:103B200010F0004160B148BF4042B0FA80F29040CE
:103B3000D21CC2F5846241EA025202EBD021400558
:103B40007047000041EA030C50EA4C0C52EA0C0C9E
:103B50004FF4001C09D307D01CEB410F9CBF1CEB9A
:103B6000430F994208BF904270471CEB410FFBD8AE
:103B70008B4208BF82427047F0B583B02DED0A8BAF
:103B800041EC1A0B084645006D15129E15F1010F08
:103B900043EC182B21D053EC1A2B33F0004308BF11
:103BA000002A1AD053EC182B1C466100491511F15C
:103BB000010F12D022F0000133F0004208BF0029AB
:103BC0000BD051EC1A0B00228E4BFFF773FF58D22B
:103BD0009FED8D0B51EC100B4DE015F1010F05D150
:103BE000010318BF51EC1A0B40F0088153EC182B5D
:103BF0001C4667007F1517F1010F01D121031DD16C
:103C000033F0004308BF002A0ED115F1010F15D182
:103C1000000313D1AFF30080BDEC0A8B4FF0FF30EF
:103C20006FF0004103B0F0BD17F1010F09D121037E
:103C300007D115F1010F01D10003EBD051EC180BA6
:103C4000DCE053EC1A2B33F0004304BF002A324669
:103C500000F0BC8015F1010F0CD100030AD153EC28
:103C60001A2B51EC180BBDEC0A8B03B0BDE8F040E9
:103C7000FEF7E0BF0020BDEC0A8B04F0004103B06A
:103C8000F0BD0122624BFFF75DFF0CD8AFF300805F
:103C90009FED600BBDEC0A8B51EC100B04F000445F
:103CA000214303B0F0BD53EC1A2B5C485C49FEF78E
:103CB000C1FF41EC100B9FED5B9B51EC190B0846CB
:103CC00053EC102B03F00041084353EC192B03462F
:103CD00051EC100BFEF77EFEFFF706FF0746FFF7DD
:103CE0001FFF41EC1B0B53EC1B2B4FF078404F494F
:103CF000FEF7A0FF53EC1A2BFEF76CFE04460D46B0
:103D000053EC1B2B4A484B49FEF794FF22462B46A7
:103D1000FEF760FE41EC1A0B21F000410022464BF9
:103D2000FFF7C8FE51D353EC1A2B51EC1A0BFEF7D8
:103D300081FF41EC1B0B53EC1B2B40484049FEF725
:103D400079FF404A404BFEF745FE53EC1B2BFEF734
:103D500071FF41EC1C0B53EC1B2B3C483C49FEF71C
:103D600069FF3C4A3C4BFEF735FE53EC1B2BFEF73C
:103D700061FF53EC192BFEF72DFE53EC1A2BFEF7C7
:103D800059FF41EC190B53EC1C2BFEF723FE9FED62
:103D900033AB53EC1A2BFEF71DFE04460D4651ECD7
:103DA0001C0B53EC192BFEF7D3FE53EC1A2BFEF72A
:103DB00011FE02460B4620462946FEF7DBFC53EC7B
:103DC000182BFEF737FF41EC180BF21951EC180BCA
:103DD00000F048F841EC100B31F0004108BF00281A
:103DE00008D051EC100B4A00521512F1010F03D10B
:103DF000080301D1AFF3008051EC100BBDEC0A8B2E
:103E000003B0F0BD00C89CC000000000000000002E
:103E100000C89C40000000000000F07FFE822B657F
:103E20004715F73F000000000000E03F422EE6BFCC
:103E3000F2E4D5BCE7E84BBE0000903C112E578160
:103E4000A03F503F5843128C8F71BC3F4BE8A541B7
:103E5000B752013F0BBDF3DAE8708C3F0000000061
:103E60000000F03F124254D440F2FF7C1CEA115390
:103E70000FD0634531D09B1863453CBF01EB025125
:103E8000704701F0004141EA0C510020AFF300807F
:103E9000704750EA410320D001F0004C91EA0C0138
:103EA0001CD0B1FA81F30B3B9A420DD9D21A99403A
:103EB00051EA0C01C3F1200C20FA0CFC614498403B
:103EC000531C40F2FF7CD7E7914041EA0C01C2F15C
:103ED000200C20FA0CF3194390407047B0FA80F39D
:103EE0001533202BE0D3202AEED3203A203B9A42F0
:103EF00009D9D21A00FA03F141EA0C010020531C3F
:103F000040F2FF7CB8E700FA02F141EA0C01002020
:103F10007047524240F2FF7C1CEA11530DD06345BA
:103F2000DBD0B2EB030C3CBFA1EB025170470CF1AC
:103F3000010221EA035141F4801150EA410CCCD036
:103F400001F0004C352A27DC30B481EA0C01B2F1D3
:103F5000200309DAC2F12003044601FA03F5D04038
:103F60002843D1409C400CE0C3F12002450020FAD8
:103F700003F418BF44F0010421FA03F091400C430C
:103F8000002174F1004550F1000051EB0C01244276
:103F900030BC7FF47BAF70476146002076E70000BD
:103FA000000000000000F0BF0000000000000080E2
:103FB0000000000000000080000000000000000081
:103FC000000000C05294EEBF00000048204E51BED9
:103FD000000000F86467BCBC0000000000000000A6
:103FE000000000208133EDBF00000080B3DB14BE71
:103FF000000000506706A3BC0000000000000000A5
:10400000000000D0E9DCEBBF00000008C39259BEFD
:1040100000000080B0D3B8BC000000000000000029
:1040200000000070F98FEABF000000C0A51028BE94
:10403000000000E8BFC0B0BC0000000000000000AD
:1040400000000070284CE9BF00000060134B42BE26
:10405000000000C03D20B8BC0000000000000000CF
:1040600000000050FA10E8BF000000C05FF62BBE51
:10407000000000905C71A7BC000000000000000080
:1040800000000020FCDDE6BF000000C0F8F154BED7
:1040900000000018E9F6B9BC0000000000000000B4
:1040A000000000D0C3B2E5BF00000070E43254BE8F
:1040B00000000050DB06B4BC00000000000000005F
:1040C00000000010EF8EE4BF00000020F36252BE3B
:1040D000000000C02A879ABC000000000000000019
:1040E000000000B02272E3BF000000F0E8E056BE1E
:1040F00000000028352DBDBC0000000000000000BD
:10410000000000000A5CE2BF000000B0FA8E41BE71
:1041100000000040AE6FBDBC0000000000000000C9
:1041200000000000564CE1BF000000F015CD5FBE5E
:1041300000000000141C90BC000000000000000003
:1041400000000040BD42E0BF00000030F93457BE1F
:10415000000000E06C1E93BC0000000000000000A6
:10416000000000E0F57DDEBF000000B08A535EBEB7
:1041700000000080DA77AABC000000000000000008
:10418000000000C09D81DCBF00000000FFA226BE31
:104190000000006057E2B0BC00000000000000001A
:1041A00000000060F98FDABF000000580A8151BE9C
:1041B000000000F05F60B8BC0000000000000000DC
:1041C0000000000098A8D8BF000000607A7F45BEBC
:1041D000000000D05433A3BC000000000000000029
:1041E000000000600FCBD6BF000000D091CB40BED6
:1041F000000000406D1BA0BC00000000000000009B
:10420000000000A0FBF6D4BF00000098C5CE52BE4F
:10421000000000003A397EBC0000000000000000F1
:10422000000000E0FE2BD3BF0000004073872BBED0
:1042300000000000926879BC00000000000000004F
:1042400000000040C069D1BF00000058F16353BEB8
:1042500000000080438D7CBC0000000000000000D6
:1042600000000080D85FCFBF000000181F8354BE3D
:10427000000000B03F42A2BC0000000000000000AF
:104280000000008067FCCBBF00000060FAFF53BE57
:1042900000000050E00DB8BC00000000000000006D
:1042A0000000000098A8C8BF000000607A7F35BEFB
:1042B000000000C0543393BC000000000000000068
:1042C00000000000DC63C5BF00000058D6FF54BEEC
:1042D00000000000396490BC0000000000000000F5
:1042E000000000C0AD2DC2BF00000080A45915BE63
:1042F000000000E0484BABBC0000000000000000E4
:10430000000000801A0BBEBF00000050BF3C5ABE28
:10431000000000A0B364B6BC000000000000000074
:104320000000008004D6B7BF00000040BBCF36BEFF
:104330000000008076CEA8BC000000000000000055
:104340000000008032BBB1BF000000402A0043BE25
:1043500000000028C60CBDBC0000000000000000EA
:10436000000000009473A7BF000000182B3B59BE4B
:10437000000000C0E55DA5BC0000000000000000DA
:1043800000000000EE4397BF000000A0E6C340BE5F
:1043900000000020958DB5BC00000000000000006A
:1043A000000000000000008000000000000000800D
:1043B000000000000000008000000000000000007D
:1043C00030B4002512E050F8042BD30744BF4A4410
:1043D000521E091F042942F8045BFAD213468C07C7
:1043E00044BF15809B1CC90748BF1D7050F8041BB3
:1043F0000029E8D130BC7047FEE7FEE7FEE7FEE7A4
:10440000FEE770477047704700F00AB80248FDF7B2
:1044100050B90248FEF76AB824010020A800002025
:1044200003480168034A127889180160704700BF89
:10443000B40100200800002010B507497944183164
:10444000064C7C44163404E00A68081D1144884771
:104450000146A142F8D110BD2C0000004C00000024
:104460004EF68851CEF20001086840F470000860F2
:10447000BFF34F8FBFF36F8F4FF00170E1EE100A63
:10448000704700003DFFFFFFB80100000C00002056
:10449000000000002BCCFFFF0C000000A00000007B
:1044A000000000200000000000F00DF8002801D0FE
:1044B000FFF7C2FFAFF300800020AFF30080FDF7ED
:1044C00033FA00F002F80120704700F001B8000054
:1044D0000746384600F002F8FBE7000080B5AFF36E
:1044E0000080024A11001820ABBEFBE72600020044
:1044F0000548014603B4684680F30988AFF300809D
:10450000FFF7AEFFFFF7D0FFA5EDF5FE00000000BE
:104510000000000001020304060708090148804763
:10452000014800472D450008F14400080248016891
:1045300041F470010160704788ED00E01000000058
:104540000024F40001000000000000000102030448
:10455000FFF7FEBFFFF7FEBFFFF7FEBFFFF7FEBF8F
:10456000FFF7FEBFFFF7FEBFFFF7FEBFFFF7FEBF7F
:10457000FFF7FEBFFFF7FEBFFFF7FEBFFFF7FEBF6F
:10458000FFF7FEBFFFF7FEBFFFF7FEBFFFF7FEBF5F
:10459000FFF7FEBFFFF7FEBFFFF7FEBFFFF7FEBF4F
:1045A000FFF7FEBFFFF7FEBFFFF7FEBFFFF7FEBF3F
:1045B000FFF7FEBFFFF7FEBFFFF7FEBFFFF7FEBF2F
:1045C000FFF7FEBFFFF7FEBFFFF7FEBFFFF7FEBF1F
:1045D000FFF7FEBFFFF7FEBFFFF7FEBFFFF7FEBF0F
:1045E000FFF7FEBFFFF7FEBFFFF7FEBFFFF7FEBFFF
:1045F000FFF7FEBFFFF7FEBFFFF7FEBFFFF7FEBFEF
:10460000FFF7FEBFFFF7FEBFFFF7FEBFFFF7FEBFDE
:10461000FFF7FEBFFFF7FEBFFFF7FEBFFFF7FEBFCE
:10462000FFF7FEBFFFF7FEBFFFF7FEBFFFF7FEBFBE
:10463000FFF7FEBFFFF7FEBFFFF7FEBFFFF7FEBFAE
:10464000FFF7FEBFFFF7FEBFFFF7FEBFFFF7FEBF9E
:10465000FFF7FEBFFFF7FEBFFFF7FEBFFFF7FEBF8E
:10466000FFF7FEBFFFF7FEBFFFF7FEBFFFF7FEBF7E
:10467000FFF7FEBFFFF7FEBFFFF7FEBFFFF7FEBF6E
:0C468000FFF7FEBFFFF7FEBFFFF7FEBF15
:04000005080044F1BA
:00000001FF
