:020000040800F2
:10000000D00500208D270008FD250008FF250008E9
:10001000012600080326000805260008000000004D
:10002000000000000000000000000000072600089B
:1000300009260008000000000B2600080D26000815
:10004000B5270008B9270008BD270008C127000808
:10005000C5270008C9270008CD270008D1270008B8
:10006000D5270008D9270008DD270008E127000868
:10007000E5270008E9270008ED270008F127000818
:10008000F5270008F9270008FD27000811260008B9
:10009000152600081D2600081F2600080128000854
:1000A00005280008092800080D2800081128000864
:1000B00015280008192800081D2800082128000814
:1000C00025280008292800082D28000831280008C4
:1000D0003528000839280008212600083D28000896
:1000E000272600084128000845280008492800085C
:1000F0004D280008512800085528000859280008F4
:100100005D280008612800086528000869280008A3
:100110006D28000871280008452600087528000889
:10012000792800087D280008812800088528000813
:10013000892800088D2800089128000895280008C3
:10014000992800089D280008A1280008A528000873
:10015000A9280008AD280008B1280008B528000823
:10016000B9280008BD280008C1280008C5280008D3
:10017000C9280008CD280008D12800080000000088
:10018000D5280008D928000810B5040001D10120A5
:1001900010BD94F83D0008B900F019F800F01CF803
:1001A00000F026F8FFE72168486100F001F810BD73
:1001B0002068C06840F400502168C86000202064B6
:1001C000202084F83D0084F83E000020704784F829
:1001D0003C00204600F024BC242084F83D00206828
:1001E000C06820F400502168C860204600F0F6BACC
:1001F0002068006920F49040216808612068406907
:1002000020F02A0070472DE9FC4106460D461446B1
:100210001F4696F83D00202849D10DB1200001D19C
:10022000012045E096F83C00012840D0012086F8E6
:100230003C0000203064212086F83D0000F042FCA4
:100240008046B484F48400F035F804BF3069002897
:100250000EBF00242C460025002086F83C000CE050
:10026000002C12BF14F8010B35F8020BC0F3080084
:1002700031684860F08C401EF084F08C00280097B4
:10028000434607D000228021304600F059F900286B
:10029000E6D005E000224021304600F051F908B1D7
:1002A000032005E0202086F83D00002000E0022029
:1002B000BDE8F681B068B0F5805F704790F83E30D9
:1002C000202B0FD109B1130001D10120704790F804
:1002D0003C30012B06D0012380F83C30002303631F
:1002E00000F07CB9022070472068143050E8001FED
:1002F000206800F1140221F0400142E800100028BB
:1003000070472068143050E8001F206800F1140284
:100310004908490042E80010002870471CB504460F
:1003200020680168C268406911F00F0F07D1880684
:100330005FD590065DD52046BDE81640E4E1C307D1
:1003400002D412F4907F54D0CB0705D5D30503D542
:10035000236C43F0010323644B0705D5C30703D582
:10036000236C43F0020323648B0705D5C30703D531
:10037000236C43F0040323640B0707D5930601D4D1
:10038000C00703D5206C40F008002064206C0028D2
:100390002ED0880604D5900644BF204600F0B4F95C
:1003A00020684069216C090701D440061BD520460E
:1003B00000F035F92068406940060FD5FFF794FF3B
:1003C000FCD1A06B50B10FF2B92000F083F80028E7
:1003D0000ED0A06B016DBDE81C4008472046BDE86B
:1003E000164000F075BB204600F072FB0020206430
:1003F00013BD206B01285CD1C8065AD5D00658D54C
:1004000000F094F820684069400627D5A06B00688A
:10041000406880B200285CD0A18D884259DAE0851E
:10042000A06BC069B0F5807F14D000F062F821F4B1
:10043000807100F0BBF8F8D1FFF763FFFCD1FFF744
:1004400053FFFCD100F04FF800F05BF8FCD1A06B3B
:1004500000F054FBA18DE08D091A24E0A08DE18D00
:10046000411AE08D00281CBF88B2002831D000F06E
:1004700055F822F4907200F032F8F8D12068143068
:1004800050E8002F206800F114035208520000F0D9
:1004900026F8F3D100F027F800F040F822F010021F
:1004A00000F01DF8F8D189B22046BDE81C4000F0EC
:1004B0008FBB080605D5100603D52046BDE81640BB
:1004C000E4E0480605D5500603D52046BDE81640B1
:1004D0000CE113BDA16B0865A06B00F051BB43E8B4
:1004E000002000287047202084F83E000020206370
:1004F000704720680C3050E8001F206800F10C02A3
:10050000704720680C3050E8001F206800F10C0292
:1005100021F0100142E800100028704720680C30DC
:1005200050E8002F206800F10C0370470020009075
:10053000206800680090206840680090009870472C
:100540002DE9F04105460E4690461F46069C286858
:1005500000683040B0420CBF01200020404518D157
:1005600014F1010FF3D024B100F0ACFAC01B8442A7
:10057000EDD200F011F821F4D07100F017F8F8D1A5
:1005800000F018F8FCD100F022F885F83C000320B8
:1005900000E00020BDE8F08128680C3050E8001F22
:1005A000286800F10C02704721F4F07142E8001055
:1005B000002870472868143050E8001F286800F1B0
:1005C00014024908490042E8001000287047202022
:1005D00085F83D0085F83E000020704781628285E5
:1005E000C28500210164222180F83E10002180F89C
:1005F0003C10016929B10168C96841F48071026841
:10060000D1600168496941F00101026851610168E6
:10061000C96841F020010068C1600020704701688E
:100620000C3151E8002F016801F10C0322F49072A3
:1006300043E800210029F2D10168143151E8002F6C
:10064000016801F114035208520043E80021002917
:10065000F2D1016B01290CD101680C3151E8002F56
:10066000016801F10C0322F0100243E80021002987
:10067000F2D1202180F83E10002101637047000074
:10068000806B0021C185C18400F022BA90F83D1032
:10069000212929D18168B1F5805F04BF0169002952
:1006A00009D1016A0988C1F3080102685160016A31
:1006B000891C016205E0016A4A1C0262097802682D
:1006C0005160C18C491EC18489B259B90168C96899
:1006D00021F080010268D1600168C96841F04001E1
:1006E0000068C160002070470220704780B5016833
:1006F000C96821F040010268D160202180F83D10D6
:1007000000F067FA002002BD80B590F83E10222963
:1007100062D18168B1F5805F0CD1016909B1826A4B
:100720000EE001684968C1F30801826A1180816A9C
:10073000891C0FE0826A002904BF0169002902D1E7
:100740000168496803E00168496801F07F011170A0
:10075000816A491C8162C18D491EC18589B2C9BBAC
:100760000168C96821F020010268D1600168C96888
:1007700021F480710268D160016849694908490023
:1007800002685161202180F83E10016B01291FD1C0
:100790000021016301680C3151E8002F016801F16B
:1007A0000C0322F0100243E800210029F2D1016875
:1007B0000968C90608D500210091016809680091FF
:1007C0000168496800910099818D00F001FA01E00B
:1007D00000F064FA002002BD022002BD2DE9F846B7
:1007E00005462868016921F44051E86801432868FA
:1007F00001612868C16838480140A8680143286938
:10080000014368690143E86901432868C1602868B9
:10081000416921F44071A869014328684161286851
:100820002E4988421CBF2E49884202D100F003FDA8
:1008300001E000F0F8FC0446E869B0F5004F6FF005
:10084000630722D1192600F062F86421B0FBF1FAA7
:1008500000F05DF800F05AF800F04AF8C0003230BD
:10086000B0FBF1F0400000F4F87000EB0A1A00F061
:100870004EF800F04BF800F035F8FF0032376420F6
:10088000B7FBF0F000F0070020E0192600F037F881
:100890006421B0FBF1FA00F032F800F02FF800F01C
:1008A00027F800013230B0FBF1F000F0F00000EB6F
:1008B0000A1A00F024F800F021F800F013F83F01C4
:1008C00032376420B7FBF0F000F00F005044296885
:1008D0008860BDE8F1860000F369FFFF0010014069
:1008E000001401406421B0FBF1F007FB0097704752
:1008F0006421B0FBF1F007FB009070478146A6FB36
:1009000004016A68930F920000F0B2BC8146A6FB16
:1009100004016A68D30F520000F0AABC82B0002024
:1009200000906048016841F480410160006800F473
:10093000804000900098002000905B48016841F0E2
:1009400080510160006800F08050009000980720FE
:1009500002B000F070BD10B586B000F08EF82068CF
:10096000524988423BD100F056F841F000710160D5
:10097000006800F0007000F08EF841F002010160A4
:10098000006800F00200009000984FF4407000F002
:100990007AF80920059001A9454800F06FFD002272
:1009A0000021132000F048FD132000F054FD002228
:1009B0000021142000F040FD142000F04CFD002226
:1009C0000021152000F038FD152000F044FD002224
:1009D0000021162000F030FD162000F03CFD06B08E
:1009E00010BD00683349884200D0704780B500F0E0
:1009F00012F841F010010160006800F01000009052
:100A0000009800220021362000F016FD3620BDE8B7
:100A1000024000F020BD002000902348016870478C
:100A200010B586B000F029F820682349884222D109
:100A3000FFF7F1FF41F400310160006800F400307D
:100A400000F029F841F001010160006800F00100A8
:100A5000009000980C2000F016F80720059001A9DE
:100A6000164800F00BFD00220021262000F0E4FCD7
:100A7000262000F0F0FC06B010BD04461422002130
:100A800001A800F0F1BD0190022002900020039027
:100A900003200490704700900098002000900848C0
:100AA000016870474438024040380240006400400A
:100AB00000040240001000400044004000000240DA
:100AC0003038024001480068704700BFC80100206C
:100AD00070470EE002684368024408305FEAC37C56
:100AE00044BF4B445B1E52F804CB43F804CB091FB0
:100AF000F9D150F8041B0029ECD1704770B50446B9
:100B0000A56DFFF7DFFF064694F83500022806D0F2
:100B100080206065002084F83400012070BD2068CA
:100B2000006800F040F804BFA06C002801D000F07D
:100B300047F800F017F820680068C0070BD5FFF7EA
:100B4000C1FF801B0628F6D320206065032000F03B
:100B500011F8032070BD3F20E16D8840A86000F0CF
:100B600008F870BD206800684008400021680860EF
:100B70007047012084F83500002084F83400704765
:100B800090F83510022903D080214165012070477B
:100B9000052180F835100168096849084900006896
:100BA00001600020704720F016002168086020686E
:100BB000406920F0800021684861206C002870475F
:100BC0002068006820F00800216808607047000075
:100BD0007047704711E030B502460023012000E065
:100BE0005B1CD45CCD5CAC4201D1082BF8D3072B45
:100BF00038BF002030BD000000BF0022835C8B5452
:100C0000521C082AFAD3704710B5DFF85804DFF8F1
:100C10005814D1E90023C0E90023DFF8501400F193
:100C2000080200F036F8DFF8481400F1100200F076
:100C300030F8DFF8401400F02AF8DFF83C1400F137
:100C4000200200F026F8DFF8341400F1280200F04A
:100C500020F8DFF82C1400F1300200F01AF8DFF869
:100C6000241400F014F8DFF8201400F1200200F042
:100C700010F8DFF8181400F1280200F00AF8DFF885
:100C800010143030D1E90023C0E9002310BD00F179
:100C90001802D1E90034C2E90034704738B5DFF8F2
:100CA000F43300681968884228D1DFF8EC43082241
:100CB00021461846FFF702FBF8B9DFF8E053294652
:100CC0002046FFF788FF012807D0DFF8D4532946D4
:100CD0002046FFF780FF012804D1DFF8C81328461B
:100CE000FFF778FFDFF8C033DFF8B823DFF8BC1375
:100CF000DFF8BC0300F0F8FD00B14AE031BD38B5C3
:100D0000DFF8B053DFF8B04323462A46002100F055
:100D100064FE00B13DE0286840F2516188420ED186
:100D20002078312808BFDFF844132DD0322808BFBF
:100D3000DFF83C1328D033282AD1CE4924E040F2F2
:100D4000596188420CD12078342808BFCA491BD089
:100D5000352808BFC94917D0362819D1C84913E02A
:100D600040F20311884213D12078372808BFC549C3
:100D70000AD0382808BFC44906D0392808BFC3495B
:100D800002D0582804D1C2492046BDE8344033E798
:100D900031BDBDE83140AEE10068C849096888420C
:100DA00002D10120C6490870704738B500F0A2FF93
:100DB00000F05EF800F019F900F0A8F800F0C2F8B1
:100DC000BA480821016100218160C16040F24641BA
:100DD000016000F0CEF800F0F0F8B54C204600F0CD
:100DE00038FD08B100F087F90221204600F074FEBA
:100DF00008B100F080F9B14800F0A3FFA54C08222B
:100E0000A5492046FFF75AFAAD4D28780128FCD1B4
:100E1000FFF7FAFE4FF4FA635022924900F025F8EA
:100E200000F01FF8904900F020F800F01AF88F4900
:100E300000F01BF800F015F88D4900F016F800F0EE
:100E400010F88D4900F011F800F00BF88B4900F014
:100E50000CF800F006F88B4900F007F80020287025
:100E6000D3E74FF47A73082270472046FFF7CBB9D7
:100E700080B592B03022002106A800F0F5FB00F00A
:100E80002FF9002000908F48016841F080510160E7
:100E9000006800F0805000900098002000908A4880
:100EA000016841F480410160006800F480400090D6
:100EB0000098022006900120099010200A9002203C
:100EC0000C9000200D9008200E9048200F900220DA
:100ED00010900720119006A801F0C0F808B100F0AA
:100EE0000AF90F20019002200290002003904FF495
:100EF000805004904FF4A0500590022101A800F00A
:100F0000FDF808B100F0F7F813B000BD80B56848EF
:100F10006E4901600221416000218160C1604FF48F
:100F2000602101614FF480114161002101760121AE
:100F300041768176C1760021818300F09FFB00B16C
:100F400050E001BD80B58AB00120089000200590D6
:100F50000490009001900290039006900120079069
:100F60006946534800F005FC08B100F0C4F80BB026
:100F700000BD1CB508220021684600F075FB4F4CEF
:100F80005348206041F61F4060600020A06042F29C
:100F90000F70E0608020A061204600F0C5FE08B11F
:100FA00000F0A9F80020009001906946204601F069
:100FB00006FA08B100F09FF813BD80B535484549E1
:100FC00001604FF4E131416000218160C160016145
:100FD0000C21416100218161C161FFF7D5F800B1A9
:100FE00000E001BDBDE8014085E010B586B000F02D
:100FF00077F8002000903848016841F00101016055
:10100000016801F0010100F070F841F00801016091
:10101000016801F0080100F068F841F00401016086
:10102000016801F0040100F060F841F00201016084
:10103000006800F0020000900098284C01224FF454
:10104000E071204600F0E4FA4FF4E07001900120D6
:10105000029000200390049001A9204600F00EFAAF
:1010600006B010BD740000206000002010000020B9
:101070001800002020000020280000203000002060
:1010800038000020400000204800002050000020D0
:10109000580000200C010020BC01002000000020AE
:1010A00008000020AC010020C401002094010020B1
:1010B0005001002078010020B4010020C40000206D
:1010C000CC01002040380240007000400064004025
:1010D0000010004000440040303802400008024048
:1010E0001422002101A800F0BFBA0091009900214C
:1010F00000910168704772B6FEE700002DE9F041EB
:1011000004000E465AD0534D00F082F802D200F08F
:101110007EF853D12078800716D52078400704D573
:1011200000F07BF841F4E05101602078000704D51D
:1011300000F073F841F46041016047490A6822F009
:10114000F002A06802430A602078C0072ED56068CC
:10115000012803D141480068800306E0022818BF37
:10116000032804D13D480068800104D426E03B48B0
:101170000068800722D5384F39688908606840EADE
:1011800081013960FFF79EFC8046386800F00C0052
:101190006168B0EB810F09D0FFF794FCA0EB080069
:1011A00041F289318842F0D303202EE0286800F014
:1011B0000700864204D200F02AF801D0012024E082
:1011C0002078400706D524490A6822F4E052E068F6
:1011D00002430A602078000707D500F01EF821F4CA
:1011E0006041226941EAC201016001F031F91C4904
:1011F000194A1268C2F30312895CC8401949086091
:101200001948006801F054F90020BDE8F0812E7003
:10121000286800F00700B04270470F480168704727
:1012200010480068704780B5FFF7FAFF00F00DF82E
:10123000C2F3822206E080B5FFF7F2FF00F005F866
:10124000C2F34232895CC84002BD0849024A1268B2
:1012500070470000003C024008380240003802405D
:101260007C2700086C00002068000020AC270008E4
:10127000D3BBD9B1B2F5803F5BD2022A1ED98C46CE
:10128000B1FBF2F102FB11C31B0443EA1043B3FBB1
:10129000F2FC02FB1C3380B240EA0343B3FBF2F0E2
:1012A00002FB103240EA0C4000237047022A05D9A5
:1012B0008446B0FBF2F002FB10C270474AB105D180
:1012C00000F0010249085FEA300070470022002365
:1012D000704701F011B90B00020000210020704797
:1012E000F7D3002200237047904271EB030CF2D336
:1012F00070B5B1FA81F4B3FA83F52C1BA340C4F1A5
:10130000200532FA05F63343A2405FF00046E6407E
:1013100002E05B085FEA3202841A71EB030524BF26
:10132000204629467641F4D302000B00300000210C
:1013300070BD70B5B1FA81F4B2FA82F5C4F120043F
:101340006419B4F12006DAD3B2405FF00044F440EF
:10135000002502E052085FEA3303C61A71EB020E61
:1013600024BF3046714664416D41F3D302000B0047
:101370002000290070BD0000384A13684FF6FF01B5
:101380000B40000200F4E060184335490843106048
:10139000704732480068C0F302207047010007D44C
:1013A000012200F01F018A402E49400941F8202007
:1013B0007047020003D409012B4A115470470901F8
:1013C0002A4A00F00F00104400F8041C704710B5C2
:1013D00000F00700C0F10703052B2FBF0F230124E6
:1013E00004FA03F35B1E041D072C34BF0020C01E4B
:1013F00019408140012303FA00F0401E10400843C9
:1014000010BD10B50446601EB0F1807F0CD21849A3
:1014100008600F214FF0FF30FFF7CBFF0020154988
:101420000860072014490860641EB4F1807F804181
:10143000C043C00F10BD9FE770B504460D46164669
:10144000FFF7A7FF32462946FFF7C1FF01462046B6
:10145000BDE87040ADE7A1E7D3E700000CED00E088
:101460000000FA0500E100E000E400E018ED00E013
:1014700014E000E018E000E010E000E0F8B5002320
:10148000012404FA03F50A682A40AA4240F0B78012
:101490000D7905F00305012D1EBF0D7905F003053B
:1014A000022D12D1856803265F00BE40B543CE6889
:1014B000BE403543856045689C4025EA04044D687C
:1014C000C5F300159D402C4344600C7904F00304DF
:1014D000032C21D0C46803255E00B540AC438D6861
:1014E000B5402C43C4600C7904F00304022C13D1E2
:1014F000DC0800EB8404246ADD0800EB85050F2678
:101500009F0007F01C07BE40B4430E699F0007F020
:101510001C07BE4034432C62046803255E00B540BE
:10152000AC430D7905F00305B5402C4304604C68CD
:1015300014F4403F63D0002400943C4C256845F4EB
:1015400080452560246804F480440094009C384C55
:101550009D0854F825600F279D0005F00C0507FA3B
:1015600005F526EA0505334EB04208BF002622D015
:10157000314EB04208BF01261DD0304EB04208BFE8
:10158000022618D02E4EB04208BF032613D02D4E8F
:10159000B04208BF04260ED02B4EB04208BF05262D
:1015A00009D02A4EB04208BF062604D0284EB042C9
:1015B0000CBF072608269F0007F00C07BE403543E6
:1015C0009E0844F82650234D00F01EF8F60248BF4E
:1015D00014432C60204D00F017F8B60248BF1443A6
:1015E0002C601E4D00F010F8B60348BF14432C6069
:1015F0001B4D00F009F8F60348BF14432C605B1C38
:10160000102BFFF43DAFF1BD2C6894434E6870473A
:1016100002B909048161704712490A68024203D085
:1016200002460A6000F069BF70470000443802407B
:101630000838014000000240000402400008024057
:10164000000C02400010024000140240001802404A
:10165000001C0240083C01400C3C0140043C01409D
:10166000003C0140143C014010B5044610460A46B7
:101670000146204600F042FF204610BD38B5040068
:1016800022D094F8200010B92046FFF764F900F04A
:1016900016F9054620684068C00705D4FFF712FA1E
:1016A000401B0B28F6D30DE000F002F9FFF70AFA11
:1016B000054620684068800708D5FFF703FA401BFD
:1016C0000B28F6D300F0ECF8012032BD207E00F0AC
:1016D0004CF80CBF40F0800020F0800021680860CA
:1016E000607E00F042F80CBF40F0400020F0400067
:1016F00021680860A07E00F038F80CBF40F02000A0
:1017000020F0200021680860E07E00F02EF80CBF79
:1017100020F0100040F0100021680860207F00F0E9
:1017200024F80CBF40F0080020F008002168086091
:10173000607F00F01AF80CBF40F0040020F00400B5
:1017400021680860A168E06801432069014360697D
:1017500001436068401E01432068C161002060624F
:10176000012084F82000002032BD01282068006894
:101770007047F0B590F82020012A18BF022A52D1F4
:10178000534A106840F001001060106820F47C504B
:10179000106010684B6A40EA0320106001200B7D46
:1017A00003F01F0300FA03F34A4C206898432060BB
:1017B000C86960B9484805689D4300F03AF8CE68AA
:1017C00000F03DF80E68C6EA0545C0F84452C86905
:1017D00001280CD1404805681D4300F02AF80E6826
:1017E00000F02DF8CE68C6EA0545C0F84452886975
:1017F00000283A4805680CBF9D431D4305600869F1
:101800000028374805680CBF9D431D430560086AE2
:10181000012802D12068034323601068400840007B
:1018200010600020F0BD416A41F480214162012036
:10183000F0BD05602B484D6900EBC50570474F684A
:10184000C7EA0646C5F840624D6900EBC5008D68E1
:10185000704738B5044694F8200001281AD10220B8
:1018600084F8200020680068400840002168086073
:10187000FFF728F9054620684068C00707D5FFF73D
:1018800021F9401B0B28F6D300F00AF806E00020EF
:10189000606232BD606A40F400206062012032BDA7
:1018A000606A40F400306062052084F820007047D0
:1018B0002068006820F002002168086070472068F6
:1018C000006840F0010021680860FFF7FBB80000E5
:1018D000006600401C6600400C6600400466004044
:1018E000146600400064004030B590F82040056860
:1018F000AD68012C18BF022C5ED115F0E05F57D007
:10190000C5F30164032C03D3416A41F4000156E09E
:101910000125A5401D608B6823B90B68CD6845EA99
:10192000435505E04B688D6845EAC305CB681D4308
:10193000036803EB0413C3F880510B69056805EBDA
:101940000415C5F88431097D01290AD100F03BF85E
:10195000D1F8841141F48071036803EB0413C3F8D8
:101960008411D17993791B0443EA0163517943EAE5
:101970000123117900F026F8C1F88C31D1789378E1
:101980001B0443EA0163517843EA0123117800F014
:1019900019F8C1F8883100F016F8D1F8801141F03B
:1019A0000101006800EB0410C0F88011002030BD78
:1019B000416A41F4001102E0416A41F48021416230
:1019C000012030BD0B43016801EB04117047416AEF
:1019D00041F4802141620120704710B590F8204009
:1019E000012C18BF022C59D10029046801D1E468E8
:1019F00000E0246914F0030F03D1416A41F400119F
:101A00004FE000F057F814F00404946000F052F82E
:101A100007BF640D1460E408546000F04BF804F054
:101A20000204D46000F040F804F00F04146100F0E8
:101A30003BF8C4F30724946100F036F8240C546199
:101A400000F044F81A7000F041F8120A5A7000F0E1
:101A50003DF8120C9A7000F039F8120EDA7000F0AE
:101A60002FF81A7100F02CF8120A5A7100F028F8B9
:101A7000120C9A7100F024F8120EDA710029016834
:101A800005D1C96841F020010068C16004E009691E
:101A900041F0200100680161002010BD416A41F45D
:101AA00080214162012010BD046804EB0114D4F8C8
:101AB000B4417047046804EB0114D4F8B041704796
:101AC000026802EB0112D2F8BC217047026802EBF7
:101AD0000112D2F8B821704790F82020012A18BFCF
:101AE000022A03D102685269114300E06FE70068DF
:101AF0004161002070472DE9F84F05464FF000087E
:101B000028684669D0F804B08468D0F80C90D0F802
:101B100010A08769F00746D5E00714D50120296891
:101B20008860A00703D5284600F01BFD0BE0600786
:101B300048BF4FF4006806D420074EBF4FF48058CA
:101B4000284600F00FFDE00515D54FF48070296898
:101B50008860A00503D5284600F005FD0BE0600570
:101B600048BF48F4005806D420054EBF48F48048CA
:101B7000284600F0F9FCE00315D54FF480302968C1
:101B80008860A00303D5284600F0EFFC0BE060035B
:101B900048BF48F4004806D420034EBF48F48038BC
:101BA000284600F0E3FC300748BF5FEAC96004D56F
:101BB00048F4007810202968C860700748BF5FEAC1
:101BC000097005D508202968C860284600F0CFFCB8
:101BD000B00707D52868C06810F0030F1CBF28465F
:101BE000FFF78DF8700648BF5FEACA6004D548F475
:101BF0008068102029680861B00648BF5FEA0A7053
:101C000005D5082029680861284600F0B1FCF006D7
:101C100007D52868006910F0030F1CBF284600F0A4
:101C2000A8FCB00348BF5FEACB6005D51020296847
:101C30004860284600F09EFCF00348BF5FEA0B7046
:101C400005D5082029684860284600F094FC300437
:101C500041D55FEA4B703BD5F00503D5F80748BF87
:101C600048F00108B00503D5B80748BF48F002089E
:101C7000700503D5780748BF48F00408300527D51C
:101C800017F0700F24D007F07007102F0CD0202F02
:101C90000DD0302F0ED0402F0FD0502F10D0602FEE
:101CA00008BF48F480780DE048F008080AE048F0E2
:101CB000100807E048F0200804E048F0400801E080
:101CC00048F080082868806920F0700029688861E1
:101CD000042029684860B8F1000F09D0686A48EA12
:101CE0000008C5F824802846BDE8F24F00F044BC47
:101CF000BDE8F18F80B50B48016841F400710160C7
:101D0000016841F480610160016841F48071016003
:101D10000320FFF790FB002000F0CAFBFEF7FEFD5A
:101D2000002002BD003C024010B5040001D101209A
:101D300010BD94F83D0018B900F06CF8FEF751FEA4
:101D40003BE090F83D10012901D0012070470221AD
:101D500080F83D100168C96841F001010268D16056
:101D60000168DFF89420914218BFB1F1804F17D07D
:101D7000DFF8882091421CBFDFF8842091420FD009
:101D8000DFF8802091421CBFDFF87C20914207D011
:101D9000DFF8782091421CBFDFF87420914205D112
:101DA000896801F00701062905D00168096841F03A
:101DB00001010068016000207047022084F83D00A6
:101DC000211D206800F0E2F8012084F8460084F824
:101DD0003E0084F83F0084F8400084F8410084F815
:101DE000420084F8430084F8440084F8450084F8F5
:101DF0003D00002010BD0000000001400004004034
:101E000000080040000C0040000401400040014078
:101E10000018004084F83C002046704710B5044686
:101E200020680069800718D52068C068800714D52D
:101E30006FF0020021680861012020772068806926
:101E400010F0030F204602D000F097FB03E000F0F3
:101E500095FB00F098F80020207720680069400783
:101E600018D52068C068400714D56FF004002168B9
:101E70000861022020772068806910F4407F2046A6
:101E800002D000F07AFB03E000F078FB00F07BF872
:101E90000020207720680069000718D52068C068F6
:101EA000000714D56FF0080021680861042020772E
:101EB0002068C06910F0030F204602D000F05DFBDF
:101EC00003E000F05BFB00F05EF800202077206864
:101ED0000069C00618D52068C068C00614D56FF028
:101EE000100021680861082020772068C06910F47C
:101EF000407F204602D000F040FB03E000F03EFBB4
:101F000000F041F80020207720680069C00709D55B
:101F10002068C068C00705D56FF0010000F02FF8F9
:101F2000FEF73AFF20680069000609D52068C068FE
:101F3000000605D56FF0800000F021F800F01FFBCF
:101F400020680069400609D52068C068400605D5AC
:101F50006FF0400000F013F800F012FB20680069F9
:101F600080060BD52068C068800607D56FF020007A
:101F700000F005F8BDE8104000F003BB10BD21687B
:101F8000086120467047204600F0FCBA10B504688E
:101F9000274B984218BFB0F1804F0BD0254A904292
:101FA0001CBF254A904205D0244A90421CBF244AB7
:101FB000904210D124F070044A681443984218BF2C
:101FC000B0F1804F1BD01B4A90421FBF1A4A90426B
:101FD0001A4A904213D000F028F81CBF194A9042C8
:101FE0000DD0194A90421CBF184A904207D0184A97
:101FF00090421FBF174A9042174A904203D124F4DF
:102000004074CA68144324F080044A69144304608D
:102010008A68C2620A688262984219BF084A90427E
:10202000096901630121416110BD054A9042704771
:10203000000001400004004000080040000C004087
:1020400000040140004001400044014000480140BC
:1020500000180040001C0040002000402DE9FC4119
:1020600004001AD02078C00719D5DFF81C030168D6
:1020700001F00C01042909D0006800F00C000828C8
:1020800045D1DFF808030068400240D5DFF80003BF
:102090000068800303D56068002800F07081207814
:1020A00080071DD5DFF8E002016811F00C0F08D0A1
:1020B000006800F00C0008285ED1B44800684002B7
:1020C0005AD4B3480168890703D5E168012940F073
:1020D0005681016821F0F801226941EAC2010160DC
:1020E0002078000778D56069002866D00120A949CA
:1020F0000860FEF7E7FC0546A748006880076BD438
:10210000FEF7E0FC401B0328F6D303203AE16068A9
:10211000B0F5803F01D19E4807E0B0F5A02F9C4864
:10212000016806D141F480210160016841F48031E9
:1021300005E021F480310160016821F48021016013
:10214000606860B1FEF7BEFC0546914800688003F8
:10215000A5D4FEF7B7FC401B6528F6D3D5E7FEF7FC
:10216000B1FC05468A480068800398D5FEF7AAFCB2
:10217000401B6528F6D3C8E7E06878B1012087499D
:102180000860FEF79FFC0546814801688907A0D4D6
:10219000FEF798FC401B0328F6D3B6E77F4908609A
:1021A000FEF790FC05467A480068800798D5FEF750
:1021B00089FC401B0328F6D3A7E776490860FEF7A1
:1021C00081FC054674480068800705D5FEF77AFC57
:1021D000401B0328F6D398E72078400761D50025F7
:1021E0006F4E3068C0000BD400200090306840F083
:1021F00080503060306800F08050009000980125D9
:10220000684F3868C00510D4386840F48070386072
:10221000FEF758FC80463868C00506D4FEF752FC2D
:10222000A0EB08000328F6D36FE7A068012801D1CE
:102230005D4806E005285C48016806D141F00401CC
:102240000160016841F0010105E0490849000160B1
:10225000016821F004010160A06870B1FEF732FC52
:10226000074651480068800716D4FEF72BFCC01BB8
:1022700041F289318842F4D347E7FEF723FC074651
:1022800049480068800707D5FEF71CFCC01B41F2D7
:1022900089318842F4D338E71DB1306820F080508E
:1022A0003060A06900286CD03748006800F00C004E
:1022B0000828A0693FD002282DD13C4D002028607D
:1022C000FEF700FC0746324E3068800105D5FEF768
:1022D000F9FBC01B0328F7D317E7E069216A08431D
:1022E000616A40EA8110A16A4908491E40EA01403A
:1022F000E16A40EA01602549086001202860FEF794
:10230000E1FB0446306880013BD4FEF7DBFB001B99
:102310000328F7D3F9E6002024490860FEF7D2FB32
:1023200004461B48006880012BD5FEF7CBFB001B41
:102330000328F6D3E9E6012821D01448006800F408
:102340008001E269914202BF00F03F01226A91429E
:1023500001BF47F6C0710140626AB1EB821F0ED126
:1023600000F4403101F58031A26A5208B1EB024F0E
:1023700002BF00F07060E16AB0EB016F01D0012094
:1023800000E00020BDE8F681083802400438024031
:1023900000380240800E4742743802400000474235
:1023A00040380240007000407038024060004742F0
:1023B0000268D160002180F83C10002010BD10B5EB
:1023C00090F83C20012A01D1022010BD012280F8A2
:1023D0003C20022280F83D2002685468936824F073
:1023E00070040A681443026854600268144CA242E4
:1023F00018BFB2F1804F11D0104CA2421CBF114C3B
:10240000A2420BD00C4CA2421CBF0F4CA24205D0E2
:10241000084CA2421CBF0D4CA24205D123F0800300
:1024200049680B4311468B60012180F83D10C1E7DC
:102430000000000000400140000C0040000400408B
:102440000000014000080040000401400018004066
:1024500010B51348006800F00C00042802D00828CA
:1024600002D01BE00F4810BD0F4C226802F03F0263
:10247000206840022068C0F3881001D5094900E0B7
:102480000A49A1FB00010023FEF7F2FE2168C1F317
:102490000141491C4900B0FBF1F010BD034810BDDB
:1024A0000838024000127A00043802400024F40088
:1024B00010B504464FF47A700C490978B0FBF1F07E
:1024C0000B490968B1FBF0F0FEF7C6FF58B9102CB4
:1024D00009D2002221464FF0FF30FEF7ADFF05483C
:1024E0000460002010BD012010BD00BF700000205E
:1024F0006C000020680000207047704762F30F22D4
:1025000062F31F42401810F0030308D0C91A1FD30A
:10251000DB0748BF00F8012D28BF20F8022D13006B
:1025200030B414461546103928BF20E93C00FAD8CB
:10253000490728BF20E90C0048BF40F8042D890056
:1025400028BF20F8022D48BF00F8012D30BC70478D
:10255000C91818BF00F8012DCB0728BF00F8012DBE
:1025600070477047704770477047704770477047B3
:1025700070477047704770477047704770477047A3
:1025800070477047704700005F44656661756C7402
:102590005F5061726B696E674E6F446174610A00CF
:1025A0004E6F446174610A004E6F446174610A00A9
:1025B0004E6F446174610A004E6F446174610A0099
:1025C0004E6F446174610A004E6F446174610A0089
:1025D0004E6F446174610A004E6F446174610A0079
:1025E0004E6F446174610A004E6577446174610AFC
:1025F000100000000024F40001000000FEE7FEE7E8
:10260000FEE7FEE7FEE770477047704700F024B82A
:1026100001E0000000BF0D48FFF76DBAFBE7FAE7E5
:102620000B48FDF77BBE80B54FF40050FEF7F4FF7A
:102630004FF48040FEF7F0FF4FF40040BDE8024049
:10264000FEF7EABF0348FFF7E9BB00005001002096
:102650000C010020C400002003480168034A1278DE
:1026600089180160704700BFC80100207000002079
:1026700030B4002512E050F8042BD30744BF4A447D
:10268000521E091F042942F8045BFAD213468C0734
:1026900044BF15809B1CC90748BF1D7050F8041B20
:1026A0000029E8D130BC704710B50749794418318A
:1026B000064C7C44163404E00A68081D114488471F
:1026C0000146A142F8D110BD2C0000004C000000D2
:1026D0004EF68851CEF20001086840F470000860A0
:1026E000BFF34F8FBFF36F8F4FF00170E1EE100A11
:1026F000704700007DFFFFFF5C01000074000020B8
:1027000000000000CFE3FFFF740000007CFEFFFF2D
:10271000000000200000000000F00DF8002801D0AB
:10272000FFF7C2FFAFF300800020AFF30080FEF799
:102730003CFB00F002F80120704700F001B80000F7
:102740000746384600F002F8FBE7000080B5AFF31B
:102750000080024A11001820ABBEFBE726000200F1
:102760000548014603B4684680F30988AFF300804A
:10277000FFF7AEFFFFF7D0FFA5EDF5FE000000006C
:102780000000000001020304060708090148804711
:10279000014800479D27000861270008024801689A
:1027A00041F470010160704788ED00E00000000016
:1027B00001020304FFF7FEBFFFF7FEBFFFF7FEBFF6
:1027C000FFF7FEBFFFF7FEBFFFF7FEBFFFF7FEBF3D
:1027D000FFF7FEBFFFF7FEBFFFF7FEBFFFF7FEBF2D
:1027E000FFF7FEBFFFF7FEBFFFF7FEBFFFF7FEBF1D
:1027F000FFF7FEBFFFF7FEBFFFF7FEBFFFF7FEBF0D
:10280000FFF7FEBFFFF7FEBFFFF7FEBFFFF7FEBFFC
:10281000FFF7FEBFFFF7FEBFFFF7FEBFFFF7FEBFEC
:10282000FFF7FEBFFFF7FEBFFFF7FEBFFFF7FEBFDC
:10283000FFF7FEBFFFF7FEBFFFF7FEBFFFF7FEBFCC
:10284000FFF7FEBFFFF7FEBFFFF7FEBFFFF7FEBFBC
:10285000FFF7FEBFFFF7FEBFFFF7FEBFFFF7FEBFAC
:10286000FFF7FEBFFFF7FEBFFFF7FEBFFFF7FEBF9C
:10287000FFF7FEBFFFF7FEBFFFF7FEBFFFF7FEBF8C
:10288000FFF7FEBFFFF7FEBFFFF7FEBFFFF7FEBF7C
:10289000FFF7FEBFFFF7FEBFFFF7FEBFFFF7FEBF6C
:1028A000FFF7FEBFFFF7FEBFFFF7FEBFFFF7FEBF5C
:1028B000FFF7FEBFFFF7FEBFFFF7FEBFFFF7FEBF4C
:1028C000FFF7FEBFFFF7FEBFFFF7FEBFFFF7FEBF3C
:0C28D000FFF7FEBFFFF7FEBFFFF7FEBFE3
:040000050800276167
:00000001FF
